{
  "contractName": "ActivityLog",
  "abi": [
    {
      "anonymous": false,
      "inputs": [
        {
          "indexed": false,
          "internalType": "uint256",
          "name": "id",
          "type": "uint256"
        },
        {
          "indexed": false,
          "internalType": "uint256",
          "name": "farmerId",
          "type": "uint256"
        },
        {
          "indexed": false,
          "internalType": "string",
          "name": "batchCode",
          "type": "string"
        },
        {
          "indexed": false,
          "internalType": "string",
          "name": "activity",
          "type": "string"
        }
      ],
      "name": "ActivityLogged",
      "type": "event"
    },
    {
      "inputs": [],
      "name": "activityLogCount",
      "outputs": [
        {
          "internalType": "uint256",
          "name": "",
          "type": "uint256"
        }
      ],
      "stateMutability": "view",
      "type": "function"
    },
    {
      "inputs": [
        {
          "internalType": "uint256",
          "name": "",
          "type": "uint256"
        }
      ],
      "name": "activityLogs",
      "outputs": [
        {
          "internalType": "uint256",
          "name": "id",
          "type": "uint256"
        },
        {
          "internalType": "uint256",
          "name": "farmerId",
          "type": "uint256"
        },
        {
          "internalType": "string",
          "name": "batchCode",
          "type": "string"
        },
        {
          "internalType": "string",
          "name": "activity",
          "type": "string"
        },
        {
          "internalType": "uint256",
          "name": "timestamp",
          "type": "uint256"
        }
      ],
      "stateMutability": "view",
      "type": "function"
    },
    {
      "inputs": [
        {
          "internalType": "uint256",
          "name": "_farmerId",
          "type": "uint256"
        },
        {
          "internalType": "string",
          "name": "_batchCode",
          "type": "string"
        },
        {
          "internalType": "string",
          "name": "_activity",
          "type": "string"
        }
      ],
      "name": "logActivity",
      "outputs": [],
      "stateMutability": "nonpayable",
      "type": "function"
    }
  ],
  "bytecode": "0x608060405234801561001057600080fd5b50610802806100206000396000f3fe608060405234801561001057600080fd5b50600436106100415760003560e01c806363da130f14610046578063c74d3bc914610062578063f44d397714610080575b600080fd5b610060600480360381019061005b919061043d565b6100b4565b005b61006a6101a8565b6040516100779190610504565b60405180910390f35b61009a60048036038101906100959190610414565b6101ae565b6040516100ab959493929190610572565b60405180910390f35b600160008154809291906100c7906106ce565b91905055506040518060a001604052806001548152602001848152602001838152602001828152602001428152506000806001548152602001908152602001600020600082015181600001556020820151816001015560408201518160020190805190602001906101399291906102f4565b5060608201518160030190805190602001906101569291906102f4565b50608082015181600401559050507f156a0c11537c299aff79360fa462da1d0cabeeadeecaf1f05c53e388f2830c0e60015484848460405161019b949392919061051f565b60405180910390a1505050565b60015481565b60006020528060005260406000206000915090508060000154908060010154908060020180546101dd9061069c565b80601f01602080910402602001604051908101604052809291908181526020018280546102099061069c565b80156102565780601f1061022b57610100808354040283529160200191610256565b820191906000526020600020905b81548152906001019060200180831161023957829003601f168201915b50505050509080600301805461026b9061069c565b80601f01602080910402602001604051908101604052809291908181526020018280546102979061069c565b80156102e45780601f106102b9576101008083540402835291602001916102e4565b820191906000526020600020905b8154815290600101906020018083116102c757829003601f168201915b5050505050908060040154905085565b8280546103009061069c565b90600052602060002090601f0160209004810192826103225760008555610369565b82601f1061033b57805160ff1916838001178555610369565b82800160010185558215610369579182015b8281111561036857825182559160200191906001019061034d565b5b509050610376919061037a565b5090565b5b8082111561039357600081600090555060010161037b565b5090565b60006103aa6103a584610604565b6105d3565b9050828152602081018484840111156103c257600080fd5b6103cd84828561065a565b509392505050565b600082601f8301126103e657600080fd5b81356103f6848260208601610397565b91505092915050565b60008135905061040e816107b5565b92915050565b60006020828403121561042657600080fd5b6000610434848285016103ff565b91505092915050565b60008060006060848603121561045257600080fd5b6000610460868287016103ff565b935050602084013567ffffffffffffffff81111561047d57600080fd5b610489868287016103d5565b925050604084013567ffffffffffffffff8111156104a657600080fd5b6104b2868287016103d5565b9150509250925092565b60006104c782610634565b6104d1818561063f565b93506104e1818560208601610669565b6104ea816107a4565b840191505092915050565b6104fe81610650565b82525050565b600060208201905061051960008301846104f5565b92915050565b600060808201905061053460008301876104f5565b61054160208301866104f5565b818103604083015261055381856104bc565b9050818103606083015261056781846104bc565b905095945050505050565b600060a08201905061058760008301886104f5565b61059460208301876104f5565b81810360408301526105a681866104bc565b905081810360608301526105ba81856104bc565b90506105c960808301846104f5565b9695505050505050565b6000604051905081810181811067ffffffffffffffff821117156105fa576105f9610775565b5b8060405250919050565b600067ffffffffffffffff82111561061f5761061e610775565b5b601f19601f8301169050602081019050919050565b600081519050919050565b600082825260208201905092915050565b6000819050919050565b82818337600083830152505050565b60005b8381101561068757808201518184015260208101905061066c565b83811115610696576000848401525b50505050565b600060028204905060018216806106b457607f821691505b602082108114156106c8576106c7610746565b5b50919050565b60006106d982610650565b91507fffffffffffffffffffffffffffffffffffffffffffffffffffffffffffffffff82141561070c5761070b610717565b5b600182019050919050565b7f4e487b7100000000000000000000000000000000000000000000000000000000600052601160045260246000fd5b7f4e487b7100000000000000000000000000000000000000000000000000000000600052602260045260246000fd5b7f4e487b7100000000000000000000000000000000000000000000000000000000600052604160045260246000fd5b6000601f19601f8301169050919050565b6107be81610650565b81146107c957600080fd5b5056fea26469706673582212200eab893a81008fa83ecd536aac26de26e9fbc6b1acbe030b1f9ed192366c20d664736f6c63430008000033",
  "immutableReferences": {},
  "source": "// SPDX-License-Identifier: MIT\r\npragma solidity ^0.8.0;\r\n\r\ncontract ActivityLog {\r\n    struct ActivityLogStruct {\r\n        uint256 id;\r\n        uint256 farmerId;\r\n        string batchCode;\r\n        string activity;\r\n        uint256 timestamp;\r\n    }\r\n\r\n    mapping(uint256 => ActivityLogStruct) public activityLogs;\r\n    uint256 public activityLogCount;\r\n\r\n    event ActivityLogged(uint256 id, uint256 farmerId, string batchCode, string activity);\r\n\r\n    function logActivity(uint256 _farmerId, string memory _batchCode, string memory _activity) public {\r\n        activityLogCount++;\r\n        activityLogs[activityLogCount] = ActivityLogStruct(activityLogCount, _farmerId, _batchCode, _activity, block.timestamp);\r\n        emit ActivityLogged(activityLogCount, _farmerId, _batchCode, _activity);\r\n    }\r\n}",
  "sourcePath": "D:\\projects\\startup\\contracts\\logs\\activity.sol",
  "compiler": {
    "name": "solc",
    "version": "0.8.0+commit.c7dfd78e.Emscripten.clang"
  },
  "schemaVersion": "3.4.16",
  "updatedAt": "2024-08-19T13:20:24.434Z",
  "devdoc": {
    "kind": "dev",
    "methods": {},
    "version": 1
  },
  "userdoc": {
    "kind": "user",
    "methods": {},
    "version": 1
  }
}