{
  "contractName": "ActivityRegionFarmerInspector",
  "abi": [
    {
      "anonymous": false,
      "inputs": [
        {
          "indexed": false,
          "internalType": "uint256",
          "name": "id",
          "type": "uint256"
        },
        {
          "indexed": false,
          "internalType": "uint256",
          "name": "farmerId",
          "type": "uint256"
        },
        {
          "indexed": false,
          "internalType": "string",
          "name": "batchCode",
          "type": "string"
        },
        {
          "indexed": false,
          "internalType": "string",
          "name": "activity",
          "type": "string"
        }
      ],
      "name": "ActivityLogged",
      "type": "event"
    },
    {
      "anonymous": false,
      "inputs": [
        {
          "indexed": false,
          "internalType": "uint256",
          "name": "id",
          "type": "uint256"
        },
        {
          "indexed": false,
          "internalType": "uint256",
          "name": "userId",
          "type": "uint256"
        },
        {
          "indexed": false,
          "internalType": "uint256",
          "name": "regionId",
          "type": "uint256"
        }
      ],
      "name": "FarmerAdded",
      "type": "event"
    },
    {
      "anonymous": false,
      "inputs": [
        {
          "indexed": false,
          "internalType": "uint256",
          "name": "id",
          "type": "uint256"
        },
        {
          "indexed": false,
          "internalType": "uint256",
          "name": "userId",
          "type": "uint256"
        },
        {
          "indexed": false,
          "internalType": "uint256",
          "name": "regionId",
          "type": "uint256"
        }
      ],
      "name": "InspectorAdded",
      "type": "event"
    },
    {
      "anonymous": false,
      "inputs": [
        {
          "indexed": false,
          "internalType": "uint256",
          "name": "id",
          "type": "uint256"
        },
        {
          "indexed": false,
          "internalType": "string",
          "name": "name",
          "type": "string"
        }
      ],
      "name": "RegionAdded",
      "type": "event"
    },
    {
      "anonymous": false,
      "inputs": [
        {
          "indexed": false,
          "internalType": "uint256",
          "name": "id",
          "type": "uint256"
        },
        {
          "indexed": false,
          "internalType": "string",
          "name": "name",
          "type": "string"
        },
        {
          "indexed": false,
          "internalType": "uint256",
          "name": "roleId",
          "type": "uint256"
        },
        {
          "indexed": false,
          "internalType": "uint256",
          "name": "regionId",
          "type": "uint256"
        }
      ],
      "name": "UserAdded",
      "type": "event"
    },
    {
      "inputs": [],
      "name": "activityLogCount",
      "outputs": [
        {
          "internalType": "uint256",
          "name": "",
          "type": "uint256"
        }
      ],
      "stateMutability": "view",
      "type": "function"
    },
    {
      "inputs": [
        {
          "internalType": "uint256",
          "name": "",
          "type": "uint256"
        }
      ],
      "name": "activityLogs",
      "outputs": [
        {
          "internalType": "uint256",
          "name": "id",
          "type": "uint256"
        },
        {
          "internalType": "uint256",
          "name": "farmerId",
          "type": "uint256"
        },
        {
          "internalType": "string",
          "name": "batchCode",
          "type": "string"
        },
        {
          "internalType": "string",
          "name": "activity",
          "type": "string"
        },
        {
          "internalType": "uint256",
          "name": "timestamp",
          "type": "uint256"
        }
      ],
      "stateMutability": "view",
      "type": "function"
    },
    {
      "inputs": [
        {
          "internalType": "uint256",
          "name": "_userId",
          "type": "uint256"
        },
        {
          "internalType": "uint256",
          "name": "_regionId",
          "type": "uint256"
        }
      ],
      "name": "addFarmer",
      "outputs": [],
      "stateMutability": "nonpayable",
      "type": "function"
    },
    {
      "inputs": [
        {
          "internalType": "uint256",
          "name": "_userId",
          "type": "uint256"
        },
        {
          "internalType": "uint256",
          "name": "_regionId",
          "type": "uint256"
        }
      ],
      "name": "addInspector",
      "outputs": [],
      "stateMutability": "nonpayable",
      "type": "function"
    },
    {
      "inputs": [
        {
          "internalType": "string",
          "name": "_name",
          "type": "string"
        }
      ],
      "name": "addRegion",
      "outputs": [],
      "stateMutability": "nonpayable",
      "type": "function"
    },
    {
      "inputs": [
        {
          "internalType": "string",
          "name": "_name",
          "type": "string"
        },
        {
          "internalType": "string",
          "name": "_email",
          "type": "string"
        },
        {
          "internalType": "string",
          "name": "_userAddress",
          "type": "string"
        },
        {
          "internalType": "string",
          "name": "_dob",
          "type": "string"
        },
        {
          "internalType": "string",
          "name": "_gender",
          "type": "string"
        },
        {
          "internalType": "uint256",
          "name": "_roleId",
          "type": "uint256"
        },
        {
          "internalType": "uint256",
          "name": "_regionId",
          "type": "uint256"
        }
      ],
      "name": "addUser",
      "outputs": [],
      "stateMutability": "nonpayable",
      "type": "function"
    },
    {
      "inputs": [],
      "name": "farmerCount",
      "outputs": [
        {
          "internalType": "uint256",
          "name": "",
          "type": "uint256"
        }
      ],
      "stateMutability": "view",
      "type": "function"
    },
    {
      "inputs": [
        {
          "internalType": "uint256",
          "name": "",
          "type": "uint256"
        }
      ],
      "name": "farmers",
      "outputs": [
        {
          "internalType": "uint256",
          "name": "id",
          "type": "uint256"
        },
        {
          "internalType": "uint256",
          "name": "userId",
          "type": "uint256"
        },
        {
          "internalType": "uint256",
          "name": "regionId",
          "type": "uint256"
        }
      ],
      "stateMutability": "view",
      "type": "function"
    },
    {
      "inputs": [
        {
          "internalType": "address",
          "name": "_userAddress",
          "type": "address"
        }
      ],
      "name": "getUser",
      "outputs": [
        {
          "components": [
            {
              "internalType": "uint256",
              "name": "id",
              "type": "uint256"
            },
            {
              "internalType": "string",
              "name": "name",
              "type": "string"
            },
            {
              "internalType": "string",
              "name": "email",
              "type": "string"
            },
            {
              "internalType": "string",
              "name": "userAddress",
              "type": "string"
            },
            {
              "internalType": "string",
              "name": "dob",
              "type": "string"
            },
            {
              "internalType": "string",
              "name": "gender",
              "type": "string"
            },
            {
              "internalType": "uint256",
              "name": "roleId",
              "type": "uint256"
            },
            {
              "internalType": "uint256",
              "name": "regionId",
              "type": "uint256"
            },
            {
              "internalType": "uint256",
              "name": "createdAt",
              "type": "uint256"
            }
          ],
          "internalType": "struct User.UserStruct",
          "name": "",
          "type": "tuple"
        }
      ],
      "stateMutability": "view",
      "type": "function"
    },
    {
      "inputs": [
        {
          "internalType": "uint256",
          "name": "_regionId",
          "type": "uint256"
        }
      ],
      "name": "getUsersByRegion",
      "outputs": [
        {
          "components": [
            {
              "internalType": "uint256",
              "name": "id",
              "type": "uint256"
            },
            {
              "internalType": "string",
              "name": "name",
              "type": "string"
            },
            {
              "internalType": "string",
              "name": "email",
              "type": "string"
            },
            {
              "internalType": "string",
              "name": "userAddress",
              "type": "string"
            },
            {
              "internalType": "string",
              "name": "dob",
              "type": "string"
            },
            {
              "internalType": "string",
              "name": "gender",
              "type": "string"
            },
            {
              "internalType": "uint256",
              "name": "roleId",
              "type": "uint256"
            },
            {
              "internalType": "uint256",
              "name": "regionId",
              "type": "uint256"
            },
            {
              "internalType": "uint256",
              "name": "createdAt",
              "type": "uint256"
            }
          ],
          "internalType": "struct User.UserStruct[]",
          "name": "",
          "type": "tuple[]"
        }
      ],
      "stateMutability": "view",
      "type": "function"
    },
    {
      "inputs": [],
      "name": "inspectorCount",
      "outputs": [
        {
          "internalType": "uint256",
          "name": "",
          "type": "uint256"
        }
      ],
      "stateMutability": "view",
      "type": "function"
    },
    {
      "inputs": [
        {
          "internalType": "uint256",
          "name": "",
          "type": "uint256"
        }
      ],
      "name": "inspectors",
      "outputs": [
        {
          "internalType": "uint256",
          "name": "id",
          "type": "uint256"
        },
        {
          "internalType": "uint256",
          "name": "userId",
          "type": "uint256"
        },
        {
          "internalType": "uint256",
          "name": "regionId",
          "type": "uint256"
        }
      ],
      "stateMutability": "view",
      "type": "function"
    },
    {
      "inputs": [
        {
          "internalType": "uint256",
          "name": "_farmerId",
          "type": "uint256"
        },
        {
          "internalType": "string",
          "name": "_batchCode",
          "type": "string"
        },
        {
          "internalType": "string",
          "name": "_activity",
          "type": "string"
        }
      ],
      "name": "logActivity",
      "outputs": [],
      "stateMutability": "nonpayable",
      "type": "function"
    },
    {
      "inputs": [],
      "name": "regionCount",
      "outputs": [
        {
          "internalType": "uint256",
          "name": "",
          "type": "uint256"
        }
      ],
      "stateMutability": "view",
      "type": "function"
    },
    {
      "inputs": [
        {
          "internalType": "uint256",
          "name": "",
          "type": "uint256"
        }
      ],
      "name": "regions",
      "outputs": [
        {
          "internalType": "uint256",
          "name": "id",
          "type": "uint256"
        },
        {
          "internalType": "string",
          "name": "name",
          "type": "string"
        }
      ],
      "stateMutability": "view",
      "type": "function"
    },
    {
      "inputs": [
        {
          "internalType": "uint256",
          "name": "",
          "type": "uint256"
        }
      ],
      "name": "userAddresses",
      "outputs": [
        {
          "internalType": "address",
          "name": "",
          "type": "address"
        }
      ],
      "stateMutability": "view",
      "type": "function"
    },
    {
      "inputs": [],
      "name": "userCount",
      "outputs": [
        {
          "internalType": "uint256",
          "name": "",
          "type": "uint256"
        }
      ],
      "stateMutability": "view",
      "type": "function"
    },
    {
      "inputs": [
        {
          "internalType": "address",
          "name": "",
          "type": "address"
        }
      ],
      "name": "users",
      "outputs": [
        {
          "internalType": "uint256",
          "name": "id",
          "type": "uint256"
        },
        {
          "internalType": "string",
          "name": "name",
          "type": "string"
        },
        {
          "internalType": "string",
          "name": "email",
          "type": "string"
        },
        {
          "internalType": "string",
          "name": "userAddress",
          "type": "string"
        },
        {
          "internalType": "string",
          "name": "dob",
          "type": "string"
        },
        {
          "internalType": "string",
          "name": "gender",
          "type": "string"
        },
        {
          "internalType": "uint256",
          "name": "roleId",
          "type": "uint256"
        },
        {
          "internalType": "uint256",
          "name": "regionId",
          "type": "uint256"
        },
        {
          "internalType": "uint256",
          "name": "createdAt",
          "type": "uint256"
        }
      ],
      "stateMutability": "view",
      "type": "function"
    }
  ],
  "bytecode": "0x608060405234801561001057600080fd5b50612422806100206000396000f3fe608060405234801561001057600080fd5b50600436106101165760003560e01c80638afdd669116100a2578063b869586011610071578063b869586014610324578063bd45b39714610342578063bfbda98c14610360578063c74d3bc91461037c578063f44d39771461039a57610116565b80638afdd66914610280578063a6304b92146102b2578063a837a713146102d0578063a87430ba146102ec57610116565b806342146062116100e957806342146062146101b8578063502c9bd5146101e857806363da130f146102185780636f77926b1461023457806387f2d2971461026457610116565b806307973ccf1461011b578063132abfb614610139578063364a75101461016a5780633b13616b14610186575b600080fd5b6101236103ce565b6040516101309190611f2e565b60405180910390f35b610153600480360381019061014e9190611b01565b6103d4565b604051610161929190611f49565b60405180910390f35b610184600480360381019061017f9190611ba9565b610480565b005b6101a0600480360381019061019b9190611b01565b61052c565b6040516101af93929190612129565b60405180910390f35b6101d260048036038101906101cd9190611b01565b610556565b6040516101df9190611eea565b60405180910390f35b61020260048036038101906101fd9190611b01565b610b9a565b60405161020f9190611ecf565b60405180910390f35b610232600480360381019061022d9190611b2a565b610bd9565b005b61024e60048036038101906102499190611981565b610ccd565b60405161025b9190611f0c565b60405180910390f35b61027e60048036038101906102799190611ba9565b611029565b005b61029a60048036038101906102959190611b01565b6110d5565b6040516102a993929190612129565b60405180910390f35b6102ba6110ff565b6040516102c79190611f2e565b60405180910390f35b6102ea60048036038101906102e591906119eb565b611105565b005b61030660048036038101906103019190611981565b611306565b60405161031b99989796959493929190611f79565b60405180910390f35b61032c6115fc565b6040516103399190611f2e565b60405180910390f35b61034a611602565b6040516103579190611f2e565b60405180910390f35b61037a600480360381019061037591906119aa565b611608565b005b6103846116b4565b6040516103919190611f2e565b60405180910390f35b6103b460048036038101906103af9190611b01565b6116ba565b6040516103c59594939291906120c8565b60405180910390f35b60065481565b60026020528060005260406000206000915090508060000154908060010180546103fd906122a5565b80601f0160208091040260200160405190810160405280929190818152602001828054610429906122a5565b80156104765780601f1061044b57610100808354040283529160200191610476565b820191906000526020600020905b81548152906001019060200180831161045957829003601f168201915b5050505050905082565b600a6000815480929190610493906122d7565b91905055506040518060600160405280600a5481526020018381526020018281525060096000600a5481526020019081526020016000206000820151816000015560208201518160010155604082015181600201559050507f3cde63bc32fbc83b47631d41ca0e3ef5918c917f7d880efdbe08b61e1c8cf443600a54838360405161052093929190612129565b60405180910390a15050565b60096020528060005260406000206000915090508060000154908060010154908060020154905083565b60606000805b600580549050811015610639578360046000600584815481106105a8577f4e487b7100000000000000000000000000000000000000000000000000000000600052603260045260246000fd5b9060005260206000200160009054906101000a900473ffffffffffffffffffffffffffffffffffffffff1673ffffffffffffffffffffffffffffffffffffffff1673ffffffffffffffffffffffffffffffffffffffff168152602001908152602001600020600701541415610626578180610622906122d7565b9250505b8080610631906122d7565b91505061055c565b5060008167ffffffffffffffff81111561067c577f4e487b7100000000000000000000000000000000000000000000000000000000600052604160045260246000fd5b6040519080825280602002602001820160405280156106b557816020015b6106a2611800565b81526020019060019003908161069a5790505b5090506000805b600580549050811015610b8e57856004600060058481548110610708577f4e487b7100000000000000000000000000000000000000000000000000000000600052603260045260246000fd5b9060005260206000200160009054906101000a900473ffffffffffffffffffffffffffffffffffffffff1673ffffffffffffffffffffffffffffffffffffffff1673ffffffffffffffffffffffffffffffffffffffff168152602001908152602001600020600701541415610b7b5760046000600583815481106107b5577f4e487b7100000000000000000000000000000000000000000000000000000000600052603260045260246000fd5b9060005260206000200160009054906101000a900473ffffffffffffffffffffffffffffffffffffffff1673ffffffffffffffffffffffffffffffffffffffff1673ffffffffffffffffffffffffffffffffffffffff1681526020019081526020016000206040518061012001604052908160008201548152602001600182018054610840906122a5565b80601f016020809104026020016040519081016040528092919081815260200182805461086c906122a5565b80156108b95780601f1061088e576101008083540402835291602001916108b9565b820191906000526020600020905b81548152906001019060200180831161089c57829003601f168201915b505050505081526020016002820180546108d2906122a5565b80601f01602080910402602001604051908101604052809291908181526020018280546108fe906122a5565b801561094b5780601f106109205761010080835404028352916020019161094b565b820191906000526020600020905b81548152906001019060200180831161092e57829003601f168201915b50505050508152602001600382018054610964906122a5565b80601f0160208091040260200160405190810160405280929190818152602001828054610990906122a5565b80156109dd5780601f106109b2576101008083540402835291602001916109dd565b820191906000526020600020905b8154815290600101906020018083116109c057829003601f168201915b505050505081526020016004820180546109f6906122a5565b80601f0160208091040260200160405190810160405280929190818152602001828054610a22906122a5565b8015610a6f5780601f10610a4457610100808354040283529160200191610a6f565b820191906000526020600020905b815481529060010190602001808311610a5257829003601f168201915b50505050508152602001600582018054610a88906122a5565b80601f0160208091040260200160405190810160405280929190818152602001828054610ab4906122a5565b8015610b015780601f10610ad657610100808354040283529160200191610b01565b820191906000526020600020905b815481529060010190602001808311610ae457829003601f168201915b505050505081526020016006820154815260200160078201548152602001600882015481525050838381518110610b61577f4e487b7100000000000000000000000000000000000000000000000000000000600052603260045260246000fd5b60200260200101819052508180610b77906122d7565b9250505b8080610b86906122d7565b9150506106bc565b50819350505050919050565b60058181548110610baa57600080fd5b906000526020600020016000915054906101000a900473ffffffffffffffffffffffffffffffffffffffff1681565b60016000815480929190610bec906122d7565b91905055506040518060a00160405280600154815260200184815260200183815260200182815260200142815250600080600154815260200190815260200160002060008201518160000155602082015181600101556040820151816002019080519060200190610c5e92919061184c565b506060820151816003019080519060200190610c7b92919061184c565b50608082015181600401559050507f156a0c11537c299aff79360fa462da1d0cabeeadeecaf1f05c53e388f2830c0e600154848484604051610cc09493929190612075565b60405180910390a1505050565b610cd5611800565b600460008373ffffffffffffffffffffffffffffffffffffffff1673ffffffffffffffffffffffffffffffffffffffff1681526020019081526020016000206040518061012001604052908160008201548152602001600182018054610d3a906122a5565b80601f0160208091040260200160405190810160405280929190818152602001828054610d66906122a5565b8015610db35780601f10610d8857610100808354040283529160200191610db3565b820191906000526020600020905b815481529060010190602001808311610d9657829003601f168201915b50505050508152602001600282018054610dcc906122a5565b80601f0160208091040260200160405190810160405280929190818152602001828054610df8906122a5565b8015610e455780601f10610e1a57610100808354040283529160200191610e45565b820191906000526020600020905b815481529060010190602001808311610e2857829003601f168201915b50505050508152602001600382018054610e5e906122a5565b80601f0160208091040260200160405190810160405280929190818152602001828054610e8a906122a5565b8015610ed75780601f10610eac57610100808354040283529160200191610ed7565b820191906000526020600020905b815481529060010190602001808311610eba57829003601f168201915b50505050508152602001600482018054610ef0906122a5565b80601f0160208091040260200160405190810160405280929190818152602001828054610f1c906122a5565b8015610f695780601f10610f3e57610100808354040283529160200191610f69565b820191906000526020600020905b815481529060010190602001808311610f4c57829003601f168201915b50505050508152602001600582018054610f82906122a5565b80601f0160208091040260200160405190810160405280929190818152602001828054610fae906122a5565b8015610ffb5780601f10610fd057610100808354040283529160200191610ffb565b820191906000526020600020905b815481529060010190602001808311610fde57829003601f168201915b5050505050815260200160068201548152602001600782015481526020016008820154815250509050919050565b6008600081548092919061103c906122d7565b919050555060405180606001604052806008548152602001838152602001828152506007600060085481526020019081526020016000206000820151816000015560208201518160010155604082015181600201559050507fb646a94c0d82abc8a3462ce854d8118cd7fd08210c88beede586140c81827e4260085483836040516110c993929190612129565b60405180910390a15050565b60076020528060005260406000206000915090508060000154908060010154908060020154905083565b600a5481565b60066000815480929190611118906122d7565b9190505550604051806101200160405280600654815260200188815260200187815260200186815260200185815260200184815260200183815260200182815260200142815250600460003373ffffffffffffffffffffffffffffffffffffffff1673ffffffffffffffffffffffffffffffffffffffff1681526020019081526020016000206000820151816000015560208201518160010190805190602001906111c492919061184c565b5060408201518160020190805190602001906111e192919061184c565b5060608201518160030190805190602001906111fe92919061184c565b50608082015181600401908051906020019061121b92919061184c565b5060a082015181600501908051906020019061123892919061184c565b5060c0820151816006015560e0820151816007015561010082015181600801559050506005339080600181540180825580915050600190039060005260206000200160009091909190916101000a81548173ffffffffffffffffffffffffffffffffffffffff021916908373ffffffffffffffffffffffffffffffffffffffff1602179055507feabcb8900cdae60d1603d8999fadc9a0c2926e0483c42b49a361e5f14617dc216006548884846040516112f59493929190612029565b60405180910390a150505050505050565b600460205280600052604060002060009150905080600001549080600101805461132f906122a5565b80601f016020809104026020016040519081016040528092919081815260200182805461135b906122a5565b80156113a85780601f1061137d576101008083540402835291602001916113a8565b820191906000526020600020905b81548152906001019060200180831161138b57829003601f168201915b5050505050908060020180546113bd906122a5565b80601f01602080910402602001604051908101604052809291908181526020018280546113e9906122a5565b80156114365780601f1061140b57610100808354040283529160200191611436565b820191906000526020600020905b81548152906001019060200180831161141957829003601f168201915b50505050509080600301805461144b906122a5565b80601f0160208091040260200160405190810160405280929190818152602001828054611477906122a5565b80156114c45780601f10611499576101008083540402835291602001916114c4565b820191906000526020600020905b8154815290600101906020018083116114a757829003601f168201915b5050505050908060040180546114d9906122a5565b80601f0160208091040260200160405190810160405280929190818152602001828054611505906122a5565b80156115525780601f1061152757610100808354040283529160200191611552565b820191906000526020600020905b81548152906001019060200180831161153557829003601f168201915b505050505090806005018054611567906122a5565b80601f0160208091040260200160405190810160405280929190818152602001828054611593906122a5565b80156115e05780601f106115b5576101008083540402835291602001916115e0565b820191906000526020600020905b8154815290600101906020018083116115c357829003601f168201915b5050505050908060060154908060070154908060080154905089565b60035481565b60085481565b6003600081548092919061161b906122d7565b9190505550604051806040016040528060035481526020018281525060026000600354815260200190815260200160002060008201518160000155602082015181600101908051906020019061167292919061184c565b509050507f5ab5cc8942e6c98d124ada92b18633649af885d6b742c9c6f454f26a424d7616600354826040516116a9929190611f49565b60405180910390a150565b60015481565b60006020528060005260406000206000915090508060000154908060010154908060020180546116e9906122a5565b80601f0160208091040260200160405190810160405280929190818152602001828054611715906122a5565b80156117625780601f1061173757610100808354040283529160200191611762565b820191906000526020600020905b81548152906001019060200180831161174557829003601f168201915b505050505090806003018054611777906122a5565b80601f01602080910402602001604051908101604052809291908181526020018280546117a3906122a5565b80156117f05780601f106117c5576101008083540402835291602001916117f0565b820191906000526020600020905b8154815290600101906020018083116117d357829003601f168201915b5050505050908060040154905085565b6040518061012001604052806000815260200160608152602001606081526020016060815260200160608152602001606081526020016000815260200160008152602001600081525090565b828054611858906122a5565b90600052602060002090601f01602090048101928261187a57600085556118c1565b82601f1061189357805160ff19168380011785556118c1565b828001600101855582156118c1579182015b828111156118c05782518255916020019190600101906118a5565b5b5090506118ce91906118d2565b5090565b5b808211156118eb5760008160009055506001016118d3565b5090565b60006119026118fd84612191565b612160565b90508281526020810184848401111561191a57600080fd5b611925848285612263565b509392505050565b60008135905061193c816123be565b92915050565b600082601f83011261195357600080fd5b81356119638482602086016118ef565b91505092915050565b60008135905061197b816123d5565b92915050565b60006020828403121561199357600080fd5b60006119a18482850161192d565b91505092915050565b6000602082840312156119bc57600080fd5b600082013567ffffffffffffffff8111156119d657600080fd5b6119e284828501611942565b91505092915050565b600080600080600080600060e0888a031215611a0657600080fd5b600088013567ffffffffffffffff811115611a2057600080fd5b611a2c8a828b01611942565b975050602088013567ffffffffffffffff811115611a4957600080fd5b611a558a828b01611942565b965050604088013567ffffffffffffffff811115611a7257600080fd5b611a7e8a828b01611942565b955050606088013567ffffffffffffffff811115611a9b57600080fd5b611aa78a828b01611942565b945050608088013567ffffffffffffffff811115611ac457600080fd5b611ad08a828b01611942565b93505060a0611ae18a828b0161196c565b92505060c0611af28a828b0161196c565b91505092959891949750929550565b600060208284031215611b1357600080fd5b6000611b218482850161196c565b91505092915050565b600080600060608486031215611b3f57600080fd5b6000611b4d8682870161196c565b935050602084013567ffffffffffffffff811115611b6a57600080fd5b611b7686828701611942565b925050604084013567ffffffffffffffff811115611b9357600080fd5b611b9f86828701611942565b9150509250925092565b60008060408385031215611bbc57600080fd5b6000611bca8582860161196c565b9250506020611bdb8582860161196c565b9150509250929050565b6000611bf18383611cef565b905092915050565b611c0281612227565b82525050565b6000611c13826121d1565b611c1d81856121f4565b935083602082028501611c2f856121c1565b8060005b85811015611c6b5784840389528151611c4c8582611be5565b9450611c57836121e7565b925060208a01995050600181019050611c33565b50829750879550505050505092915050565b6000611c88826121dc565b611c928185612205565b9350611ca2818560208601612272565b611cab816123ad565b840191505092915050565b6000611cc1826121dc565b611ccb8185612216565b9350611cdb818560208601612272565b611ce4816123ad565b840191505092915050565b600061012083016000830151611d086000860182611eb1565b5060208301518482036020860152611d208282611c7d565b91505060408301518482036040860152611d3a8282611c7d565b91505060608301518482036060860152611d548282611c7d565b91505060808301518482036080860152611d6e8282611c7d565b91505060a083015184820360a0860152611d888282611c7d565b91505060c0830151611d9d60c0860182611eb1565b5060e0830151611db060e0860182611eb1565b50610100830151611dc5610100860182611eb1565b508091505092915050565b600061012083016000830151611de96000860182611eb1565b5060208301518482036020860152611e018282611c7d565b91505060408301518482036040860152611e1b8282611c7d565b91505060608301518482036060860152611e358282611c7d565b91505060808301518482036080860152611e4f8282611c7d565b91505060a083015184820360a0860152611e698282611c7d565b91505060c0830151611e7e60c0860182611eb1565b5060e0830151611e9160e0860182611eb1565b50610100830151611ea6610100860182611eb1565b508091505092915050565b611eba81612259565b82525050565b611ec981612259565b82525050565b6000602082019050611ee46000830184611bf9565b92915050565b60006020820190508181036000830152611f048184611c08565b905092915050565b60006020820190508181036000830152611f268184611dd0565b905092915050565b6000602082019050611f436000830184611ec0565b92915050565b6000604082019050611f5e6000830185611ec0565b8181036020830152611f708184611cb6565b90509392505050565b600061012082019050611f8f600083018c611ec0565b8181036020830152611fa1818b611cb6565b90508181036040830152611fb5818a611cb6565b90508181036060830152611fc98189611cb6565b90508181036080830152611fdd8188611cb6565b905081810360a0830152611ff18187611cb6565b905061200060c0830186611ec0565b61200d60e0830185611ec0565b61201b610100830184611ec0565b9a9950505050505050505050565b600060808201905061203e6000830187611ec0565b81810360208301526120508186611cb6565b905061205f6040830185611ec0565b61206c6060830184611ec0565b95945050505050565b600060808201905061208a6000830187611ec0565b6120976020830186611ec0565b81810360408301526120a98185611cb6565b905081810360608301526120bd8184611cb6565b905095945050505050565b600060a0820190506120dd6000830188611ec0565b6120ea6020830187611ec0565b81810360408301526120fc8186611cb6565b905081810360608301526121108185611cb6565b905061211f6080830184611ec0565b9695505050505050565b600060608201905061213e6000830186611ec0565b61214b6020830185611ec0565b6121586040830184611ec0565b949350505050565b6000604051905081810181811067ffffffffffffffff821117156121875761218661237e565b5b8060405250919050565b600067ffffffffffffffff8211156121ac576121ab61237e565b5b601f19601f8301169050602081019050919050565b6000819050602082019050919050565b600081519050919050565b600081519050919050565b6000602082019050919050565b600082825260208201905092915050565b600082825260208201905092915050565b600082825260208201905092915050565b600061223282612239565b9050919050565b600073ffffffffffffffffffffffffffffffffffffffff82169050919050565b6000819050919050565b82818337600083830152505050565b60005b83811015612290578082015181840152602081019050612275565b8381111561229f576000848401525b50505050565b600060028204905060018216806122bd57607f821691505b602082108114156122d1576122d061234f565b5b50919050565b60006122e282612259565b91507fffffffffffffffffffffffffffffffffffffffffffffffffffffffffffffffff82141561231557612314612320565b5b600182019050919050565b7f4e487b7100000000000000000000000000000000000000000000000000000000600052601160045260246000fd5b7f4e487b7100000000000000000000000000000000000000000000000000000000600052602260045260246000fd5b7f4e487b7100000000000000000000000000000000000000000000000000000000600052604160045260246000fd5b6000601f19601f8301169050919050565b6123c781612227565b81146123d257600080fd5b50565b6123de81612259565b81146123e957600080fd5b5056fea26469706673582212201d489860d1c7de1b3c3c431be1b7d4c027e3e1d785ff458fecbb4ab2876fa98c64736f6c63430008000033",
  "immutableReferences": {},
  "source": "// SPDX-License-Identifier: MIT\r\npragma solidity ^0.8.0;\r\n\r\n// Import statements\r\nimport \"./roles/role.sol\";\r\nimport \"./roles/degree.sol\";\r\nimport \"./users/user.sol\";\r\nimport \"./products/product.sol\";\r\nimport \"./products/batch.sol\";\r\nimport \"./logs/activity.sol\";\r\nimport \"./region/region.sol\";\r\nimport \"./region/farmer.sol\";\r\nimport \"./region/inspector.sol\";\r\n// Contract declaration\r\n\r\ncontract RoleDegree is Role, Degree {\r\n    // Code for Role and Degree\r\n}\r\n\r\ncontract UserProductBatch is User, Product, Batch {\r\n    constructor(address _productContractAddress) Batch(_productContractAddress) {\r\n        // Additional initialization code if needed\r\n    }\r\n}\r\n\r\ncontract ActivityRegionFarmerInspector is ActivityLog, Region, Farmer, Inspector {\r\n    // Code for ActivityLog, Region, Farmer, and Inspector\r\n}\r\n\r\n// Main contract that combines the separated contracts\r\ncontract GrapefruitTraceability is RoleDegree, UserProductBatch, ActivityRegionFarmerInspector {\r\n    constructor(address _productContractAddress) UserProductBatch(_productContractAddress) {\r\n        // Additional initialization code if needed\r\n    }\r\n}",
  "sourcePath": "D:\\projects\\startup\\contracts\\application.sol",
  "compiler": {
    "name": "solc",
    "version": "0.8.0+commit.c7dfd78e.Emscripten.clang"
  },
  "schemaVersion": "3.4.16",
  "updatedAt": "2024-08-19T13:20:24.382Z",
  "devdoc": {
    "kind": "dev",
    "methods": {},
    "version": 1
  },
  "userdoc": {
    "kind": "user",
    "methods": {},
    "version": 1
  }
}