{
  "contractName": "ActivityRegionFarmerInspector",
  "abi": [
    {
      "anonymous": false,
      "inputs": [
        {
          "indexed": false,
          "internalType": "uint256",
          "name": "id",
          "type": "uint256"
        },
        {
          "indexed": false,
          "internalType": "uint256",
          "name": "farmerId",
          "type": "uint256"
        },
        {
          "indexed": false,
          "internalType": "string",
          "name": "batchCode",
          "type": "string"
        },
        {
          "indexed": false,
          "internalType": "string",
          "name": "activity",
          "type": "string"
        }
      ],
      "name": "ActivityLogged",
      "type": "event"
    },
    {
      "anonymous": false,
      "inputs": [
        {
          "indexed": false,
          "internalType": "uint256",
          "name": "id",
          "type": "uint256"
        },
        {
          "indexed": false,
          "internalType": "uint256",
          "name": "userId",
          "type": "uint256"
        },
        {
          "indexed": false,
          "internalType": "uint256",
          "name": "regionId",
          "type": "uint256"
        }
      ],
      "name": "FarmerAdded",
      "type": "event"
    },
    {
      "anonymous": false,
      "inputs": [
        {
          "indexed": false,
          "internalType": "uint256",
          "name": "id",
          "type": "uint256"
        },
        {
          "indexed": false,
          "internalType": "uint256",
          "name": "userId",
          "type": "uint256"
        },
        {
          "indexed": false,
          "internalType": "uint256",
          "name": "regionId",
          "type": "uint256"
        }
      ],
      "name": "InspectorAdded",
      "type": "event"
    },
    {
      "anonymous": false,
      "inputs": [
        {
          "indexed": false,
          "internalType": "uint256",
          "name": "id",
          "type": "uint256"
        },
        {
          "indexed": false,
          "internalType": "string",
          "name": "name",
          "type": "string"
        }
      ],
      "name": "RegionAdded",
      "type": "event"
    },
    {
      "anonymous": false,
      "inputs": [
        {
          "indexed": false,
          "internalType": "uint256",
          "name": "id",
          "type": "uint256"
        },
        {
          "indexed": false,
          "internalType": "string",
          "name": "name",
          "type": "string"
        },
        {
          "indexed": false,
          "internalType": "uint256",
          "name": "roleId",
          "type": "uint256"
        },
        {
          "indexed": false,
          "internalType": "uint256",
          "name": "regionId",
          "type": "uint256"
        }
      ],
      "name": "UserAdded",
      "type": "event"
    },
    {
      "inputs": [],
      "name": "activityLogCount",
      "outputs": [
        {
          "internalType": "uint256",
          "name": "",
          "type": "uint256"
        }
      ],
      "stateMutability": "view",
      "type": "function"
    },
    {
      "inputs": [
        {
          "internalType": "uint256",
          "name": "",
          "type": "uint256"
        }
      ],
      "name": "activityLogs",
      "outputs": [
        {
          "internalType": "uint256",
          "name": "id",
          "type": "uint256"
        },
        {
          "internalType": "uint256",
          "name": "farmerId",
          "type": "uint256"
        },
        {
          "internalType": "string",
          "name": "batchCode",
          "type": "string"
        },
        {
          "internalType": "string",
          "name": "activity",
          "type": "string"
        },
        {
          "internalType": "uint256",
          "name": "timestamp",
          "type": "uint256"
        }
      ],
      "stateMutability": "view",
      "type": "function"
    },
    {
      "inputs": [
        {
          "internalType": "uint256",
          "name": "_userId",
          "type": "uint256"
        },
        {
          "internalType": "uint256",
          "name": "_regionId",
          "type": "uint256"
        }
      ],
      "name": "addFarmer",
      "outputs": [],
      "stateMutability": "nonpayable",
      "type": "function"
    },
    {
      "inputs": [
        {
          "internalType": "uint256",
          "name": "_userId",
          "type": "uint256"
        },
        {
          "internalType": "uint256",
          "name": "_regionId",
          "type": "uint256"
        }
      ],
      "name": "addInspector",
      "outputs": [],
      "stateMutability": "nonpayable",
      "type": "function"
    },
    {
      "inputs": [
        {
          "internalType": "string",
          "name": "_name",
          "type": "string"
        }
      ],
      "name": "addRegion",
      "outputs": [],
      "stateMutability": "nonpayable",
      "type": "function"
    },
    {
      "inputs": [
        {
          "internalType": "string",
          "name": "_name",
          "type": "string"
        },
        {
          "internalType": "string",
          "name": "_email",
          "type": "string"
        },
        {
          "internalType": "string",
          "name": "_userAddress",
          "type": "string"
        },
        {
          "internalType": "string",
          "name": "_dob",
          "type": "string"
        },
        {
          "internalType": "string",
          "name": "_gender",
          "type": "string"
        },
        {
          "internalType": "uint256",
          "name": "_roleId",
          "type": "uint256"
        },
        {
          "internalType": "uint256",
          "name": "_regionId",
          "type": "uint256"
        }
      ],
      "name": "addUser",
      "outputs": [],
      "stateMutability": "nonpayable",
      "type": "function"
    },
    {
      "inputs": [],
      "name": "farmerCount",
      "outputs": [
        {
          "internalType": "uint256",
          "name": "",
          "type": "uint256"
        }
      ],
      "stateMutability": "view",
      "type": "function"
    },
    {
      "inputs": [
        {
          "internalType": "uint256",
          "name": "",
          "type": "uint256"
        }
      ],
      "name": "farmers",
      "outputs": [
        {
          "internalType": "uint256",
          "name": "id",
          "type": "uint256"
        },
        {
          "internalType": "uint256",
          "name": "userId",
          "type": "uint256"
        },
        {
          "internalType": "uint256",
          "name": "regionId",
          "type": "uint256"
        }
      ],
      "stateMutability": "view",
      "type": "function"
    },
    {
      "inputs": [
        {
          "internalType": "address",
          "name": "_userAddress",
          "type": "address"
        }
      ],
      "name": "getUser",
      "outputs": [
        {
          "components": [
            {
              "internalType": "uint256",
              "name": "id",
              "type": "uint256"
            },
            {
              "internalType": "string",
              "name": "name",
              "type": "string"
            },
            {
              "internalType": "string",
              "name": "email",
              "type": "string"
            },
            {
              "internalType": "string",
              "name": "userAddress",
              "type": "string"
            },
            {
              "internalType": "string",
              "name": "dob",
              "type": "string"
            },
            {
              "internalType": "string",
              "name": "gender",
              "type": "string"
            },
            {
              "internalType": "uint256",
              "name": "roleId",
              "type": "uint256"
            },
            {
              "internalType": "uint256",
              "name": "regionId",
              "type": "uint256"
            },
            {
              "internalType": "uint256",
              "name": "createdAt",
              "type": "uint256"
            }
          ],
          "internalType": "struct User.UserStruct",
          "name": "",
          "type": "tuple"
        }
      ],
      "stateMutability": "view",
      "type": "function"
    },
    {
      "inputs": [
        {
          "internalType": "uint256",
          "name": "_regionId",
          "type": "uint256"
        }
      ],
      "name": "getUsersByRegion",
      "outputs": [
        {
          "components": [
            {
              "internalType": "uint256",
              "name": "id",
              "type": "uint256"
            },
            {
              "internalType": "string",
              "name": "name",
              "type": "string"
            },
            {
              "internalType": "string",
              "name": "email",
              "type": "string"
            },
            {
              "internalType": "string",
              "name": "userAddress",
              "type": "string"
            },
            {
              "internalType": "string",
              "name": "dob",
              "type": "string"
            },
            {
              "internalType": "string",
              "name": "gender",
              "type": "string"
            },
            {
              "internalType": "uint256",
              "name": "roleId",
              "type": "uint256"
            },
            {
              "internalType": "uint256",
              "name": "regionId",
              "type": "uint256"
            },
            {
              "internalType": "uint256",
              "name": "createdAt",
              "type": "uint256"
            }
          ],
          "internalType": "struct User.UserStruct[]",
          "name": "",
          "type": "tuple[]"
        }
      ],
      "stateMutability": "view",
      "type": "function"
    },
    {
      "inputs": [],
      "name": "inspectorCount",
      "outputs": [
        {
          "internalType": "uint256",
          "name": "",
          "type": "uint256"
        }
      ],
      "stateMutability": "view",
      "type": "function"
    },
    {
      "inputs": [
        {
          "internalType": "uint256",
          "name": "",
          "type": "uint256"
        }
      ],
      "name": "inspectors",
      "outputs": [
        {
          "internalType": "uint256",
          "name": "id",
          "type": "uint256"
        },
        {
          "internalType": "uint256",
          "name": "userId",
          "type": "uint256"
        },
        {
          "internalType": "uint256",
          "name": "regionId",
          "type": "uint256"
        }
      ],
      "stateMutability": "view",
      "type": "function"
    },
    {
      "inputs": [
        {
          "internalType": "uint256",
          "name": "_farmerId",
          "type": "uint256"
        },
        {
          "internalType": "string",
          "name": "_batchCode",
          "type": "string"
        },
        {
          "internalType": "string",
          "name": "_activity",
          "type": "string"
        }
      ],
      "name": "logActivity",
      "outputs": [],
      "stateMutability": "nonpayable",
      "type": "function"
    },
    {
      "inputs": [],
      "name": "regionCount",
      "outputs": [
        {
          "internalType": "uint256",
          "name": "",
          "type": "uint256"
        }
      ],
      "stateMutability": "view",
      "type": "function"
    },
    {
      "inputs": [
        {
          "internalType": "uint256",
          "name": "",
          "type": "uint256"
        }
      ],
      "name": "regions",
      "outputs": [
        {
          "internalType": "uint256",
          "name": "id",
          "type": "uint256"
        },
        {
          "internalType": "string",
          "name": "name",
          "type": "string"
        }
      ],
      "stateMutability": "view",
      "type": "function"
    },
    {
      "inputs": [],
      "name": "userCount",
      "outputs": [
        {
          "internalType": "uint256",
          "name": "",
          "type": "uint256"
        }
      ],
      "stateMutability": "view",
      "type": "function"
    },
    {
      "inputs": [
        {
          "internalType": "address",
          "name": "",
          "type": "address"
        }
      ],
      "name": "users",
      "outputs": [
        {
          "internalType": "uint256",
          "name": "id",
          "type": "uint256"
        },
        {
          "internalType": "string",
          "name": "name",
          "type": "string"
        },
        {
          "internalType": "string",
          "name": "email",
          "type": "string"
        },
        {
          "internalType": "string",
          "name": "userAddress",
          "type": "string"
        },
        {
          "internalType": "string",
          "name": "dob",
          "type": "string"
        },
        {
          "internalType": "string",
          "name": "gender",
          "type": "string"
        },
        {
          "internalType": "uint256",
          "name": "roleId",
          "type": "uint256"
        },
        {
          "internalType": "uint256",
          "name": "regionId",
          "type": "uint256"
        },
        {
          "internalType": "uint256",
          "name": "createdAt",
          "type": "uint256"
        }
      ],
      "stateMutability": "view",
      "type": "function"
    }
  ],
  "bytecode": "0x608060405234801561001057600080fd5b50612323806100206000396000f3fe608060405234801561001057600080fd5b506004361061010b5760003560e01c80638afdd669116100a2578063b869586011610071578063b8695860146102e9578063bd45b39714610307578063bfbda98c14610325578063c74d3bc914610341578063f44d39771461035f5761010b565b80638afdd66914610245578063a6304b9214610277578063a837a71314610295578063a87430ba146102b15761010b565b806342146062116100de57806342146062146101ad57806363da130f146101dd5780636f77926b146101f957806387f2d297146102295761010b565b806307973ccf14610110578063132abfb61461012e578063364a75101461015f5780633b13616b1461017b575b600080fd5b610118610393565b6040516101259190611e2f565b60405180910390f35b61014860048036038101906101439190611a2c565b610399565b604051610156929190611e4a565b60405180910390f35b61017960048036038101906101749190611ad4565b610445565b005b61019560048036038101906101909190611a2c565b6104f1565b6040516101a49392919061202a565b60405180910390f35b6101c760048036038101906101c29190611a2c565b61051b565b6040516101d49190611deb565b60405180910390f35b6101f760048036038101906101f29190611a55565b610b67565b005b610213600480360381019061020e91906118ac565b610c5b565b6040516102209190611e0d565b60405180910390f35b610243600480360381019061023e9190611ad4565b610fb7565b005b61025f600480360381019061025a9190611a2c565b611063565b60405161026e9392919061202a565b60405180910390f35b61027f61108d565b60405161028c9190611e2f565b60405180910390f35b6102af60048036038101906102aa9190611916565b611093565b005b6102cb60048036038101906102c691906118ac565b611231565b6040516102e099989796959493929190611e7a565b60405180910390f35b6102f1611527565b6040516102fe9190611e2f565b60405180910390f35b61030f61152d565b60405161031c9190611e2f565b60405180910390f35b61033f600480360381019061033a91906118d5565b611533565b005b6103496115df565b6040516103569190611e2f565b60405180910390f35b61037960048036038101906103749190611a2c565b6115e5565b60405161038a959493929190611fc9565b60405180910390f35b60055481565b60026020528060005260406000206000915090508060000154908060010180546103c2906121a6565b80601f01602080910402602001604051908101604052809291908181526020018280546103ee906121a6565b801561043b5780601f106104105761010080835404028352916020019161043b565b820191906000526020600020905b81548152906001019060200180831161041e57829003601f168201915b5050505050905082565b60096000815480929190610458906121d8565b919050555060405180606001604052806009548152602001838152602001828152506008600060095481526020019081526020016000206000820151816000015560208201518160010155604082015181600201559050507f3cde63bc32fbc83b47631d41ca0e3ef5918c917f7d880efdbe08b61e1c8cf44360095483836040516104e59392919061202a565b60405180910390a15050565b60086020528060005260406000206000915090508060000154908060010154908060020154905083565b606060008060055467ffffffffffffffff811115610562577f4e487b7100000000000000000000000000000000000000000000000000000000600052604160045260246000fd5b6040519080825280602002602001820160405280156105905781602001602082028036833780820191505090505b5090506000805b60055481101561064d5785600460008584815181106105df577f4e487b7100000000000000000000000000000000000000000000000000000000600052603260045260246000fd5b602002602001015173ffffffffffffffffffffffffffffffffffffffff1673ffffffffffffffffffffffffffffffffffffffff16815260200190815260200160002060070154141561063a578380610636906121d8565b9450505b8080610645906121d8565b915050610597565b5060008367ffffffffffffffff811115610690577f4e487b7100000000000000000000000000000000000000000000000000000000600052604160045260246000fd5b6040519080825280602002602001820160405280156106c957816020015b6106b661172b565b8152602001906001900390816106ae5790505b5090506000915060005b600554811015610b5a57866004600086848151811061071b577f4e487b7100000000000000000000000000000000000000000000000000000000600052603260045260246000fd5b602002602001015173ffffffffffffffffffffffffffffffffffffffff1673ffffffffffffffffffffffffffffffffffffffff168152602001908152602001600020600701541415610b4757600460008583815181106107a4577f4e487b7100000000000000000000000000000000000000000000000000000000600052603260045260246000fd5b602002602001015173ffffffffffffffffffffffffffffffffffffffff1673ffffffffffffffffffffffffffffffffffffffff168152602001908152602001600020604051806101200160405290816000820154815260200160018201805461080c906121a6565b80601f0160208091040260200160405190810160405280929190818152602001828054610838906121a6565b80156108855780601f1061085a57610100808354040283529160200191610885565b820191906000526020600020905b81548152906001019060200180831161086857829003601f168201915b5050505050815260200160028201805461089e906121a6565b80601f01602080910402602001604051908101604052809291908181526020018280546108ca906121a6565b80156109175780601f106108ec57610100808354040283529160200191610917565b820191906000526020600020905b8154815290600101906020018083116108fa57829003601f168201915b50505050508152602001600382018054610930906121a6565b80601f016020809104026020016040519081016040528092919081815260200182805461095c906121a6565b80156109a95780601f1061097e576101008083540402835291602001916109a9565b820191906000526020600020905b81548152906001019060200180831161098c57829003601f168201915b505050505081526020016004820180546109c2906121a6565b80601f01602080910402602001604051908101604052809291908181526020018280546109ee906121a6565b8015610a3b5780601f10610a1057610100808354040283529160200191610a3b565b820191906000526020600020905b815481529060010190602001808311610a1e57829003601f168201915b50505050508152602001600582018054610a54906121a6565b80601f0160208091040260200160405190810160405280929190818152602001828054610a80906121a6565b8015610acd5780601f10610aa257610100808354040283529160200191610acd565b820191906000526020600020905b815481529060010190602001808311610ab057829003601f168201915b505050505081526020016006820154815260200160078201548152602001600882015481525050828481518110610b2d577f4e487b7100000000000000000000000000000000000000000000000000000000600052603260045260246000fd5b60200260200101819052508280610b43906121d8565b9350505b8080610b52906121d8565b9150506106d3565b5080945050505050919050565b60016000815480929190610b7a906121d8565b91905055506040518060a00160405280600154815260200184815260200183815260200182815260200142815250600080600154815260200190815260200160002060008201518160000155602082015181600101556040820151816002019080519060200190610bec929190611777565b506060820151816003019080519060200190610c09929190611777565b50608082015181600401559050507f156a0c11537c299aff79360fa462da1d0cabeeadeecaf1f05c53e388f2830c0e600154848484604051610c4e9493929190611f76565b60405180910390a1505050565b610c6361172b565b600460008373ffffffffffffffffffffffffffffffffffffffff1673ffffffffffffffffffffffffffffffffffffffff1681526020019081526020016000206040518061012001604052908160008201548152602001600182018054610cc8906121a6565b80601f0160208091040260200160405190810160405280929190818152602001828054610cf4906121a6565b8015610d415780601f10610d1657610100808354040283529160200191610d41565b820191906000526020600020905b815481529060010190602001808311610d2457829003601f168201915b50505050508152602001600282018054610d5a906121a6565b80601f0160208091040260200160405190810160405280929190818152602001828054610d86906121a6565b8015610dd35780601f10610da857610100808354040283529160200191610dd3565b820191906000526020600020905b815481529060010190602001808311610db657829003601f168201915b50505050508152602001600382018054610dec906121a6565b80601f0160208091040260200160405190810160405280929190818152602001828054610e18906121a6565b8015610e655780601f10610e3a57610100808354040283529160200191610e65565b820191906000526020600020905b815481529060010190602001808311610e4857829003601f168201915b50505050508152602001600482018054610e7e906121a6565b80601f0160208091040260200160405190810160405280929190818152602001828054610eaa906121a6565b8015610ef75780601f10610ecc57610100808354040283529160200191610ef7565b820191906000526020600020905b815481529060010190602001808311610eda57829003601f168201915b50505050508152602001600582018054610f10906121a6565b80601f0160208091040260200160405190810160405280929190818152602001828054610f3c906121a6565b8015610f895780601f10610f5e57610100808354040283529160200191610f89565b820191906000526020600020905b815481529060010190602001808311610f6c57829003601f168201915b5050505050815260200160068201548152602001600782015481526020016008820154815250509050919050565b60076000815480929190610fca906121d8565b919050555060405180606001604052806007548152602001838152602001828152506006600060075481526020019081526020016000206000820151816000015560208201518160010155604082015181600201559050507fb646a94c0d82abc8a3462ce854d8118cd7fd08210c88beede586140c81827e4260075483836040516110579392919061202a565b60405180910390a15050565b60066020528060005260406000206000915090508060000154908060010154908060020154905083565b60095481565b600560008154809291906110a6906121d8565b9190505550604051806101200160405280600554815260200188815260200187815260200186815260200185815260200184815260200183815260200182815260200142815250600460003373ffffffffffffffffffffffffffffffffffffffff1673ffffffffffffffffffffffffffffffffffffffff168152602001908152602001600020600082015181600001556020820151816001019080519060200190611152929190611777565b50604082015181600201908051906020019061116f929190611777565b50606082015181600301908051906020019061118c929190611777565b5060808201518160040190805190602001906111a9929190611777565b5060a08201518160050190805190602001906111c6929190611777565b5060c0820151816006015560e0820151816007015561010082015181600801559050507feabcb8900cdae60d1603d8999fadc9a0c2926e0483c42b49a361e5f14617dc216005548884846040516112209493929190611f2a565b60405180910390a150505050505050565b600460205280600052604060002060009150905080600001549080600101805461125a906121a6565b80601f0160208091040260200160405190810160405280929190818152602001828054611286906121a6565b80156112d35780601f106112a8576101008083540402835291602001916112d3565b820191906000526020600020905b8154815290600101906020018083116112b657829003601f168201915b5050505050908060020180546112e8906121a6565b80601f0160208091040260200160405190810160405280929190818152602001828054611314906121a6565b80156113615780601f1061133657610100808354040283529160200191611361565b820191906000526020600020905b81548152906001019060200180831161134457829003601f168201915b505050505090806003018054611376906121a6565b80601f01602080910402602001604051908101604052809291908181526020018280546113a2906121a6565b80156113ef5780601f106113c4576101008083540402835291602001916113ef565b820191906000526020600020905b8154815290600101906020018083116113d257829003601f168201915b505050505090806004018054611404906121a6565b80601f0160208091040260200160405190810160405280929190818152602001828054611430906121a6565b801561147d5780601f106114525761010080835404028352916020019161147d565b820191906000526020600020905b81548152906001019060200180831161146057829003601f168201915b505050505090806005018054611492906121a6565b80601f01602080910402602001604051908101604052809291908181526020018280546114be906121a6565b801561150b5780601f106114e05761010080835404028352916020019161150b565b820191906000526020600020905b8154815290600101906020018083116114ee57829003601f168201915b5050505050908060060154908060070154908060080154905089565b60035481565b60075481565b60036000815480929190611546906121d8565b9190505550604051806040016040528060035481526020018281525060026000600354815260200190815260200160002060008201518160000155602082015181600101908051906020019061159d929190611777565b509050507f5ab5cc8942e6c98d124ada92b18633649af885d6b742c9c6f454f26a424d7616600354826040516115d4929190611e4a565b60405180910390a150565b60015481565b6000602052806000526040600020600091509050806000015490806001015490806002018054611614906121a6565b80601f0160208091040260200160405190810160405280929190818152602001828054611640906121a6565b801561168d5780601f106116625761010080835404028352916020019161168d565b820191906000526020600020905b81548152906001019060200180831161167057829003601f168201915b5050505050908060030180546116a2906121a6565b80601f01602080910402602001604051908101604052809291908181526020018280546116ce906121a6565b801561171b5780601f106116f05761010080835404028352916020019161171b565b820191906000526020600020905b8154815290600101906020018083116116fe57829003601f168201915b5050505050908060040154905085565b6040518061012001604052806000815260200160608152602001606081526020016060815260200160608152602001606081526020016000815260200160008152602001600081525090565b828054611783906121a6565b90600052602060002090601f0160209004810192826117a557600085556117ec565b82601f106117be57805160ff19168380011785556117ec565b828001600101855582156117ec579182015b828111156117eb5782518255916020019190600101906117d0565b5b5090506117f991906117fd565b5090565b5b808211156118165760008160009055506001016117fe565b5090565b600061182d61182884612092565b612061565b90508281526020810184848401111561184557600080fd5b611850848285612164565b509392505050565b600081359050611867816122bf565b92915050565b600082601f83011261187e57600080fd5b813561188e84826020860161181a565b91505092915050565b6000813590506118a6816122d6565b92915050565b6000602082840312156118be57600080fd5b60006118cc84828501611858565b91505092915050565b6000602082840312156118e757600080fd5b600082013567ffffffffffffffff81111561190157600080fd5b61190d8482850161186d565b91505092915050565b600080600080600080600060e0888a03121561193157600080fd5b600088013567ffffffffffffffff81111561194b57600080fd5b6119578a828b0161186d565b975050602088013567ffffffffffffffff81111561197457600080fd5b6119808a828b0161186d565b965050604088013567ffffffffffffffff81111561199d57600080fd5b6119a98a828b0161186d565b955050606088013567ffffffffffffffff8111156119c657600080fd5b6119d28a828b0161186d565b945050608088013567ffffffffffffffff8111156119ef57600080fd5b6119fb8a828b0161186d565b93505060a0611a0c8a828b01611897565b92505060c0611a1d8a828b01611897565b91505092959891949750929550565b600060208284031215611a3e57600080fd5b6000611a4c84828501611897565b91505092915050565b600080600060608486031215611a6a57600080fd5b6000611a7886828701611897565b935050602084013567ffffffffffffffff811115611a9557600080fd5b611aa18682870161186d565b925050604084013567ffffffffffffffff811115611abe57600080fd5b611aca8682870161186d565b9150509250925092565b60008060408385031215611ae757600080fd5b6000611af585828601611897565b9250506020611b0685828601611897565b9150509250929050565b6000611b1c8383611c0b565b905092915050565b6000611b2f826120d2565b611b3981856120f5565b935083602082028501611b4b856120c2565b8060005b85811015611b875784840389528151611b688582611b10565b9450611b73836120e8565b925060208a01995050600181019050611b4f565b50829750879550505050505092915050565b6000611ba4826120dd565b611bae8185612106565b9350611bbe818560208601612173565b611bc7816122ae565b840191505092915050565b6000611bdd826120dd565b611be78185612117565b9350611bf7818560208601612173565b611c00816122ae565b840191505092915050565b600061012083016000830151611c246000860182611dcd565b5060208301518482036020860152611c3c8282611b99565b91505060408301518482036040860152611c568282611b99565b91505060608301518482036060860152611c708282611b99565b91505060808301518482036080860152611c8a8282611b99565b91505060a083015184820360a0860152611ca48282611b99565b91505060c0830151611cb960c0860182611dcd565b5060e0830151611ccc60e0860182611dcd565b50610100830151611ce1610100860182611dcd565b508091505092915050565b600061012083016000830151611d056000860182611dcd565b5060208301518482036020860152611d1d8282611b99565b91505060408301518482036040860152611d378282611b99565b91505060608301518482036060860152611d518282611b99565b91505060808301518482036080860152611d6b8282611b99565b91505060a083015184820360a0860152611d858282611b99565b91505060c0830151611d9a60c0860182611dcd565b5060e0830151611dad60e0860182611dcd565b50610100830151611dc2610100860182611dcd565b508091505092915050565b611dd68161215a565b82525050565b611de58161215a565b82525050565b60006020820190508181036000830152611e058184611b24565b905092915050565b60006020820190508181036000830152611e278184611cec565b905092915050565b6000602082019050611e446000830184611ddc565b92915050565b6000604082019050611e5f6000830185611ddc565b8181036020830152611e718184611bd2565b90509392505050565b600061012082019050611e90600083018c611ddc565b8181036020830152611ea2818b611bd2565b90508181036040830152611eb6818a611bd2565b90508181036060830152611eca8189611bd2565b90508181036080830152611ede8188611bd2565b905081810360a0830152611ef28187611bd2565b9050611f0160c0830186611ddc565b611f0e60e0830185611ddc565b611f1c610100830184611ddc565b9a9950505050505050505050565b6000608082019050611f3f6000830187611ddc565b8181036020830152611f518186611bd2565b9050611f606040830185611ddc565b611f6d6060830184611ddc565b95945050505050565b6000608082019050611f8b6000830187611ddc565b611f986020830186611ddc565b8181036040830152611faa8185611bd2565b90508181036060830152611fbe8184611bd2565b905095945050505050565b600060a082019050611fde6000830188611ddc565b611feb6020830187611ddc565b8181036040830152611ffd8186611bd2565b905081810360608301526120118185611bd2565b90506120206080830184611ddc565b9695505050505050565b600060608201905061203f6000830186611ddc565b61204c6020830185611ddc565b6120596040830184611ddc565b949350505050565b6000604051905081810181811067ffffffffffffffff821117156120885761208761227f565b5b8060405250919050565b600067ffffffffffffffff8211156120ad576120ac61227f565b5b601f19601f8301169050602081019050919050565b6000819050602082019050919050565b600081519050919050565b600081519050919050565b6000602082019050919050565b600082825260208201905092915050565b600082825260208201905092915050565b600082825260208201905092915050565b60006121338261213a565b9050919050565b600073ffffffffffffffffffffffffffffffffffffffff82169050919050565b6000819050919050565b82818337600083830152505050565b60005b83811015612191578082015181840152602081019050612176565b838111156121a0576000848401525b50505050565b600060028204905060018216806121be57607f821691505b602082108114156121d2576121d1612250565b5b50919050565b60006121e38261215a565b91507fffffffffffffffffffffffffffffffffffffffffffffffffffffffffffffffff82141561221657612215612221565b5b600182019050919050565b7f4e487b7100000000000000000000000000000000000000000000000000000000600052601160045260246000fd5b7f4e487b7100000000000000000000000000000000000000000000000000000000600052602260045260246000fd5b7f4e487b7100000000000000000000000000000000000000000000000000000000600052604160045260246000fd5b6000601f19601f8301169050919050565b6122c881612128565b81146122d357600080fd5b50565b6122df8161215a565b81146122ea57600080fd5b5056fea2646970667358221220d60859c2018d7a4af98a9238ddb2fac481f78d4ed465d68cf189042790f9a30264736f6c63430008000033",
  "immutableReferences": {},
  "source": "// SPDX-License-Identifier: MIT\r\npragma solidity ^0.8.0;\r\n\r\n// Import statements\r\nimport \"./roles/role.sol\";\r\nimport \"./roles/degree.sol\";\r\nimport \"./users/user.sol\";\r\nimport \"./products/product.sol\";\r\nimport \"./products/batch.sol\";\r\nimport \"./logs/activity.sol\";\r\nimport \"./region/region.sol\";\r\nimport \"./region/farmer.sol\";\r\nimport \"./region/inspector.sol\";\r\n// Contract declaration\r\n\r\ncontract RoleDegree is Role, Degree {\r\n    // Code for Role and Degree\r\n}\r\n\r\ncontract UserProductBatch is User, Product, Batch {\r\n    constructor(address _productContractAddress) Batch(_productContractAddress) {\r\n        // Additional initialization code if needed\r\n    }\r\n}\r\n\r\ncontract ActivityRegionFarmerInspector is ActivityLog, Region, Farmer, Inspector {\r\n    // Code for ActivityLog, Region, Farmer, and Inspector\r\n}\r\n\r\n// Main contract that combines the separated contracts\r\ncontract GrapefruitTraceability is RoleDegree, UserProductBatch, ActivityRegionFarmerInspector {\r\n    constructor(address _productContractAddress) UserProductBatch(_productContractAddress) {\r\n        // Additional initialization code if needed\r\n    }\r\n}",
  "sourcePath": "D:\\projects\\startup\\contracts\\application.sol",
  "compiler": {
    "name": "solc",
    "version": "0.8.0+commit.c7dfd78e.Emscripten.clang"
  },
  "schemaVersion": "3.4.16",
  "updatedAt": "2024-08-18T14:09:04.747Z",
  "devdoc": {
    "kind": "dev",
    "methods": {},
    "version": 1
  },
  "userdoc": {
    "kind": "user",
    "methods": {},
    "version": 1
  }
}