{
  "contractName": "Batch",
  "abi": [
    {
      "inputs": [
        {
          "internalType": "address",
          "name": "_productContractAddress",
          "type": "address"
        }
      ],
      "stateMutability": "nonpayable",
      "type": "constructor"
    },
    {
      "anonymous": false,
      "inputs": [
        {
          "indexed": false,
          "internalType": "string",
          "name": "code",
          "type": "string"
        },
        {
          "indexed": false,
          "internalType": "uint256",
          "name": "productId",
          "type": "uint256"
        },
        {
          "indexed": false,
          "internalType": "uint256",
          "name": "quantity",
          "type": "uint256"
        }
      ],
      "name": "BatchAdded",
      "type": "event"
    },
    {
      "inputs": [
        {
          "internalType": "string",
          "name": "",
          "type": "string"
        }
      ],
      "name": "batches",
      "outputs": [
        {
          "internalType": "string",
          "name": "code",
          "type": "string"
        },
        {
          "internalType": "uint256",
          "name": "productId",
          "type": "uint256"
        },
        {
          "internalType": "uint256",
          "name": "quantity",
          "type": "uint256"
        },
        {
          "internalType": "string",
          "name": "productionDate",
          "type": "string"
        },
        {
          "internalType": "string",
          "name": "expireDate",
          "type": "string"
        },
        {
          "internalType": "uint256",
          "name": "createdAt",
          "type": "uint256"
        }
      ],
      "stateMutability": "view",
      "type": "function"
    },
    {
      "inputs": [
        {
          "internalType": "string",
          "name": "_code",
          "type": "string"
        },
        {
          "internalType": "uint256",
          "name": "_productId",
          "type": "uint256"
        },
        {
          "internalType": "uint256",
          "name": "_quantity",
          "type": "uint256"
        },
        {
          "internalType": "string",
          "name": "_productionDate",
          "type": "string"
        },
        {
          "internalType": "string",
          "name": "_expireDate",
          "type": "string"
        }
      ],
      "name": "addBatch",
      "outputs": [],
      "stateMutability": "nonpayable",
      "type": "function"
    }
  ],
  "bytecode": "0x608060405234801561001057600080fd5b50604051610a75380380610a758339818101604052810190610032919061008e565b80600160006101000a81548173ffffffffffffffffffffffffffffffffffffffff021916908373ffffffffffffffffffffffffffffffffffffffff16021790555050610100565b600081519050610088816100e9565b92915050565b6000602082840312156100a057600080fd5b60006100ae84828501610079565b91505092915050565b60006100c2826100c9565b9050919050565b600073ffffffffffffffffffffffffffffffffffffffff82169050919050565b6100f2816100b7565b81146100fd57600080fd5b50565b6109668061010f6000396000f3fe608060405234801561001057600080fd5b50600436106100365760003560e01c80637ef1446a1461003b5780639279681414610070575b600080fd5b61005560048036038101906100509190610530565b61008c565b604051610067969594939291906106fe565b60405180910390f35b61008a60048036038101906100859190610571565b610276565b005b6000818051602081018201805184825260208301602085012081835280955050505050506000915090508060000180546100c590610878565b80601f01602080910402602001604051908101604052809291908181526020018280546100f190610878565b801561013e5780601f106101135761010080835404028352916020019161013e565b820191906000526020600020905b81548152906001019060200180831161012157829003601f168201915b50505050509080600101549080600201549080600301805461015f90610878565b80601f016020809104026020016040519081016040528092919081815260200182805461018b90610878565b80156101d85780601f106101ad576101008083540402835291602001916101d8565b820191906000526020600020905b8154815290600101906020018083116101bb57829003601f168201915b5050505050908060040180546101ed90610878565b80601f016020809104026020016040519081016040528092919081815260200182805461021990610878565b80156102665780601f1061023b57610100808354040283529160200191610266565b820191906000526020600020905b81548152906001019060200180831161024957829003601f168201915b5050505050908060050154905086565b60006040518060c00160405280878152602001868152602001858152602001848152602001838152602001428152509050806000876040516102b891906106a9565b908152602001604051809103902060008201518160000190805190602001906102e2929190610410565b5060208201518160010155604082015181600201556060820151816003019080519060200190610313929190610410565b506080820151816004019080519060200190610330929190610410565b5060a08201518160050155905050600160009054906101000a900473ffffffffffffffffffffffffffffffffffffffff1673ffffffffffffffffffffffffffffffffffffffff1663991a3c3a86886040518363ffffffff1660e01b815260040161039b929190610774565b600060405180830381600087803b1580156103b557600080fd5b505af11580156103c9573d6000803e3d6000fd5b505050507f4d0cb973f6b46b3e44d83c8b26707101f256c9ff9d01430a6fdcf0427ffb57d0868686604051610400939291906106c0565b60405180910390a1505050505050565b82805461041c90610878565b90600052602060002090601f01602090048101928261043e5760008555610485565b82601f1061045757805160ff1916838001178555610485565b82800160010185558215610485579182015b82811115610484578251825591602001919060010190610469565b5b5090506104929190610496565b5090565b5b808211156104af576000816000905550600101610497565b5090565b60006104c66104c1846107d5565b6107a4565b9050828152602081018484840111156104de57600080fd5b6104e9848285610836565b509392505050565b600082601f83011261050257600080fd5b81356105128482602086016104b3565b91505092915050565b60008135905061052a81610919565b92915050565b60006020828403121561054257600080fd5b600082013567ffffffffffffffff81111561055c57600080fd5b610568848285016104f1565b91505092915050565b600080600080600060a0868803121561058957600080fd5b600086013567ffffffffffffffff8111156105a357600080fd5b6105af888289016104f1565b95505060206105c08882890161051b565b94505060406105d18882890161051b565b935050606086013567ffffffffffffffff8111156105ee57600080fd5b6105fa888289016104f1565b925050608086013567ffffffffffffffff81111561061757600080fd5b610623888289016104f1565b9150509295509295909350565b600061063b82610805565b6106458185610810565b9350610655818560208601610845565b61065e81610908565b840191505092915050565b600061067482610805565b61067e8185610821565b935061068e818560208601610845565b80840191505092915050565b6106a38161082c565b82525050565b60006106b58284610669565b915081905092915050565b600060608201905081810360008301526106da8186610630565b90506106e9602083018561069a565b6106f6604083018461069a565b949350505050565b600060c08201905081810360008301526107188189610630565b9050610727602083018861069a565b610734604083018761069a565b81810360608301526107468186610630565b9050818103608083015261075a8185610630565b905061076960a083018461069a565b979650505050505050565b6000604082019050610789600083018561069a565b818103602083015261079b8184610630565b90509392505050565b6000604051905081810181811067ffffffffffffffff821117156107cb576107ca6108d9565b5b8060405250919050565b600067ffffffffffffffff8211156107f0576107ef6108d9565b5b601f19601f8301169050602081019050919050565b600081519050919050565b600082825260208201905092915050565b600081905092915050565b6000819050919050565b82818337600083830152505050565b60005b83811015610863578082015181840152602081019050610848565b83811115610872576000848401525b50505050565b6000600282049050600182168061089057607f821691505b602082108114156108a4576108a36108aa565b5b50919050565b7f4e487b7100000000000000000000000000000000000000000000000000000000600052602260045260246000fd5b7f4e487b7100000000000000000000000000000000000000000000000000000000600052604160045260246000fd5b6000601f19601f8301169050919050565b6109228161082c565b811461092d57600080fd5b5056fea2646970667358221220842a2b7b224fbbb613b2bfe31ddd70899a270ff80b3b2f5c39982b597df5e97f64736f6c63430008000033",
  "immutableReferences": {},
  "source": "// SPDX-License-Identifier: MIT\r\npragma solidity ^0.8.0;\r\n\r\nimport \"./product.sol\";\r\n\r\ncontract Batch {\r\n    struct BatchStruct {\r\n        string code;\r\n        uint256 productId;\r\n        uint256 quantity;\r\n        string productionDate;\r\n        string expireDate;\r\n        uint256 createdAt;\r\n    }\r\n\r\n    mapping(string => BatchStruct) public batches;\r\n\r\n    Product productContract;\r\n\r\n    event BatchAdded(string code, uint256 productId, uint256 quantity);\r\n\r\n    constructor(address _productContractAddress) {\r\n        productContract = Product(_productContractAddress);\r\n    }\r\n\r\n    function addBatch(\r\n        string memory _code,\r\n        uint256 _productId,\r\n        uint256 _quantity,\r\n        string memory _productionDate,\r\n        string memory _expireDate\r\n    ) public {\r\n        BatchStruct memory newBatch = BatchStruct({\r\n            code: _code,\r\n            productId: _productId,\r\n            quantity: _quantity,\r\n            productionDate: _productionDate,\r\n            expireDate: _expireDate,\r\n            createdAt: block.timestamp\r\n        });\r\n\r\n        batches[_code] = newBatch;\r\n        productContract.addBatchToProduct(_productId, _code); // Thm m l hng vo sn phm tng ng\r\n\r\n        emit BatchAdded(_code, _productId, _quantity);\r\n    }\r\n}",
  "sourcePath": "D:\\projects\\startup\\contracts\\products\\batch.sol",
  "compiler": {
    "name": "solc",
    "version": "0.8.0+commit.c7dfd78e.Emscripten.clang"
  },
  "schemaVersion": "3.4.16",
  "updatedAt": "2024-08-19T13:20:24.441Z",
  "devdoc": {
    "kind": "dev",
    "methods": {},
    "version": 1
  },
  "userdoc": {
    "kind": "user",
    "methods": {},
    "version": 1
  }
}