{
  "contractName": "GrapefruitTraceability",
  "abi": [
    {
      "inputs": [
        {
          "internalType": "address",
          "name": "_productContractAddress",
          "type": "address"
        }
      ],
      "stateMutability": "nonpayable",
      "type": "constructor"
    },
    {
      "anonymous": false,
      "inputs": [
        {
          "indexed": false,
          "internalType": "uint256",
          "name": "id",
          "type": "uint256"
        },
        {
          "indexed": false,
          "internalType": "uint256",
          "name": "farmerId",
          "type": "uint256"
        },
        {
          "indexed": false,
          "internalType": "string",
          "name": "batchCode",
          "type": "string"
        },
        {
          "indexed": false,
          "internalType": "string",
          "name": "activity",
          "type": "string"
        }
      ],
      "name": "ActivityLogged",
      "type": "event"
    },
    {
      "anonymous": false,
      "inputs": [
        {
          "indexed": false,
          "internalType": "string",
          "name": "code",
          "type": "string"
        },
        {
          "indexed": false,
          "internalType": "uint256",
          "name": "productId",
          "type": "uint256"
        },
        {
          "indexed": false,
          "internalType": "uint256",
          "name": "quantity",
          "type": "uint256"
        }
      ],
      "name": "BatchAdded",
      "type": "event"
    },
    {
      "anonymous": false,
      "inputs": [
        {
          "indexed": false,
          "internalType": "uint256",
          "name": "id",
          "type": "uint256"
        },
        {
          "indexed": false,
          "internalType": "string",
          "name": "name",
          "type": "string"
        }
      ],
      "name": "DegreeAdded",
      "type": "event"
    },
    {
      "anonymous": false,
      "inputs": [
        {
          "indexed": false,
          "internalType": "uint256",
          "name": "id",
          "type": "uint256"
        },
        {
          "indexed": false,
          "internalType": "uint256",
          "name": "userId",
          "type": "uint256"
        },
        {
          "indexed": false,
          "internalType": "uint256",
          "name": "regionId",
          "type": "uint256"
        }
      ],
      "name": "FarmerAdded",
      "type": "event"
    },
    {
      "anonymous": false,
      "inputs": [
        {
          "indexed": false,
          "internalType": "uint256",
          "name": "id",
          "type": "uint256"
        },
        {
          "indexed": false,
          "internalType": "uint256",
          "name": "userId",
          "type": "uint256"
        },
        {
          "indexed": false,
          "internalType": "uint256",
          "name": "regionId",
          "type": "uint256"
        }
      ],
      "name": "InspectorAdded",
      "type": "event"
    },
    {
      "anonymous": false,
      "inputs": [
        {
          "indexed": false,
          "internalType": "uint256",
          "name": "id",
          "type": "uint256"
        },
        {
          "indexed": false,
          "internalType": "string",
          "name": "name",
          "type": "string"
        },
        {
          "indexed": false,
          "internalType": "string",
          "name": "description",
          "type": "string"
        }
      ],
      "name": "ProductAdded",
      "type": "event"
    },
    {
      "anonymous": false,
      "inputs": [
        {
          "indexed": false,
          "internalType": "uint256",
          "name": "id",
          "type": "uint256"
        },
        {
          "indexed": false,
          "internalType": "string",
          "name": "name",
          "type": "string"
        }
      ],
      "name": "RegionAdded",
      "type": "event"
    },
    {
      "anonymous": false,
      "inputs": [
        {
          "indexed": false,
          "internalType": "uint256",
          "name": "id",
          "type": "uint256"
        },
        {
          "indexed": false,
          "internalType": "string",
          "name": "name",
          "type": "string"
        }
      ],
      "name": "RoleAdded",
      "type": "event"
    },
    {
      "anonymous": false,
      "inputs": [
        {
          "indexed": false,
          "internalType": "uint256",
          "name": "id",
          "type": "uint256"
        },
        {
          "indexed": false,
          "internalType": "string",
          "name": "name",
          "type": "string"
        },
        {
          "indexed": false,
          "internalType": "uint256",
          "name": "roleId",
          "type": "uint256"
        },
        {
          "indexed": false,
          "internalType": "uint256",
          "name": "regionId",
          "type": "uint256"
        }
      ],
      "name": "UserAdded",
      "type": "event"
    },
    {
      "inputs": [],
      "name": "activityLogCount",
      "outputs": [
        {
          "internalType": "uint256",
          "name": "",
          "type": "uint256"
        }
      ],
      "stateMutability": "view",
      "type": "function"
    },
    {
      "inputs": [
        {
          "internalType": "uint256",
          "name": "",
          "type": "uint256"
        }
      ],
      "name": "activityLogs",
      "outputs": [
        {
          "internalType": "uint256",
          "name": "id",
          "type": "uint256"
        },
        {
          "internalType": "uint256",
          "name": "farmerId",
          "type": "uint256"
        },
        {
          "internalType": "string",
          "name": "batchCode",
          "type": "string"
        },
        {
          "internalType": "string",
          "name": "activity",
          "type": "string"
        },
        {
          "internalType": "uint256",
          "name": "timestamp",
          "type": "uint256"
        }
      ],
      "stateMutability": "view",
      "type": "function"
    },
    {
      "inputs": [
        {
          "internalType": "string",
          "name": "_code",
          "type": "string"
        },
        {
          "internalType": "uint256",
          "name": "_productId",
          "type": "uint256"
        },
        {
          "internalType": "uint256",
          "name": "_quantity",
          "type": "uint256"
        },
        {
          "internalType": "string",
          "name": "_productionDate",
          "type": "string"
        },
        {
          "internalType": "string",
          "name": "_expireDate",
          "type": "string"
        }
      ],
      "name": "addBatch",
      "outputs": [],
      "stateMutability": "nonpayable",
      "type": "function"
    },
    {
      "inputs": [
        {
          "internalType": "uint256",
          "name": "_productId",
          "type": "uint256"
        },
        {
          "internalType": "string",
          "name": "_batchCode",
          "type": "string"
        }
      ],
      "name": "addBatchToProduct",
      "outputs": [],
      "stateMutability": "nonpayable",
      "type": "function"
    },
    {
      "inputs": [
        {
          "internalType": "string",
          "name": "_name",
          "type": "string"
        }
      ],
      "name": "addDegree",
      "outputs": [],
      "stateMutability": "nonpayable",
      "type": "function"
    },
    {
      "inputs": [
        {
          "internalType": "uint256",
          "name": "_userId",
          "type": "uint256"
        },
        {
          "internalType": "uint256",
          "name": "_regionId",
          "type": "uint256"
        }
      ],
      "name": "addFarmer",
      "outputs": [],
      "stateMutability": "nonpayable",
      "type": "function"
    },
    {
      "inputs": [
        {
          "internalType": "uint256",
          "name": "_userId",
          "type": "uint256"
        },
        {
          "internalType": "uint256",
          "name": "_regionId",
          "type": "uint256"
        }
      ],
      "name": "addInspector",
      "outputs": [],
      "stateMutability": "nonpayable",
      "type": "function"
    },
    {
      "inputs": [
        {
          "internalType": "string",
          "name": "_name",
          "type": "string"
        },
        {
          "internalType": "string",
          "name": "_description",
          "type": "string"
        }
      ],
      "name": "addProduct",
      "outputs": [],
      "stateMutability": "nonpayable",
      "type": "function"
    },
    {
      "inputs": [
        {
          "internalType": "string",
          "name": "_name",
          "type": "string"
        }
      ],
      "name": "addRegion",
      "outputs": [],
      "stateMutability": "nonpayable",
      "type": "function"
    },
    {
      "inputs": [
        {
          "internalType": "string",
          "name": "_name",
          "type": "string"
        }
      ],
      "name": "addRole",
      "outputs": [],
      "stateMutability": "nonpayable",
      "type": "function"
    },
    {
      "inputs": [
        {
          "internalType": "string",
          "name": "_name",
          "type": "string"
        },
        {
          "internalType": "string",
          "name": "_email",
          "type": "string"
        },
        {
          "internalType": "string",
          "name": "_userAddress",
          "type": "string"
        },
        {
          "internalType": "string",
          "name": "_dob",
          "type": "string"
        },
        {
          "internalType": "string",
          "name": "_gender",
          "type": "string"
        },
        {
          "internalType": "uint256",
          "name": "_roleId",
          "type": "uint256"
        },
        {
          "internalType": "uint256",
          "name": "_regionId",
          "type": "uint256"
        }
      ],
      "name": "addUser",
      "outputs": [],
      "stateMutability": "nonpayable",
      "type": "function"
    },
    {
      "inputs": [
        {
          "internalType": "string",
          "name": "",
          "type": "string"
        }
      ],
      "name": "batches",
      "outputs": [
        {
          "internalType": "string",
          "name": "code",
          "type": "string"
        },
        {
          "internalType": "uint256",
          "name": "productId",
          "type": "uint256"
        },
        {
          "internalType": "uint256",
          "name": "quantity",
          "type": "uint256"
        },
        {
          "internalType": "string",
          "name": "productionDate",
          "type": "string"
        },
        {
          "internalType": "string",
          "name": "expireDate",
          "type": "string"
        },
        {
          "internalType": "uint256",
          "name": "createdAt",
          "type": "uint256"
        }
      ],
      "stateMutability": "view",
      "type": "function"
    },
    {
      "inputs": [],
      "name": "degreeCount",
      "outputs": [
        {
          "internalType": "uint256",
          "name": "",
          "type": "uint256"
        }
      ],
      "stateMutability": "view",
      "type": "function"
    },
    {
      "inputs": [
        {
          "internalType": "uint256",
          "name": "",
          "type": "uint256"
        }
      ],
      "name": "degrees",
      "outputs": [
        {
          "internalType": "uint256",
          "name": "id",
          "type": "uint256"
        },
        {
          "internalType": "string",
          "name": "name",
          "type": "string"
        }
      ],
      "stateMutability": "view",
      "type": "function"
    },
    {
      "inputs": [],
      "name": "farmerCount",
      "outputs": [
        {
          "internalType": "uint256",
          "name": "",
          "type": "uint256"
        }
      ],
      "stateMutability": "view",
      "type": "function"
    },
    {
      "inputs": [
        {
          "internalType": "uint256",
          "name": "",
          "type": "uint256"
        }
      ],
      "name": "farmers",
      "outputs": [
        {
          "internalType": "uint256",
          "name": "id",
          "type": "uint256"
        },
        {
          "internalType": "uint256",
          "name": "userId",
          "type": "uint256"
        },
        {
          "internalType": "uint256",
          "name": "regionId",
          "type": "uint256"
        }
      ],
      "stateMutability": "view",
      "type": "function"
    },
    {
      "inputs": [
        {
          "internalType": "uint256",
          "name": "_productId",
          "type": "uint256"
        }
      ],
      "name": "getBatchesByProduct",
      "outputs": [
        {
          "internalType": "string[]",
          "name": "",
          "type": "string[]"
        }
      ],
      "stateMutability": "view",
      "type": "function"
    },
    {
      "inputs": [
        {
          "internalType": "address",
          "name": "_userAddress",
          "type": "address"
        }
      ],
      "name": "getUser",
      "outputs": [
        {
          "components": [
            {
              "internalType": "uint256",
              "name": "id",
              "type": "uint256"
            },
            {
              "internalType": "string",
              "name": "name",
              "type": "string"
            },
            {
              "internalType": "string",
              "name": "email",
              "type": "string"
            },
            {
              "internalType": "string",
              "name": "userAddress",
              "type": "string"
            },
            {
              "internalType": "string",
              "name": "dob",
              "type": "string"
            },
            {
              "internalType": "string",
              "name": "gender",
              "type": "string"
            },
            {
              "internalType": "uint256",
              "name": "roleId",
              "type": "uint256"
            },
            {
              "internalType": "uint256",
              "name": "regionId",
              "type": "uint256"
            },
            {
              "internalType": "uint256",
              "name": "createdAt",
              "type": "uint256"
            }
          ],
          "internalType": "struct User.UserStruct",
          "name": "",
          "type": "tuple"
        }
      ],
      "stateMutability": "view",
      "type": "function"
    },
    {
      "inputs": [
        {
          "internalType": "uint256",
          "name": "_regionId",
          "type": "uint256"
        }
      ],
      "name": "getUsersByRegion",
      "outputs": [
        {
          "components": [
            {
              "internalType": "uint256",
              "name": "id",
              "type": "uint256"
            },
            {
              "internalType": "string",
              "name": "name",
              "type": "string"
            },
            {
              "internalType": "string",
              "name": "email",
              "type": "string"
            },
            {
              "internalType": "string",
              "name": "userAddress",
              "type": "string"
            },
            {
              "internalType": "string",
              "name": "dob",
              "type": "string"
            },
            {
              "internalType": "string",
              "name": "gender",
              "type": "string"
            },
            {
              "internalType": "uint256",
              "name": "roleId",
              "type": "uint256"
            },
            {
              "internalType": "uint256",
              "name": "regionId",
              "type": "uint256"
            },
            {
              "internalType": "uint256",
              "name": "createdAt",
              "type": "uint256"
            }
          ],
          "internalType": "struct User.UserStruct[]",
          "name": "",
          "type": "tuple[]"
        }
      ],
      "stateMutability": "view",
      "type": "function"
    },
    {
      "inputs": [],
      "name": "inspectorCount",
      "outputs": [
        {
          "internalType": "uint256",
          "name": "",
          "type": "uint256"
        }
      ],
      "stateMutability": "view",
      "type": "function"
    },
    {
      "inputs": [
        {
          "internalType": "uint256",
          "name": "",
          "type": "uint256"
        }
      ],
      "name": "inspectors",
      "outputs": [
        {
          "internalType": "uint256",
          "name": "id",
          "type": "uint256"
        },
        {
          "internalType": "uint256",
          "name": "userId",
          "type": "uint256"
        },
        {
          "internalType": "uint256",
          "name": "regionId",
          "type": "uint256"
        }
      ],
      "stateMutability": "view",
      "type": "function"
    },
    {
      "inputs": [
        {
          "internalType": "uint256",
          "name": "_farmerId",
          "type": "uint256"
        },
        {
          "internalType": "string",
          "name": "_batchCode",
          "type": "string"
        },
        {
          "internalType": "string",
          "name": "_activity",
          "type": "string"
        }
      ],
      "name": "logActivity",
      "outputs": [],
      "stateMutability": "nonpayable",
      "type": "function"
    },
    {
      "inputs": [
        {
          "internalType": "uint256",
          "name": "",
          "type": "uint256"
        },
        {
          "internalType": "uint256",
          "name": "",
          "type": "uint256"
        }
      ],
      "name": "productBatches",
      "outputs": [
        {
          "internalType": "string",
          "name": "",
          "type": "string"
        }
      ],
      "stateMutability": "view",
      "type": "function"
    },
    {
      "inputs": [],
      "name": "productCount",
      "outputs": [
        {
          "internalType": "uint256",
          "name": "",
          "type": "uint256"
        }
      ],
      "stateMutability": "view",
      "type": "function"
    },
    {
      "inputs": [
        {
          "internalType": "uint256",
          "name": "",
          "type": "uint256"
        }
      ],
      "name": "products",
      "outputs": [
        {
          "internalType": "uint256",
          "name": "id",
          "type": "uint256"
        },
        {
          "internalType": "string",
          "name": "name",
          "type": "string"
        },
        {
          "internalType": "string",
          "name": "description",
          "type": "string"
        },
        {
          "internalType": "uint256",
          "name": "createdAt",
          "type": "uint256"
        }
      ],
      "stateMutability": "view",
      "type": "function"
    },
    {
      "inputs": [],
      "name": "regionCount",
      "outputs": [
        {
          "internalType": "uint256",
          "name": "",
          "type": "uint256"
        }
      ],
      "stateMutability": "view",
      "type": "function"
    },
    {
      "inputs": [
        {
          "internalType": "uint256",
          "name": "",
          "type": "uint256"
        }
      ],
      "name": "regions",
      "outputs": [
        {
          "internalType": "uint256",
          "name": "id",
          "type": "uint256"
        },
        {
          "internalType": "string",
          "name": "name",
          "type": "string"
        }
      ],
      "stateMutability": "view",
      "type": "function"
    },
    {
      "inputs": [],
      "name": "roleCount",
      "outputs": [
        {
          "internalType": "uint256",
          "name": "",
          "type": "uint256"
        }
      ],
      "stateMutability": "view",
      "type": "function"
    },
    {
      "inputs": [
        {
          "internalType": "uint256",
          "name": "",
          "type": "uint256"
        }
      ],
      "name": "roles",
      "outputs": [
        {
          "internalType": "uint256",
          "name": "id",
          "type": "uint256"
        },
        {
          "internalType": "string",
          "name": "name",
          "type": "string"
        }
      ],
      "stateMutability": "view",
      "type": "function"
    },
    {
      "inputs": [
        {
          "internalType": "uint256",
          "name": "",
          "type": "uint256"
        }
      ],
      "name": "userAddresses",
      "outputs": [
        {
          "internalType": "address",
          "name": "",
          "type": "address"
        }
      ],
      "stateMutability": "view",
      "type": "function"
    },
    {
      "inputs": [],
      "name": "userCount",
      "outputs": [
        {
          "internalType": "uint256",
          "name": "",
          "type": "uint256"
        }
      ],
      "stateMutability": "view",
      "type": "function"
    },
    {
      "inputs": [
        {
          "internalType": "address",
          "name": "",
          "type": "address"
        }
      ],
      "name": "users",
      "outputs": [
        {
          "internalType": "uint256",
          "name": "id",
          "type": "uint256"
        },
        {
          "internalType": "string",
          "name": "name",
          "type": "string"
        },
        {
          "internalType": "string",
          "name": "email",
          "type": "string"
        },
        {
          "internalType": "string",
          "name": "userAddress",
          "type": "string"
        },
        {
          "internalType": "string",
          "name": "dob",
          "type": "string"
        },
        {
          "internalType": "string",
          "name": "gender",
          "type": "string"
        },
        {
          "internalType": "uint256",
          "name": "roleId",
          "type": "uint256"
        },
        {
          "internalType": "uint256",
          "name": "regionId",
          "type": "uint256"
        },
        {
          "internalType": "uint256",
          "name": "createdAt",
          "type": "uint256"
        }
      ],
      "stateMutability": "view",
      "type": "function"
    }
  ],
  "bytecode": "0x60806040523480156200001157600080fd5b50604051620036b2380380620036b283398181016040528101906200003791906200009a565b808080600f60006101000a81548173ffffffffffffffffffffffffffffffffffffffff021916908373ffffffffffffffffffffffffffffffffffffffff16021790555050505062000114565b6000815190506200009481620000fa565b92915050565b600060208284031215620000ad57600080fd5b6000620000bd8482850162000083565b91505092915050565b6000620000d382620000da565b9050919050565b600073ffffffffffffffffffffffffffffffffffffffff82169050919050565b6200010581620000c6565b81146200011157600080fd5b50565b61358e80620001246000396000f3fe608060405234801561001057600080fd5b50600436106101f05760003560e01c8063927968141161010f578063bfbda98c116100a2578063cbcf2b2d11610071578063cbcf2b2d1461062c578063ddf9635814610648578063e0f6ef8714610666578063f44d397714610684576101f0565b8063bfbda98c146105a5578063bfda4a49146105c1578063c74d3bc9146105f2578063ca2efb5514610610576101f0565b8063a87430ba116100de578063a87430ba14610501578063a8d2aa9014610539578063b869586014610569578063bd45b39714610587576101f0565b8063927968141461048f578063991a3c3a146104ab578063a6304b92146104c7578063a837a713146104e5576101f0565b806363da130f116101875780637ef1446a116101565780637ef1446a146103db57806381f1c3bc1461041057806387f2d297146104415780638afdd6691461045d576101f0565b806363da130f1461032c5780636ac52d8f146103485780636f77926b146103785780637acc0b20146103a8576101f0565b80633b13616b116101c35780633b13616b1461027e5780633e96e868146102b057806342146062146102cc578063502c9bd5146102fc576101f0565b806307973ccf146101f5578063132abfb614610213578063364a7510146102445780633660096b14610260575b600080fd5b6101fd6106b8565b60405161020a9190612fbe565b60405180910390f35b61022d60048036038101906102289190612974565b6106be565b60405161023b929190612fd9565b60405180910390f35b61025e60048036038101906102599190612a70565b61076a565b005b610268610816565b6040516102759190612fbe565b60405180910390f35b61029860048036038101906102939190612974565b61081c565b6040516102a793929190613251565b60405180910390f35b6102ca60048036038101906102c591906126f2565b610846565b005b6102e660048036038101906102e19190612974565b6108f1565b6040516102f39190612ea4565b60405180910390f35b61031660048036038101906103119190612974565b610f35565b6040516103239190612e67565b60405180910390f35b610346600480360381019061034191906129f1565b610f74565b005b610362600480360381019061035d9190612a70565b611069565b60405161036f9190612ec6565b60405180910390f35b610392600480360381019061038d91906126c9565b611122565b60405161039f9190612f9c565b60405180910390f35b6103c260048036038101906103bd9190612974565b61147e565b6040516103d294939291906130fe565b60405180910390f35b6103f560048036038101906103f091906126f2565b6115be565b60405161040796959493929190612f26565b60405180910390f35b61042a60048036038101906104259190612974565b6117a8565b604051610438929190612fd9565b60405180910390f35b61045b60048036038101906104569190612a70565b611854565b005b61047760048036038101906104729190612974565b611900565b60405161048693929190613251565b60405180910390f35b6104a960048036038101906104a491906128b5565b61192a565b005b6104c560048036038101906104c0919061299d565b611ac4565b005b6104cf611b15565b6040516104dc9190612fbe565b60405180910390f35b6104ff60048036038101906104fa919061279f565b611b1b565b005b61051b600480360381019061051691906126c9565b611d1c565b6040516105309998979695949392919061304e565b60405180910390f35b610553600480360381019061054e9190612974565b612012565b6040516105609190612e82565b60405180910390f35b6105716120fe565b60405161057e9190612fbe565b60405180910390f35b61058f612104565b60405161059c9190612fbe565b60405180910390f35b6105bf60048036038101906105ba91906126f2565b61210a565b005b6105db60048036038101906105d69190612974565b6121b6565b6040516105e9929190612fd9565b60405180910390f35b6105fa612262565b6040516106079190612fbe565b60405180910390f35b61062a60048036038101906106259190612733565b612268565b005b610646600480360381019061064191906126f2565b61234a565b005b6106506123f6565b60405161065d9190612fbe565b60405180910390f35b61066e6123fc565b60405161067b9190612fbe565b60405180910390f35b61069e60048036038101906106999190612974565b612402565b6040516106af9594939291906131f0565b60405180910390f35b600a5481565b60066020528060005260406000206000915090508060000154908060010180546106e790613411565b80601f016020809104026020016040519081016040528092919081815260200182805461071390613411565b80156107605780601f1061073557610100808354040283529160200191610760565b820191906000526020600020905b81548152906001019060200180831161074357829003601f168201915b5050505050905082565b6013600081548092919061077d90613443565b919050555060405180606001604052806013548152602001838152602001828152506012600060135481526020019081526020016000206000820151816000015560208201518160010155604082015181600201559050507f3cde63bc32fbc83b47631d41ca0e3ef5918c917f7d880efdbe08b61e1c8cf443601354838360405161080a93929190613251565b60405180910390a15050565b60035481565b60126020528060005260406000206000915090508060000154908060010154908060020154905083565b6001600081548092919061085990613443565b9190505550604051806040016040528060015481526020018281525060008060015481526020019081526020016000206000820151816000015560208201518160010190805190602001906108af929190612548565b509050507f8a8c6e5d817d6b4b89ece61a1307d0361795dbbf0ef54c2693409c669bf500a9600154826040516108e6929190612fd9565b60405180910390a150565b60606000805b6009805490508110156109d457836008600060098481548110610943577f4e487b7100000000000000000000000000000000000000000000000000000000600052603260045260246000fd5b9060005260206000200160009054906101000a900473ffffffffffffffffffffffffffffffffffffffff1673ffffffffffffffffffffffffffffffffffffffff1673ffffffffffffffffffffffffffffffffffffffff1681526020019081526020016000206007015414156109c15781806109bd90613443565b9250505b80806109cc90613443565b9150506108f7565b5060008167ffffffffffffffff811115610a17577f4e487b7100000000000000000000000000000000000000000000000000000000600052604160045260246000fd5b604051908082528060200260200182016040528015610a5057816020015b610a3d6125ce565b815260200190600190039081610a355790505b5090506000805b600980549050811015610f2957856008600060098481548110610aa3577f4e487b7100000000000000000000000000000000000000000000000000000000600052603260045260246000fd5b9060005260206000200160009054906101000a900473ffffffffffffffffffffffffffffffffffffffff1673ffffffffffffffffffffffffffffffffffffffff1673ffffffffffffffffffffffffffffffffffffffff168152602001908152602001600020600701541415610f16576008600060098381548110610b50577f4e487b7100000000000000000000000000000000000000000000000000000000600052603260045260246000fd5b9060005260206000200160009054906101000a900473ffffffffffffffffffffffffffffffffffffffff1673ffffffffffffffffffffffffffffffffffffffff1673ffffffffffffffffffffffffffffffffffffffff1681526020019081526020016000206040518061012001604052908160008201548152602001600182018054610bdb90613411565b80601f0160208091040260200160405190810160405280929190818152602001828054610c0790613411565b8015610c545780601f10610c2957610100808354040283529160200191610c54565b820191906000526020600020905b815481529060010190602001808311610c3757829003601f168201915b50505050508152602001600282018054610c6d90613411565b80601f0160208091040260200160405190810160405280929190818152602001828054610c9990613411565b8015610ce65780601f10610cbb57610100808354040283529160200191610ce6565b820191906000526020600020905b815481529060010190602001808311610cc957829003601f168201915b50505050508152602001600382018054610cff90613411565b80601f0160208091040260200160405190810160405280929190818152602001828054610d2b90613411565b8015610d785780601f10610d4d57610100808354040283529160200191610d78565b820191906000526020600020905b815481529060010190602001808311610d5b57829003601f168201915b50505050508152602001600482018054610d9190613411565b80601f0160208091040260200160405190810160405280929190818152602001828054610dbd90613411565b8015610e0a5780601f10610ddf57610100808354040283529160200191610e0a565b820191906000526020600020905b815481529060010190602001808311610ded57829003601f168201915b50505050508152602001600582018054610e2390613411565b80601f0160208091040260200160405190810160405280929190818152602001828054610e4f90613411565b8015610e9c5780601f10610e7157610100808354040283529160200191610e9c565b820191906000526020600020905b815481529060010190602001808311610e7f57829003601f168201915b505050505081526020016006820154815260200160078201548152602001600882015481525050838381518110610efc577f4e487b7100000000000000000000000000000000000000000000000000000000600052603260045260246000fd5b60200260200101819052508180610f1290613443565b9250505b8080610f2190613443565b915050610a57565b50819350505050919050565b60098181548110610f4557600080fd5b906000526020600020016000915054906101000a900473ffffffffffffffffffffffffffffffffffffffff1681565b60056000815480929190610f8790613443565b91905055506040518060a0016040528060055481526020018481526020018381526020018281526020014281525060046000600554815260200190815260200160002060008201518160000155602082015181600101556040820151816002019080519060200190610ffa929190612548565b506060820151816003019080519060200190611017929190612548565b50608082015181600401559050507f156a0c11537c299aff79360fa462da1d0cabeeadeecaf1f05c53e388f2830c0e60055484848460405161105c949392919061319d565b60405180910390a1505050565b600c602052816000526040600020818154811061108557600080fd5b906000526020600020016000915091505080546110a190613411565b80601f01602080910402602001604051908101604052809291908181526020018280546110cd90613411565b801561111a5780601f106110ef5761010080835404028352916020019161111a565b820191906000526020600020905b8154815290600101906020018083116110fd57829003601f168201915b505050505081565b61112a6125ce565b600860008373ffffffffffffffffffffffffffffffffffffffff1673ffffffffffffffffffffffffffffffffffffffff168152602001908152602001600020604051806101200160405290816000820154815260200160018201805461118f90613411565b80601f01602080910402602001604051908101604052809291908181526020018280546111bb90613411565b80156112085780601f106111dd57610100808354040283529160200191611208565b820191906000526020600020905b8154815290600101906020018083116111eb57829003601f168201915b5050505050815260200160028201805461122190613411565b80601f016020809104026020016040519081016040528092919081815260200182805461124d90613411565b801561129a5780601f1061126f5761010080835404028352916020019161129a565b820191906000526020600020905b81548152906001019060200180831161127d57829003601f168201915b505050505081526020016003820180546112b390613411565b80601f01602080910402602001604051908101604052809291908181526020018280546112df90613411565b801561132c5780601f106113015761010080835404028352916020019161132c565b820191906000526020600020905b81548152906001019060200180831161130f57829003601f168201915b5050505050815260200160048201805461134590613411565b80601f016020809104026020016040519081016040528092919081815260200182805461137190613411565b80156113be5780601f10611393576101008083540402835291602001916113be565b820191906000526020600020905b8154815290600101906020018083116113a157829003601f168201915b505050505081526020016005820180546113d790613411565b80601f016020809104026020016040519081016040528092919081815260200182805461140390613411565b80156114505780601f1061142557610100808354040283529160200191611450565b820191906000526020600020905b81548152906001019060200180831161143357829003601f168201915b5050505050815260200160068201548152602001600782015481526020016008820154815250509050919050565b600b6020528060005260406000206000915090508060000154908060010180546114a790613411565b80601f01602080910402602001604051908101604052809291908181526020018280546114d390613411565b80156115205780601f106114f557610100808354040283529160200191611520565b820191906000526020600020905b81548152906001019060200180831161150357829003601f168201915b50505050509080600201805461153590613411565b80601f016020809104026020016040519081016040528092919081815260200182805461156190613411565b80156115ae5780601f10611583576101008083540402835291602001916115ae565b820191906000526020600020905b81548152906001019060200180831161159157829003601f168201915b5050505050908060030154905084565b600e818051602081018201805184825260208301602085012081835280955050505050506000915090508060000180546115f790613411565b80601f016020809104026020016040519081016040528092919081815260200182805461162390613411565b80156116705780601f1061164557610100808354040283529160200191611670565b820191906000526020600020905b81548152906001019060200180831161165357829003601f168201915b50505050509080600101549080600201549080600301805461169190613411565b80601f01602080910402602001604051908101604052809291908181526020018280546116bd90613411565b801561170a5780601f106116df5761010080835404028352916020019161170a565b820191906000526020600020905b8154815290600101906020018083116116ed57829003601f168201915b50505050509080600401805461171f90613411565b80601f016020809104026020016040519081016040528092919081815260200182805461174b90613411565b80156117985780601f1061176d57610100808354040283529160200191611798565b820191906000526020600020905b81548152906001019060200180831161177b57829003601f168201915b5050505050908060050154905086565b60026020528060005260406000206000915090508060000154908060010180546117d190613411565b80601f01602080910402602001604051908101604052809291908181526020018280546117fd90613411565b801561184a5780601f1061181f5761010080835404028352916020019161184a565b820191906000526020600020905b81548152906001019060200180831161182d57829003601f168201915b5050505050905082565b6011600081548092919061186790613443565b919050555060405180606001604052806011548152602001838152602001828152506010600060115481526020019081526020016000206000820151816000015560208201518160010155604082015181600201559050507fb646a94c0d82abc8a3462ce854d8118cd7fd08210c88beede586140c81827e4260115483836040516118f493929190613251565b60405180910390a15050565b60106020528060005260406000206000915090508060000154908060010154908060020154905083565b60006040518060c0016040528087815260200186815260200185815260200184815260200183815260200142815250905080600e8760405161196c9190612e50565b90815260200160405180910390206000820151816000019080519060200190611996929190612548565b50602082015181600101556040820151816002015560608201518160030190805190602001906119c7929190612548565b5060808201518160040190805190602001906119e4929190612548565b5060a08201518160050155905050600f60009054906101000a900473ffffffffffffffffffffffffffffffffffffffff1673ffffffffffffffffffffffffffffffffffffffff1663991a3c3a86886040518363ffffffff1660e01b8152600401611a4f929190612fd9565b600060405180830381600087803b158015611a6957600080fd5b505af1158015611a7d573d6000803e3d6000fd5b505050507f4d0cb973f6b46b3e44d83c8b26707101f256c9ff9d01430a6fdcf0427ffb57d0868686604051611ab493929190612ee8565b60405180910390a1505050505050565b600c600083815260200190815260200160002081908060018154018082558091505060019003906000526020600020016000909190919091509080519060200190611b10929190612548565b505050565b60135481565b600a6000815480929190611b2e90613443565b9190505550604051806101200160405280600a54815260200188815260200187815260200186815260200185815260200184815260200183815260200182815260200142815250600860003373ffffffffffffffffffffffffffffffffffffffff1673ffffffffffffffffffffffffffffffffffffffff168152602001908152602001600020600082015181600001556020820151816001019080519060200190611bda929190612548565b506040820151816002019080519060200190611bf7929190612548565b506060820151816003019080519060200190611c14929190612548565b506080820151816004019080519060200190611c31929190612548565b5060a0820151816005019080519060200190611c4e929190612548565b5060c0820151816006015560e0820151816007015561010082015181600801559050506009339080600181540180825580915050600190039060005260206000200160009091909190916101000a81548173ffffffffffffffffffffffffffffffffffffffff021916908373ffffffffffffffffffffffffffffffffffffffff1602179055507feabcb8900cdae60d1603d8999fadc9a0c2926e0483c42b49a361e5f14617dc21600a54888484604051611d0b9493929190613151565b60405180910390a150505050505050565b6008602052806000526040600020600091509050806000015490806001018054611d4590613411565b80601f0160208091040260200160405190810160405280929190818152602001828054611d7190613411565b8015611dbe5780601f10611d9357610100808354040283529160200191611dbe565b820191906000526020600020905b815481529060010190602001808311611da157829003601f168201915b505050505090806002018054611dd390613411565b80601f0160208091040260200160405190810160405280929190818152602001828054611dff90613411565b8015611e4c5780601f10611e2157610100808354040283529160200191611e4c565b820191906000526020600020905b815481529060010190602001808311611e2f57829003601f168201915b505050505090806003018054611e6190613411565b80601f0160208091040260200160405190810160405280929190818152602001828054611e8d90613411565b8015611eda5780601f10611eaf57610100808354040283529160200191611eda565b820191906000526020600020905b815481529060010190602001808311611ebd57829003601f168201915b505050505090806004018054611eef90613411565b80601f0160208091040260200160405190810160405280929190818152602001828054611f1b90613411565b8015611f685780601f10611f3d57610100808354040283529160200191611f68565b820191906000526020600020905b815481529060010190602001808311611f4b57829003601f168201915b505050505090806005018054611f7d90613411565b80601f0160208091040260200160405190810160405280929190818152602001828054611fa990613411565b8015611ff65780601f10611fcb57610100808354040283529160200191611ff6565b820191906000526020600020905b815481529060010190602001808311611fd957829003601f168201915b5050505050908060060154908060070154908060080154905089565b6060600c6000838152602001908152602001600020805480602002602001604051908101604052809291908181526020016000905b828210156120f357838290600052602060002001805461206690613411565b80601f016020809104026020016040519081016040528092919081815260200182805461209290613411565b80156120df5780601f106120b4576101008083540402835291602001916120df565b820191906000526020600020905b8154815290600101906020018083116120c257829003601f168201915b505050505081526020019060010190612047565b505050509050919050565b60075481565b60115481565b6007600081548092919061211d90613443565b91905055506040518060400160405280600754815260200182815250600660006007548152602001908152602001600020600082015181600001556020820151816001019080519060200190612174929190612548565b509050507f5ab5cc8942e6c98d124ada92b18633649af885d6b742c9c6f454f26a424d7616600754826040516121ab929190612fd9565b60405180910390a150565b60006020528060005260406000206000915090508060000154908060010180546121df90613411565b80601f016020809104026020016040519081016040528092919081815260200182805461220b90613411565b80156122585780601f1061222d57610100808354040283529160200191612258565b820191906000526020600020905b81548152906001019060200180831161223b57829003601f168201915b5050505050905082565b60055481565b600d600081548092919061227b90613443565b91905055506040518060800160405280600d54815260200183815260200182815260200142815250600b6000600d5481526020019081526020016000206000820151816000015560208201518160010190805190602001906122de929190612548565b5060408201518160020190805190602001906122fb929190612548565b50606082015181600301559050507fb0b1b5b61bc0dbb800dfdecd756ac304fe33d3a63c2ac5dc419452555c99a829600d54838360405161233e93929190613009565b60405180910390a15050565b6003600081548092919061235d90613443565b919050555060405180604001604052806003548152602001828152506002600060035481526020019081526020016000206000820151816000015560208201518160010190805190602001906123b4929190612548565b509050507fb91ab895bbcbd9b2fb90d1d65f6602da5d7a5da3fe95af5c112742c386fc03ff600354826040516123eb929190612fd9565b60405180910390a150565b60015481565b600d5481565b600460205280600052604060002060009150905080600001549080600101549080600201805461243190613411565b80601f016020809104026020016040519081016040528092919081815260200182805461245d90613411565b80156124aa5780601f1061247f576101008083540402835291602001916124aa565b820191906000526020600020905b81548152906001019060200180831161248d57829003601f168201915b5050505050908060030180546124bf90613411565b80601f01602080910402602001604051908101604052809291908181526020018280546124eb90613411565b80156125385780601f1061250d57610100808354040283529160200191612538565b820191906000526020600020905b81548152906001019060200180831161251b57829003601f168201915b5050505050908060040154905085565b82805461255490613411565b90600052602060002090601f01602090048101928261257657600085556125bd565b82601f1061258f57805160ff19168380011785556125bd565b828001600101855582156125bd579182015b828111156125bc5782518255916020019190600101906125a1565b5b5090506125ca919061261a565b5090565b6040518061012001604052806000815260200160608152602001606081526020016060815260200160608152602001606081526020016000815260200160008152602001600081525090565b5b8082111561263357600081600090555060010161261b565b5090565b600061264a612645846132b9565b613288565b90508281526020810184848401111561266257600080fd5b61266d8482856133cf565b509392505050565b6000813590506126848161352a565b92915050565b600082601f83011261269b57600080fd5b81356126ab848260208601612637565b91505092915050565b6000813590506126c381613541565b92915050565b6000602082840312156126db57600080fd5b60006126e984828501612675565b91505092915050565b60006020828403121561270457600080fd5b600082013567ffffffffffffffff81111561271e57600080fd5b61272a8482850161268a565b91505092915050565b6000806040838503121561274657600080fd5b600083013567ffffffffffffffff81111561276057600080fd5b61276c8582860161268a565b925050602083013567ffffffffffffffff81111561278957600080fd5b6127958582860161268a565b9150509250929050565b600080600080600080600060e0888a0312156127ba57600080fd5b600088013567ffffffffffffffff8111156127d457600080fd5b6127e08a828b0161268a565b975050602088013567ffffffffffffffff8111156127fd57600080fd5b6128098a828b0161268a565b965050604088013567ffffffffffffffff81111561282657600080fd5b6128328a828b0161268a565b955050606088013567ffffffffffffffff81111561284f57600080fd5b61285b8a828b0161268a565b945050608088013567ffffffffffffffff81111561287857600080fd5b6128848a828b0161268a565b93505060a06128958a828b016126b4565b92505060c06128a68a828b016126b4565b91505092959891949750929550565b600080600080600060a086880312156128cd57600080fd5b600086013567ffffffffffffffff8111156128e757600080fd5b6128f38882890161268a565b9550506020612904888289016126b4565b9450506040612915888289016126b4565b935050606086013567ffffffffffffffff81111561293257600080fd5b61293e8882890161268a565b925050608086013567ffffffffffffffff81111561295b57600080fd5b6129678882890161268a565b9150509295509295909350565b60006020828403121561298657600080fd5b6000612994848285016126b4565b91505092915050565b600080604083850312156129b057600080fd5b60006129be858286016126b4565b925050602083013567ffffffffffffffff8111156129db57600080fd5b6129e78582860161268a565b9150509250929050565b600080600060608486031215612a0657600080fd5b6000612a14868287016126b4565b935050602084013567ffffffffffffffff811115612a3157600080fd5b612a3d8682870161268a565b925050604084013567ffffffffffffffff811115612a5a57600080fd5b612a668682870161268a565b9150509250925092565b60008060408385031215612a8357600080fd5b6000612a91858286016126b4565b9250506020612aa2858286016126b4565b9150509250929050565b6000612ab88383612bcd565b905092915050565b6000612acc8383612c70565b905092915050565b612add81613393565b82525050565b6000612aee82613309565b612af88185613344565b935083602082028501612b0a856132e9565b8060005b85811015612b465784840389528151612b278582612aac565b9450612b328361332a565b925060208a01995050600181019050612b0e565b50829750879550505050505092915050565b6000612b6382613314565b612b6d8185613355565b935083602082028501612b7f856132f9565b8060005b85811015612bbb5784840389528151612b9c8582612ac0565b9450612ba783613337565b925060208a01995050600181019050612b83565b50829750879550505050505092915050565b6000612bd88261331f565b612be28185613366565b9350612bf28185602086016133de565b612bfb81613519565b840191505092915050565b6000612c118261331f565b612c1b8185613377565b9350612c2b8185602086016133de565b612c3481613519565b840191505092915050565b6000612c4a8261331f565b612c548185613388565b9350612c648185602086016133de565b80840191505092915050565b600061012083016000830151612c896000860182612e32565b5060208301518482036020860152612ca18282612bcd565b91505060408301518482036040860152612cbb8282612bcd565b91505060608301518482036060860152612cd58282612bcd565b91505060808301518482036080860152612cef8282612bcd565b91505060a083015184820360a0860152612d098282612bcd565b91505060c0830151612d1e60c0860182612e32565b5060e0830151612d3160e0860182612e32565b50610100830151612d46610100860182612e32565b508091505092915050565b600061012083016000830151612d6a6000860182612e32565b5060208301518482036020860152612d828282612bcd565b91505060408301518482036040860152612d9c8282612bcd565b91505060608301518482036060860152612db68282612bcd565b91505060808301518482036080860152612dd08282612bcd565b91505060a083015184820360a0860152612dea8282612bcd565b91505060c0830151612dff60c0860182612e32565b5060e0830151612e1260e0860182612e32565b50610100830151612e27610100860182612e32565b508091505092915050565b612e3b816133c5565b82525050565b612e4a816133c5565b82525050565b6000612e5c8284612c3f565b915081905092915050565b6000602082019050612e7c6000830184612ad4565b92915050565b60006020820190508181036000830152612e9c8184612ae3565b905092915050565b60006020820190508181036000830152612ebe8184612b58565b905092915050565b60006020820190508181036000830152612ee08184612c06565b905092915050565b60006060820190508181036000830152612f028186612c06565b9050612f116020830185612e41565b612f1e6040830184612e41565b949350505050565b600060c0820190508181036000830152612f408189612c06565b9050612f4f6020830188612e41565b612f5c6040830187612e41565b8181036060830152612f6e8186612c06565b90508181036080830152612f828185612c06565b9050612f9160a0830184612e41565b979650505050505050565b60006020820190508181036000830152612fb68184612d51565b905092915050565b6000602082019050612fd36000830184612e41565b92915050565b6000604082019050612fee6000830185612e41565b81810360208301526130008184612c06565b90509392505050565b600060608201905061301e6000830186612e41565b81810360208301526130308185612c06565b905081810360408301526130448184612c06565b9050949350505050565b600061012082019050613064600083018c612e41565b8181036020830152613076818b612c06565b9050818103604083015261308a818a612c06565b9050818103606083015261309e8189612c06565b905081810360808301526130b28188612c06565b905081810360a08301526130c68187612c06565b90506130d560c0830186612e41565b6130e260e0830185612e41565b6130f0610100830184612e41565b9a9950505050505050505050565b60006080820190506131136000830187612e41565b81810360208301526131258186612c06565b905081810360408301526131398185612c06565b90506131486060830184612e41565b95945050505050565b60006080820190506131666000830187612e41565b81810360208301526131788186612c06565b90506131876040830185612e41565b6131946060830184612e41565b95945050505050565b60006080820190506131b26000830187612e41565b6131bf6020830186612e41565b81810360408301526131d18185612c06565b905081810360608301526131e58184612c06565b905095945050505050565b600060a0820190506132056000830188612e41565b6132126020830187612e41565b81810360408301526132248186612c06565b905081810360608301526132388185612c06565b90506132476080830184612e41565b9695505050505050565b60006060820190506132666000830186612e41565b6132736020830185612e41565b6132806040830184612e41565b949350505050565b6000604051905081810181811067ffffffffffffffff821117156132af576132ae6134ea565b5b8060405250919050565b600067ffffffffffffffff8211156132d4576132d36134ea565b5b601f19601f8301169050602081019050919050565b6000819050602082019050919050565b6000819050602082019050919050565b600081519050919050565b600081519050919050565b600081519050919050565b6000602082019050919050565b6000602082019050919050565b600082825260208201905092915050565b600082825260208201905092915050565b600082825260208201905092915050565b600082825260208201905092915050565b600081905092915050565b600061339e826133a5565b9050919050565b600073ffffffffffffffffffffffffffffffffffffffff82169050919050565b6000819050919050565b82818337600083830152505050565b60005b838110156133fc5780820151818401526020810190506133e1565b8381111561340b576000848401525b50505050565b6000600282049050600182168061342957607f821691505b6020821081141561343d5761343c6134bb565b5b50919050565b600061344e826133c5565b91507fffffffffffffffffffffffffffffffffffffffffffffffffffffffffffffffff8214156134815761348061348c565b5b600182019050919050565b7f4e487b7100000000000000000000000000000000000000000000000000000000600052601160045260246000fd5b7f4e487b7100000000000000000000000000000000000000000000000000000000600052602260045260246000fd5b7f4e487b7100000000000000000000000000000000000000000000000000000000600052604160045260246000fd5b6000601f19601f8301169050919050565b61353381613393565b811461353e57600080fd5b50565b61354a816133c5565b811461355557600080fd5b5056fea264697066735822122086235d2adb55e685b757cc7c1477ec09fbb13bfe54e72bb67ab2d33f1430ba1264736f6c63430008000033",
  "immutableReferences": {},
  "source": "// SPDX-License-Identifier: MIT\r\npragma solidity ^0.8.0;\r\n\r\n// Import statements\r\nimport \"./roles/role.sol\";\r\nimport \"./roles/degree.sol\";\r\nimport \"./users/user.sol\";\r\nimport \"./products/product.sol\";\r\nimport \"./products/batch.sol\";\r\nimport \"./logs/activity.sol\";\r\nimport \"./region/region.sol\";\r\nimport \"./region/farmer.sol\";\r\nimport \"./region/inspector.sol\";\r\n// Contract declaration\r\n\r\ncontract RoleDegree is Role, Degree {\r\n    // Code for Role and Degree\r\n}\r\n\r\ncontract UserProductBatch is User, Product, Batch {\r\n    constructor(address _productContractAddress) Batch(_productContractAddress) {\r\n        // Additional initialization code if needed\r\n    }\r\n}\r\n\r\ncontract ActivityRegionFarmerInspector is ActivityLog, Region, Farmer, Inspector {\r\n    // Code for ActivityLog, Region, Farmer, and Inspector\r\n}\r\n\r\n// Main contract that combines the separated contracts\r\ncontract GrapefruitTraceability is RoleDegree, UserProductBatch, ActivityRegionFarmerInspector {\r\n    constructor(address _productContractAddress) UserProductBatch(_productContractAddress) {\r\n        // Additional initialization code if needed\r\n    }\r\n}",
  "sourcePath": "D:\\projects\\startup\\contracts\\application.sol",
  "compiler": {
    "name": "solc",
    "version": "0.8.0+commit.c7dfd78e.Emscripten.clang"
  },
  "schemaVersion": "3.4.16",
  "updatedAt": "2024-08-19T13:20:24.395Z",
  "devdoc": {
    "kind": "dev",
    "methods": {},
    "version": 1
  },
  "userdoc": {
    "kind": "user",
    "methods": {},
    "version": 1
  }
}