{
  "contractName": "GrapefruitTraceability",
  "abi": [
    {
      "inputs": [
        {
          "internalType": "address",
          "name": "_productContractAddress",
          "type": "address"
        }
      ],
      "stateMutability": "nonpayable",
      "type": "constructor"
    },
    {
      "anonymous": false,
      "inputs": [
        {
          "indexed": false,
          "internalType": "uint256",
          "name": "id",
          "type": "uint256"
        },
        {
          "indexed": false,
          "internalType": "uint256",
          "name": "farmerId",
          "type": "uint256"
        },
        {
          "indexed": false,
          "internalType": "string",
          "name": "batchCode",
          "type": "string"
        },
        {
          "indexed": false,
          "internalType": "string",
          "name": "activity",
          "type": "string"
        }
      ],
      "name": "ActivityLogged",
      "type": "event"
    },
    {
      "anonymous": false,
      "inputs": [
        {
          "indexed": false,
          "internalType": "string",
          "name": "code",
          "type": "string"
        },
        {
          "indexed": false,
          "internalType": "uint256",
          "name": "productId",
          "type": "uint256"
        },
        {
          "indexed": false,
          "internalType": "uint256",
          "name": "quantity",
          "type": "uint256"
        }
      ],
      "name": "BatchAdded",
      "type": "event"
    },
    {
      "anonymous": false,
      "inputs": [
        {
          "indexed": false,
          "internalType": "uint256",
          "name": "id",
          "type": "uint256"
        },
        {
          "indexed": false,
          "internalType": "string",
          "name": "name",
          "type": "string"
        }
      ],
      "name": "DegreeAdded",
      "type": "event"
    },
    {
      "anonymous": false,
      "inputs": [
        {
          "indexed": false,
          "internalType": "uint256",
          "name": "id",
          "type": "uint256"
        },
        {
          "indexed": false,
          "internalType": "uint256",
          "name": "userId",
          "type": "uint256"
        },
        {
          "indexed": false,
          "internalType": "uint256",
          "name": "regionId",
          "type": "uint256"
        }
      ],
      "name": "FarmerAdded",
      "type": "event"
    },
    {
      "anonymous": false,
      "inputs": [
        {
          "indexed": false,
          "internalType": "uint256",
          "name": "id",
          "type": "uint256"
        },
        {
          "indexed": false,
          "internalType": "uint256",
          "name": "userId",
          "type": "uint256"
        },
        {
          "indexed": false,
          "internalType": "uint256",
          "name": "regionId",
          "type": "uint256"
        }
      ],
      "name": "InspectorAdded",
      "type": "event"
    },
    {
      "anonymous": false,
      "inputs": [
        {
          "indexed": false,
          "internalType": "uint256",
          "name": "id",
          "type": "uint256"
        },
        {
          "indexed": false,
          "internalType": "string",
          "name": "name",
          "type": "string"
        },
        {
          "indexed": false,
          "internalType": "string",
          "name": "description",
          "type": "string"
        }
      ],
      "name": "ProductAdded",
      "type": "event"
    },
    {
      "anonymous": false,
      "inputs": [
        {
          "indexed": false,
          "internalType": "uint256",
          "name": "id",
          "type": "uint256"
        },
        {
          "indexed": false,
          "internalType": "string",
          "name": "name",
          "type": "string"
        }
      ],
      "name": "RegionAdded",
      "type": "event"
    },
    {
      "anonymous": false,
      "inputs": [
        {
          "indexed": false,
          "internalType": "uint256",
          "name": "id",
          "type": "uint256"
        },
        {
          "indexed": false,
          "internalType": "string",
          "name": "name",
          "type": "string"
        }
      ],
      "name": "RoleAdded",
      "type": "event"
    },
    {
      "anonymous": false,
      "inputs": [
        {
          "indexed": false,
          "internalType": "uint256",
          "name": "id",
          "type": "uint256"
        },
        {
          "indexed": false,
          "internalType": "string",
          "name": "name",
          "type": "string"
        },
        {
          "indexed": false,
          "internalType": "uint256",
          "name": "roleId",
          "type": "uint256"
        },
        {
          "indexed": false,
          "internalType": "uint256",
          "name": "regionId",
          "type": "uint256"
        }
      ],
      "name": "UserAdded",
      "type": "event"
    },
    {
      "inputs": [],
      "name": "activityLogCount",
      "outputs": [
        {
          "internalType": "uint256",
          "name": "",
          "type": "uint256"
        }
      ],
      "stateMutability": "view",
      "type": "function"
    },
    {
      "inputs": [
        {
          "internalType": "uint256",
          "name": "",
          "type": "uint256"
        }
      ],
      "name": "activityLogs",
      "outputs": [
        {
          "internalType": "uint256",
          "name": "id",
          "type": "uint256"
        },
        {
          "internalType": "uint256",
          "name": "farmerId",
          "type": "uint256"
        },
        {
          "internalType": "string",
          "name": "batchCode",
          "type": "string"
        },
        {
          "internalType": "string",
          "name": "activity",
          "type": "string"
        },
        {
          "internalType": "uint256",
          "name": "timestamp",
          "type": "uint256"
        }
      ],
      "stateMutability": "view",
      "type": "function"
    },
    {
      "inputs": [
        {
          "internalType": "string",
          "name": "_code",
          "type": "string"
        },
        {
          "internalType": "uint256",
          "name": "_productId",
          "type": "uint256"
        },
        {
          "internalType": "uint256",
          "name": "_quantity",
          "type": "uint256"
        },
        {
          "internalType": "string",
          "name": "_productionDate",
          "type": "string"
        },
        {
          "internalType": "string",
          "name": "_expireDate",
          "type": "string"
        }
      ],
      "name": "addBatch",
      "outputs": [],
      "stateMutability": "nonpayable",
      "type": "function"
    },
    {
      "inputs": [
        {
          "internalType": "uint256",
          "name": "_productId",
          "type": "uint256"
        },
        {
          "internalType": "string",
          "name": "_batchCode",
          "type": "string"
        }
      ],
      "name": "addBatchToProduct",
      "outputs": [],
      "stateMutability": "nonpayable",
      "type": "function"
    },
    {
      "inputs": [
        {
          "internalType": "string",
          "name": "_name",
          "type": "string"
        }
      ],
      "name": "addDegree",
      "outputs": [],
      "stateMutability": "nonpayable",
      "type": "function"
    },
    {
      "inputs": [
        {
          "internalType": "uint256",
          "name": "_userId",
          "type": "uint256"
        },
        {
          "internalType": "uint256",
          "name": "_regionId",
          "type": "uint256"
        }
      ],
      "name": "addFarmer",
      "outputs": [],
      "stateMutability": "nonpayable",
      "type": "function"
    },
    {
      "inputs": [
        {
          "internalType": "uint256",
          "name": "_userId",
          "type": "uint256"
        },
        {
          "internalType": "uint256",
          "name": "_regionId",
          "type": "uint256"
        }
      ],
      "name": "addInspector",
      "outputs": [],
      "stateMutability": "nonpayable",
      "type": "function"
    },
    {
      "inputs": [
        {
          "internalType": "string",
          "name": "_name",
          "type": "string"
        },
        {
          "internalType": "string",
          "name": "_description",
          "type": "string"
        }
      ],
      "name": "addProduct",
      "outputs": [],
      "stateMutability": "nonpayable",
      "type": "function"
    },
    {
      "inputs": [
        {
          "internalType": "string",
          "name": "_name",
          "type": "string"
        }
      ],
      "name": "addRegion",
      "outputs": [],
      "stateMutability": "nonpayable",
      "type": "function"
    },
    {
      "inputs": [
        {
          "internalType": "string",
          "name": "_name",
          "type": "string"
        }
      ],
      "name": "addRole",
      "outputs": [],
      "stateMutability": "nonpayable",
      "type": "function"
    },
    {
      "inputs": [
        {
          "internalType": "string",
          "name": "_name",
          "type": "string"
        },
        {
          "internalType": "string",
          "name": "_email",
          "type": "string"
        },
        {
          "internalType": "string",
          "name": "_userAddress",
          "type": "string"
        },
        {
          "internalType": "string",
          "name": "_dob",
          "type": "string"
        },
        {
          "internalType": "string",
          "name": "_gender",
          "type": "string"
        },
        {
          "internalType": "uint256",
          "name": "_roleId",
          "type": "uint256"
        },
        {
          "internalType": "uint256",
          "name": "_regionId",
          "type": "uint256"
        }
      ],
      "name": "addUser",
      "outputs": [],
      "stateMutability": "nonpayable",
      "type": "function"
    },
    {
      "inputs": [
        {
          "internalType": "string",
          "name": "",
          "type": "string"
        }
      ],
      "name": "batches",
      "outputs": [
        {
          "internalType": "string",
          "name": "code",
          "type": "string"
        },
        {
          "internalType": "uint256",
          "name": "productId",
          "type": "uint256"
        },
        {
          "internalType": "uint256",
          "name": "quantity",
          "type": "uint256"
        },
        {
          "internalType": "string",
          "name": "productionDate",
          "type": "string"
        },
        {
          "internalType": "string",
          "name": "expireDate",
          "type": "string"
        },
        {
          "internalType": "uint256",
          "name": "createdAt",
          "type": "uint256"
        }
      ],
      "stateMutability": "view",
      "type": "function"
    },
    {
      "inputs": [],
      "name": "degreeCount",
      "outputs": [
        {
          "internalType": "uint256",
          "name": "",
          "type": "uint256"
        }
      ],
      "stateMutability": "view",
      "type": "function"
    },
    {
      "inputs": [
        {
          "internalType": "uint256",
          "name": "",
          "type": "uint256"
        }
      ],
      "name": "degrees",
      "outputs": [
        {
          "internalType": "uint256",
          "name": "id",
          "type": "uint256"
        },
        {
          "internalType": "string",
          "name": "name",
          "type": "string"
        }
      ],
      "stateMutability": "view",
      "type": "function"
    },
    {
      "inputs": [],
      "name": "farmerCount",
      "outputs": [
        {
          "internalType": "uint256",
          "name": "",
          "type": "uint256"
        }
      ],
      "stateMutability": "view",
      "type": "function"
    },
    {
      "inputs": [
        {
          "internalType": "uint256",
          "name": "",
          "type": "uint256"
        }
      ],
      "name": "farmers",
      "outputs": [
        {
          "internalType": "uint256",
          "name": "id",
          "type": "uint256"
        },
        {
          "internalType": "uint256",
          "name": "userId",
          "type": "uint256"
        },
        {
          "internalType": "uint256",
          "name": "regionId",
          "type": "uint256"
        }
      ],
      "stateMutability": "view",
      "type": "function"
    },
    {
      "inputs": [
        {
          "internalType": "uint256",
          "name": "_productId",
          "type": "uint256"
        }
      ],
      "name": "getBatchesByProduct",
      "outputs": [
        {
          "internalType": "string[]",
          "name": "",
          "type": "string[]"
        }
      ],
      "stateMutability": "view",
      "type": "function"
    },
    {
      "inputs": [
        {
          "internalType": "address",
          "name": "_userAddress",
          "type": "address"
        }
      ],
      "name": "getUser",
      "outputs": [
        {
          "components": [
            {
              "internalType": "uint256",
              "name": "id",
              "type": "uint256"
            },
            {
              "internalType": "string",
              "name": "name",
              "type": "string"
            },
            {
              "internalType": "string",
              "name": "email",
              "type": "string"
            },
            {
              "internalType": "string",
              "name": "userAddress",
              "type": "string"
            },
            {
              "internalType": "string",
              "name": "dob",
              "type": "string"
            },
            {
              "internalType": "string",
              "name": "gender",
              "type": "string"
            },
            {
              "internalType": "uint256",
              "name": "roleId",
              "type": "uint256"
            },
            {
              "internalType": "uint256",
              "name": "regionId",
              "type": "uint256"
            },
            {
              "internalType": "uint256",
              "name": "createdAt",
              "type": "uint256"
            }
          ],
          "internalType": "struct User.UserStruct",
          "name": "",
          "type": "tuple"
        }
      ],
      "stateMutability": "view",
      "type": "function"
    },
    {
      "inputs": [
        {
          "internalType": "uint256",
          "name": "_regionId",
          "type": "uint256"
        }
      ],
      "name": "getUsersByRegion",
      "outputs": [
        {
          "components": [
            {
              "internalType": "uint256",
              "name": "id",
              "type": "uint256"
            },
            {
              "internalType": "string",
              "name": "name",
              "type": "string"
            },
            {
              "internalType": "string",
              "name": "email",
              "type": "string"
            },
            {
              "internalType": "string",
              "name": "userAddress",
              "type": "string"
            },
            {
              "internalType": "string",
              "name": "dob",
              "type": "string"
            },
            {
              "internalType": "string",
              "name": "gender",
              "type": "string"
            },
            {
              "internalType": "uint256",
              "name": "roleId",
              "type": "uint256"
            },
            {
              "internalType": "uint256",
              "name": "regionId",
              "type": "uint256"
            },
            {
              "internalType": "uint256",
              "name": "createdAt",
              "type": "uint256"
            }
          ],
          "internalType": "struct User.UserStruct[]",
          "name": "",
          "type": "tuple[]"
        }
      ],
      "stateMutability": "view",
      "type": "function"
    },
    {
      "inputs": [],
      "name": "inspectorCount",
      "outputs": [
        {
          "internalType": "uint256",
          "name": "",
          "type": "uint256"
        }
      ],
      "stateMutability": "view",
      "type": "function"
    },
    {
      "inputs": [
        {
          "internalType": "uint256",
          "name": "",
          "type": "uint256"
        }
      ],
      "name": "inspectors",
      "outputs": [
        {
          "internalType": "uint256",
          "name": "id",
          "type": "uint256"
        },
        {
          "internalType": "uint256",
          "name": "userId",
          "type": "uint256"
        },
        {
          "internalType": "uint256",
          "name": "regionId",
          "type": "uint256"
        }
      ],
      "stateMutability": "view",
      "type": "function"
    },
    {
      "inputs": [
        {
          "internalType": "uint256",
          "name": "_farmerId",
          "type": "uint256"
        },
        {
          "internalType": "string",
          "name": "_batchCode",
          "type": "string"
        },
        {
          "internalType": "string",
          "name": "_activity",
          "type": "string"
        }
      ],
      "name": "logActivity",
      "outputs": [],
      "stateMutability": "nonpayable",
      "type": "function"
    },
    {
      "inputs": [
        {
          "internalType": "uint256",
          "name": "",
          "type": "uint256"
        },
        {
          "internalType": "uint256",
          "name": "",
          "type": "uint256"
        }
      ],
      "name": "productBatches",
      "outputs": [
        {
          "internalType": "string",
          "name": "",
          "type": "string"
        }
      ],
      "stateMutability": "view",
      "type": "function"
    },
    {
      "inputs": [],
      "name": "productCount",
      "outputs": [
        {
          "internalType": "uint256",
          "name": "",
          "type": "uint256"
        }
      ],
      "stateMutability": "view",
      "type": "function"
    },
    {
      "inputs": [
        {
          "internalType": "uint256",
          "name": "",
          "type": "uint256"
        }
      ],
      "name": "products",
      "outputs": [
        {
          "internalType": "uint256",
          "name": "id",
          "type": "uint256"
        },
        {
          "internalType": "string",
          "name": "name",
          "type": "string"
        },
        {
          "internalType": "string",
          "name": "description",
          "type": "string"
        },
        {
          "internalType": "uint256",
          "name": "createdAt",
          "type": "uint256"
        }
      ],
      "stateMutability": "view",
      "type": "function"
    },
    {
      "inputs": [],
      "name": "regionCount",
      "outputs": [
        {
          "internalType": "uint256",
          "name": "",
          "type": "uint256"
        }
      ],
      "stateMutability": "view",
      "type": "function"
    },
    {
      "inputs": [
        {
          "internalType": "uint256",
          "name": "",
          "type": "uint256"
        }
      ],
      "name": "regions",
      "outputs": [
        {
          "internalType": "uint256",
          "name": "id",
          "type": "uint256"
        },
        {
          "internalType": "string",
          "name": "name",
          "type": "string"
        }
      ],
      "stateMutability": "view",
      "type": "function"
    },
    {
      "inputs": [],
      "name": "roleCount",
      "outputs": [
        {
          "internalType": "uint256",
          "name": "",
          "type": "uint256"
        }
      ],
      "stateMutability": "view",
      "type": "function"
    },
    {
      "inputs": [
        {
          "internalType": "uint256",
          "name": "",
          "type": "uint256"
        }
      ],
      "name": "roles",
      "outputs": [
        {
          "internalType": "uint256",
          "name": "id",
          "type": "uint256"
        },
        {
          "internalType": "string",
          "name": "name",
          "type": "string"
        }
      ],
      "stateMutability": "view",
      "type": "function"
    },
    {
      "inputs": [],
      "name": "userCount",
      "outputs": [
        {
          "internalType": "uint256",
          "name": "",
          "type": "uint256"
        }
      ],
      "stateMutability": "view",
      "type": "function"
    },
    {
      "inputs": [
        {
          "internalType": "address",
          "name": "",
          "type": "address"
        }
      ],
      "name": "users",
      "outputs": [
        {
          "internalType": "uint256",
          "name": "id",
          "type": "uint256"
        },
        {
          "internalType": "string",
          "name": "name",
          "type": "string"
        },
        {
          "internalType": "string",
          "name": "email",
          "type": "string"
        },
        {
          "internalType": "string",
          "name": "userAddress",
          "type": "string"
        },
        {
          "internalType": "string",
          "name": "dob",
          "type": "string"
        },
        {
          "internalType": "string",
          "name": "gender",
          "type": "string"
        },
        {
          "internalType": "uint256",
          "name": "roleId",
          "type": "uint256"
        },
        {
          "internalType": "uint256",
          "name": "regionId",
          "type": "uint256"
        },
        {
          "internalType": "uint256",
          "name": "createdAt",
          "type": "uint256"
        }
      ],
      "stateMutability": "view",
      "type": "function"
    }
  ],
  "bytecode": "0x60806040523480156200001157600080fd5b50604051620035b3380380620035b383398181016040528101906200003791906200009a565b808080600e60006101000a81548173ffffffffffffffffffffffffffffffffffffffff021916908373ffffffffffffffffffffffffffffffffffffffff16021790555050505062000114565b6000815190506200009481620000fa565b92915050565b600060208284031215620000ad57600080fd5b6000620000bd8482850162000083565b91505092915050565b6000620000d382620000da565b9050919050565b600073ffffffffffffffffffffffffffffffffffffffff82169050919050565b6200010581620000c6565b81146200011157600080fd5b50565b61348f80620001246000396000f3fe608060405234801561001057600080fd5b50600436106101e55760003560e01c8063927968141161010f578063bfbda98c116100a2578063cbcf2b2d11610071578063cbcf2b2d146105f1578063ddf963581461060d578063e0f6ef871461062b578063f44d397714610649576101e5565b8063bfbda98c1461056a578063bfda4a4914610586578063c74d3bc9146105b7578063ca2efb55146105d5576101e5565b8063a87430ba116100de578063a87430ba146104c6578063a8d2aa90146104fe578063b86958601461052e578063bd45b3971461054c576101e5565b80639279681414610454578063991a3c3a14610470578063a6304b921461048c578063a837a713146104aa576101e5565b806363da130f116101875780637ef1446a116101565780637ef1446a146103a057806381f1c3bc146103d557806387f2d297146104065780638afdd66914610422576101e5565b806363da130f146102f15780636ac52d8f1461030d5780636f77926b1461033d5780637acc0b201461036d576101e5565b80633660096b116101c35780633660096b146102555780633b13616b146102735780633e96e868146102a557806342146062146102c1576101e5565b806307973ccf146101ea578063132abfb614610208578063364a751014610239575b600080fd5b6101f261067d565b6040516101ff9190612ebf565b60405180910390f35b610222600480360381019061021d919061289f565b610683565b604051610230929190612eda565b60405180910390f35b610253600480360381019061024e919061299b565b61072f565b005b61025d6107db565b60405161026a9190612ebf565b60405180910390f35b61028d6004803603810190610288919061289f565b6107e1565b60405161029c93929190613152565b60405180910390f35b6102bf60048036038101906102ba919061261d565b61080b565b005b6102db60048036038101906102d6919061289f565b6108b6565b6040516102e89190612da5565b60405180910390f35b61030b6004803603810190610306919061291c565b610f02565b005b6103276004803603810190610322919061299b565b610ff7565b6040516103349190612dc7565b60405180910390f35b610357600480360381019061035291906125f4565b6110b0565b6040516103649190612e9d565b60405180910390f35b6103876004803603810190610382919061289f565b61140c565b6040516103979493929190612fff565b60405180910390f35b6103ba60048036038101906103b5919061261d565b61154c565b6040516103cc96959493929190612e27565b60405180910390f35b6103ef60048036038101906103ea919061289f565b611736565b6040516103fd929190612eda565b60405180910390f35b610420600480360381019061041b919061299b565b6117e2565b005b61043c6004803603810190610437919061289f565b61188e565b60405161044b93929190613152565b60405180910390f35b61046e600480360381019061046991906127e0565b6118b8565b005b61048a600480360381019061048591906128c8565b611a52565b005b610494611aa3565b6040516104a19190612ebf565b60405180910390f35b6104c460048036038101906104bf91906126ca565b611aa9565b005b6104e060048036038101906104db91906125f4565b611c47565b6040516104f599989796959493929190612f4f565b60405180910390f35b6105186004803603810190610513919061289f565b611f3d565b6040516105259190612d83565b60405180910390f35b610536612029565b6040516105439190612ebf565b60405180910390f35b61055461202f565b6040516105619190612ebf565b60405180910390f35b610584600480360381019061057f919061261d565b612035565b005b6105a0600480360381019061059b919061289f565b6120e1565b6040516105ae929190612eda565b60405180910390f35b6105bf61218d565b6040516105cc9190612ebf565b60405180910390f35b6105ef60048036038101906105ea919061265e565b612193565b005b61060b6004803603810190610606919061261d565b612275565b005b610615612321565b6040516106229190612ebf565b60405180910390f35b610633612327565b6040516106409190612ebf565b60405180910390f35b610663600480360381019061065e919061289f565b61232d565b6040516106749594939291906130f1565b60405180910390f35b60095481565b60066020528060005260406000206000915090508060000154908060010180546106ac90613312565b80601f01602080910402602001604051908101604052809291908181526020018280546106d890613312565b80156107255780601f106106fa57610100808354040283529160200191610725565b820191906000526020600020905b81548152906001019060200180831161070857829003601f168201915b5050505050905082565b6012600081548092919061074290613344565b919050555060405180606001604052806012548152602001838152602001828152506011600060125481526020019081526020016000206000820151816000015560208201518160010155604082015181600201559050507f3cde63bc32fbc83b47631d41ca0e3ef5918c917f7d880efdbe08b61e1c8cf44360125483836040516107cf93929190613152565b60405180910390a15050565b60035481565b60116020528060005260406000206000915090508060000154908060010154908060020154905083565b6001600081548092919061081e90613344565b919050555060405180604001604052806001548152602001828152506000806001548152602001908152602001600020600082015181600001556020820151816001019080519060200190610874929190612473565b509050507f8a8c6e5d817d6b4b89ece61a1307d0361795dbbf0ef54c2693409c669bf500a9600154826040516108ab929190612eda565b60405180910390a150565b606060008060095467ffffffffffffffff8111156108fd577f4e487b7100000000000000000000000000000000000000000000000000000000600052604160045260246000fd5b60405190808252806020026020018201604052801561092b5781602001602082028036833780820191505090505b5090506000805b6009548110156109e857856008600085848151811061097a577f4e487b7100000000000000000000000000000000000000000000000000000000600052603260045260246000fd5b602002602001015173ffffffffffffffffffffffffffffffffffffffff1673ffffffffffffffffffffffffffffffffffffffff1681526020019081526020016000206007015414156109d55783806109d190613344565b9450505b80806109e090613344565b915050610932565b5060008367ffffffffffffffff811115610a2b577f4e487b7100000000000000000000000000000000000000000000000000000000600052604160045260246000fd5b604051908082528060200260200182016040528015610a6457816020015b610a516124f9565b815260200190600190039081610a495790505b5090506000915060005b600954811015610ef5578660086000868481518110610ab6577f4e487b7100000000000000000000000000000000000000000000000000000000600052603260045260246000fd5b602002602001015173ffffffffffffffffffffffffffffffffffffffff1673ffffffffffffffffffffffffffffffffffffffff168152602001908152602001600020600701541415610ee25760086000858381518110610b3f577f4e487b7100000000000000000000000000000000000000000000000000000000600052603260045260246000fd5b602002602001015173ffffffffffffffffffffffffffffffffffffffff1673ffffffffffffffffffffffffffffffffffffffff1681526020019081526020016000206040518061012001604052908160008201548152602001600182018054610ba790613312565b80601f0160208091040260200160405190810160405280929190818152602001828054610bd390613312565b8015610c205780601f10610bf557610100808354040283529160200191610c20565b820191906000526020600020905b815481529060010190602001808311610c0357829003601f168201915b50505050508152602001600282018054610c3990613312565b80601f0160208091040260200160405190810160405280929190818152602001828054610c6590613312565b8015610cb25780601f10610c8757610100808354040283529160200191610cb2565b820191906000526020600020905b815481529060010190602001808311610c9557829003601f168201915b50505050508152602001600382018054610ccb90613312565b80601f0160208091040260200160405190810160405280929190818152602001828054610cf790613312565b8015610d445780601f10610d1957610100808354040283529160200191610d44565b820191906000526020600020905b815481529060010190602001808311610d2757829003601f168201915b50505050508152602001600482018054610d5d90613312565b80601f0160208091040260200160405190810160405280929190818152602001828054610d8990613312565b8015610dd65780601f10610dab57610100808354040283529160200191610dd6565b820191906000526020600020905b815481529060010190602001808311610db957829003601f168201915b50505050508152602001600582018054610def90613312565b80601f0160208091040260200160405190810160405280929190818152602001828054610e1b90613312565b8015610e685780601f10610e3d57610100808354040283529160200191610e68565b820191906000526020600020905b815481529060010190602001808311610e4b57829003601f168201915b505050505081526020016006820154815260200160078201548152602001600882015481525050828481518110610ec8577f4e487b7100000000000000000000000000000000000000000000000000000000600052603260045260246000fd5b60200260200101819052508280610ede90613344565b9350505b8080610eed90613344565b915050610a6e565b5080945050505050919050565b60056000815480929190610f1590613344565b91905055506040518060a0016040528060055481526020018481526020018381526020018281526020014281525060046000600554815260200190815260200160002060008201518160000155602082015181600101556040820151816002019080519060200190610f88929190612473565b506060820151816003019080519060200190610fa5929190612473565b50608082015181600401559050507f156a0c11537c299aff79360fa462da1d0cabeeadeecaf1f05c53e388f2830c0e600554848484604051610fea949392919061309e565b60405180910390a1505050565b600b602052816000526040600020818154811061101357600080fd5b9060005260206000200160009150915050805461102f90613312565b80601f016020809104026020016040519081016040528092919081815260200182805461105b90613312565b80156110a85780601f1061107d576101008083540402835291602001916110a8565b820191906000526020600020905b81548152906001019060200180831161108b57829003601f168201915b505050505081565b6110b86124f9565b600860008373ffffffffffffffffffffffffffffffffffffffff1673ffffffffffffffffffffffffffffffffffffffff168152602001908152602001600020604051806101200160405290816000820154815260200160018201805461111d90613312565b80601f016020809104026020016040519081016040528092919081815260200182805461114990613312565b80156111965780601f1061116b57610100808354040283529160200191611196565b820191906000526020600020905b81548152906001019060200180831161117957829003601f168201915b505050505081526020016002820180546111af90613312565b80601f01602080910402602001604051908101604052809291908181526020018280546111db90613312565b80156112285780601f106111fd57610100808354040283529160200191611228565b820191906000526020600020905b81548152906001019060200180831161120b57829003601f168201915b5050505050815260200160038201805461124190613312565b80601f016020809104026020016040519081016040528092919081815260200182805461126d90613312565b80156112ba5780601f1061128f576101008083540402835291602001916112ba565b820191906000526020600020905b81548152906001019060200180831161129d57829003601f168201915b505050505081526020016004820180546112d390613312565b80601f01602080910402602001604051908101604052809291908181526020018280546112ff90613312565b801561134c5780601f106113215761010080835404028352916020019161134c565b820191906000526020600020905b81548152906001019060200180831161132f57829003601f168201915b5050505050815260200160058201805461136590613312565b80601f016020809104026020016040519081016040528092919081815260200182805461139190613312565b80156113de5780601f106113b3576101008083540402835291602001916113de565b820191906000526020600020905b8154815290600101906020018083116113c157829003601f168201915b5050505050815260200160068201548152602001600782015481526020016008820154815250509050919050565b600a60205280600052604060002060009150905080600001549080600101805461143590613312565b80601f016020809104026020016040519081016040528092919081815260200182805461146190613312565b80156114ae5780601f10611483576101008083540402835291602001916114ae565b820191906000526020600020905b81548152906001019060200180831161149157829003601f168201915b5050505050908060020180546114c390613312565b80601f01602080910402602001604051908101604052809291908181526020018280546114ef90613312565b801561153c5780601f106115115761010080835404028352916020019161153c565b820191906000526020600020905b81548152906001019060200180831161151f57829003601f168201915b5050505050908060030154905084565b600d8180516020810182018051848252602083016020850120818352809550505050505060009150905080600001805461158590613312565b80601f01602080910402602001604051908101604052809291908181526020018280546115b190613312565b80156115fe5780601f106115d3576101008083540402835291602001916115fe565b820191906000526020600020905b8154815290600101906020018083116115e157829003601f168201915b50505050509080600101549080600201549080600301805461161f90613312565b80601f016020809104026020016040519081016040528092919081815260200182805461164b90613312565b80156116985780601f1061166d57610100808354040283529160200191611698565b820191906000526020600020905b81548152906001019060200180831161167b57829003601f168201915b5050505050908060040180546116ad90613312565b80601f01602080910402602001604051908101604052809291908181526020018280546116d990613312565b80156117265780601f106116fb57610100808354040283529160200191611726565b820191906000526020600020905b81548152906001019060200180831161170957829003601f168201915b5050505050908060050154905086565b600260205280600052604060002060009150905080600001549080600101805461175f90613312565b80601f016020809104026020016040519081016040528092919081815260200182805461178b90613312565b80156117d85780601f106117ad576101008083540402835291602001916117d8565b820191906000526020600020905b8154815290600101906020018083116117bb57829003601f168201915b5050505050905082565b601060008154809291906117f590613344565b91905055506040518060600160405280601054815260200183815260200182815250600f600060105481526020019081526020016000206000820151816000015560208201518160010155604082015181600201559050507fb646a94c0d82abc8a3462ce854d8118cd7fd08210c88beede586140c81827e42601054838360405161188293929190613152565b60405180910390a15050565b600f6020528060005260406000206000915090508060000154908060010154908060020154905083565b60006040518060c0016040528087815260200186815260200185815260200184815260200183815260200142815250905080600d876040516118fa9190612d6c565b90815260200160405180910390206000820151816000019080519060200190611924929190612473565b5060208201518160010155604082015181600201556060820151816003019080519060200190611955929190612473565b506080820151816004019080519060200190611972929190612473565b5060a08201518160050155905050600e60009054906101000a900473ffffffffffffffffffffffffffffffffffffffff1673ffffffffffffffffffffffffffffffffffffffff1663991a3c3a86886040518363ffffffff1660e01b81526004016119dd929190612eda565b600060405180830381600087803b1580156119f757600080fd5b505af1158015611a0b573d6000803e3d6000fd5b505050507f4d0cb973f6b46b3e44d83c8b26707101f256c9ff9d01430a6fdcf0427ffb57d0868686604051611a4293929190612de9565b60405180910390a1505050505050565b600b600083815260200190815260200160002081908060018154018082558091505060019003906000526020600020016000909190919091509080519060200190611a9e929190612473565b505050565b60125481565b60096000815480929190611abc90613344565b9190505550604051806101200160405280600954815260200188815260200187815260200186815260200185815260200184815260200183815260200182815260200142815250600860003373ffffffffffffffffffffffffffffffffffffffff1673ffffffffffffffffffffffffffffffffffffffff168152602001908152602001600020600082015181600001556020820151816001019080519060200190611b68929190612473565b506040820151816002019080519060200190611b85929190612473565b506060820151816003019080519060200190611ba2929190612473565b506080820151816004019080519060200190611bbf929190612473565b5060a0820151816005019080519060200190611bdc929190612473565b5060c0820151816006015560e0820151816007015561010082015181600801559050507feabcb8900cdae60d1603d8999fadc9a0c2926e0483c42b49a361e5f14617dc21600954888484604051611c369493929190613052565b60405180910390a150505050505050565b6008602052806000526040600020600091509050806000015490806001018054611c7090613312565b80601f0160208091040260200160405190810160405280929190818152602001828054611c9c90613312565b8015611ce95780601f10611cbe57610100808354040283529160200191611ce9565b820191906000526020600020905b815481529060010190602001808311611ccc57829003601f168201915b505050505090806002018054611cfe90613312565b80601f0160208091040260200160405190810160405280929190818152602001828054611d2a90613312565b8015611d775780601f10611d4c57610100808354040283529160200191611d77565b820191906000526020600020905b815481529060010190602001808311611d5a57829003601f168201915b505050505090806003018054611d8c90613312565b80601f0160208091040260200160405190810160405280929190818152602001828054611db890613312565b8015611e055780601f10611dda57610100808354040283529160200191611e05565b820191906000526020600020905b815481529060010190602001808311611de857829003601f168201915b505050505090806004018054611e1a90613312565b80601f0160208091040260200160405190810160405280929190818152602001828054611e4690613312565b8015611e935780601f10611e6857610100808354040283529160200191611e93565b820191906000526020600020905b815481529060010190602001808311611e7657829003601f168201915b505050505090806005018054611ea890613312565b80601f0160208091040260200160405190810160405280929190818152602001828054611ed490613312565b8015611f215780601f10611ef657610100808354040283529160200191611f21565b820191906000526020600020905b815481529060010190602001808311611f0457829003601f168201915b5050505050908060060154908060070154908060080154905089565b6060600b6000838152602001908152602001600020805480602002602001604051908101604052809291908181526020016000905b8282101561201e578382906000526020600020018054611f9190613312565b80601f0160208091040260200160405190810160405280929190818152602001828054611fbd90613312565b801561200a5780601f10611fdf5761010080835404028352916020019161200a565b820191906000526020600020905b815481529060010190602001808311611fed57829003601f168201915b505050505081526020019060010190611f72565b505050509050919050565b60075481565b60105481565b6007600081548092919061204890613344565b9190505550604051806040016040528060075481526020018281525060066000600754815260200190815260200160002060008201518160000155602082015181600101908051906020019061209f929190612473565b509050507f5ab5cc8942e6c98d124ada92b18633649af885d6b742c9c6f454f26a424d7616600754826040516120d6929190612eda565b60405180910390a150565b600060205280600052604060002060009150905080600001549080600101805461210a90613312565b80601f016020809104026020016040519081016040528092919081815260200182805461213690613312565b80156121835780601f1061215857610100808354040283529160200191612183565b820191906000526020600020905b81548152906001019060200180831161216657829003601f168201915b5050505050905082565b60055481565b600c60008154809291906121a690613344565b91905055506040518060800160405280600c54815260200183815260200182815260200142815250600a6000600c548152602001908152602001600020600082015181600001556020820151816001019080519060200190612209929190612473565b506040820151816002019080519060200190612226929190612473565b50606082015181600301559050507fb0b1b5b61bc0dbb800dfdecd756ac304fe33d3a63c2ac5dc419452555c99a829600c54838360405161226993929190612f0a565b60405180910390a15050565b6003600081548092919061228890613344565b919050555060405180604001604052806003548152602001828152506002600060035481526020019081526020016000206000820151816000015560208201518160010190805190602001906122df929190612473565b509050507fb91ab895bbcbd9b2fb90d1d65f6602da5d7a5da3fe95af5c112742c386fc03ff60035482604051612316929190612eda565b60405180910390a150565b60015481565b600c5481565b600460205280600052604060002060009150905080600001549080600101549080600201805461235c90613312565b80601f016020809104026020016040519081016040528092919081815260200182805461238890613312565b80156123d55780601f106123aa576101008083540402835291602001916123d5565b820191906000526020600020905b8154815290600101906020018083116123b857829003601f168201915b5050505050908060030180546123ea90613312565b80601f016020809104026020016040519081016040528092919081815260200182805461241690613312565b80156124635780601f1061243857610100808354040283529160200191612463565b820191906000526020600020905b81548152906001019060200180831161244657829003601f168201915b5050505050908060040154905085565b82805461247f90613312565b90600052602060002090601f0160209004810192826124a157600085556124e8565b82601f106124ba57805160ff19168380011785556124e8565b828001600101855582156124e8579182015b828111156124e75782518255916020019190600101906124cc565b5b5090506124f59190612545565b5090565b6040518061012001604052806000815260200160608152602001606081526020016060815260200160608152602001606081526020016000815260200160008152602001600081525090565b5b8082111561255e576000816000905550600101612546565b5090565b6000612575612570846131ba565b613189565b90508281526020810184848401111561258d57600080fd5b6125988482856132d0565b509392505050565b6000813590506125af8161342b565b92915050565b600082601f8301126125c657600080fd5b81356125d6848260208601612562565b91505092915050565b6000813590506125ee81613442565b92915050565b60006020828403121561260657600080fd5b6000612614848285016125a0565b91505092915050565b60006020828403121561262f57600080fd5b600082013567ffffffffffffffff81111561264957600080fd5b612655848285016125b5565b91505092915050565b6000806040838503121561267157600080fd5b600083013567ffffffffffffffff81111561268b57600080fd5b612697858286016125b5565b925050602083013567ffffffffffffffff8111156126b457600080fd5b6126c0858286016125b5565b9150509250929050565b600080600080600080600060e0888a0312156126e557600080fd5b600088013567ffffffffffffffff8111156126ff57600080fd5b61270b8a828b016125b5565b975050602088013567ffffffffffffffff81111561272857600080fd5b6127348a828b016125b5565b965050604088013567ffffffffffffffff81111561275157600080fd5b61275d8a828b016125b5565b955050606088013567ffffffffffffffff81111561277a57600080fd5b6127868a828b016125b5565b945050608088013567ffffffffffffffff8111156127a357600080fd5b6127af8a828b016125b5565b93505060a06127c08a828b016125df565b92505060c06127d18a828b016125df565b91505092959891949750929550565b600080600080600060a086880312156127f857600080fd5b600086013567ffffffffffffffff81111561281257600080fd5b61281e888289016125b5565b955050602061282f888289016125df565b9450506040612840888289016125df565b935050606086013567ffffffffffffffff81111561285d57600080fd5b612869888289016125b5565b925050608086013567ffffffffffffffff81111561288657600080fd5b612892888289016125b5565b9150509295509295909350565b6000602082840312156128b157600080fd5b60006128bf848285016125df565b91505092915050565b600080604083850312156128db57600080fd5b60006128e9858286016125df565b925050602083013567ffffffffffffffff81111561290657600080fd5b612912858286016125b5565b9150509250929050565b60008060006060848603121561293157600080fd5b600061293f868287016125df565b935050602084013567ffffffffffffffff81111561295c57600080fd5b612968868287016125b5565b925050604084013567ffffffffffffffff81111561298557600080fd5b612991868287016125b5565b9150509250925092565b600080604083850312156129ae57600080fd5b60006129bc858286016125df565b92505060206129cd858286016125df565b9150509250929050565b60006129e38383612ae9565b905092915050565b60006129f78383612b8c565b905092915050565b6000612a0a8261320a565b612a148185613245565b935083602082028501612a26856131ea565b8060005b85811015612a625784840389528151612a4385826129d7565b9450612a4e8361322b565b925060208a01995050600181019050612a2a565b50829750879550505050505092915050565b6000612a7f82613215565b612a898185613256565b935083602082028501612a9b856131fa565b8060005b85811015612ad75784840389528151612ab885826129eb565b9450612ac383613238565b925060208a01995050600181019050612a9f565b50829750879550505050505092915050565b6000612af482613220565b612afe8185613267565b9350612b0e8185602086016132df565b612b178161341a565b840191505092915050565b6000612b2d82613220565b612b378185613278565b9350612b478185602086016132df565b612b508161341a565b840191505092915050565b6000612b6682613220565b612b708185613289565b9350612b808185602086016132df565b80840191505092915050565b600061012083016000830151612ba56000860182612d4e565b5060208301518482036020860152612bbd8282612ae9565b91505060408301518482036040860152612bd78282612ae9565b91505060608301518482036060860152612bf18282612ae9565b91505060808301518482036080860152612c0b8282612ae9565b91505060a083015184820360a0860152612c258282612ae9565b91505060c0830151612c3a60c0860182612d4e565b5060e0830151612c4d60e0860182612d4e565b50610100830151612c62610100860182612d4e565b508091505092915050565b600061012083016000830151612c866000860182612d4e565b5060208301518482036020860152612c9e8282612ae9565b91505060408301518482036040860152612cb88282612ae9565b91505060608301518482036060860152612cd28282612ae9565b91505060808301518482036080860152612cec8282612ae9565b91505060a083015184820360a0860152612d068282612ae9565b91505060c0830151612d1b60c0860182612d4e565b5060e0830151612d2e60e0860182612d4e565b50610100830151612d43610100860182612d4e565b508091505092915050565b612d57816132c6565b82525050565b612d66816132c6565b82525050565b6000612d788284612b5b565b915081905092915050565b60006020820190508181036000830152612d9d81846129ff565b905092915050565b60006020820190508181036000830152612dbf8184612a74565b905092915050565b60006020820190508181036000830152612de18184612b22565b905092915050565b60006060820190508181036000830152612e038186612b22565b9050612e126020830185612d5d565b612e1f6040830184612d5d565b949350505050565b600060c0820190508181036000830152612e418189612b22565b9050612e506020830188612d5d565b612e5d6040830187612d5d565b8181036060830152612e6f8186612b22565b90508181036080830152612e838185612b22565b9050612e9260a0830184612d5d565b979650505050505050565b60006020820190508181036000830152612eb78184612c6d565b905092915050565b6000602082019050612ed46000830184612d5d565b92915050565b6000604082019050612eef6000830185612d5d565b8181036020830152612f018184612b22565b90509392505050565b6000606082019050612f1f6000830186612d5d565b8181036020830152612f318185612b22565b90508181036040830152612f458184612b22565b9050949350505050565b600061012082019050612f65600083018c612d5d565b8181036020830152612f77818b612b22565b90508181036040830152612f8b818a612b22565b90508181036060830152612f9f8189612b22565b90508181036080830152612fb38188612b22565b905081810360a0830152612fc78187612b22565b9050612fd660c0830186612d5d565b612fe360e0830185612d5d565b612ff1610100830184612d5d565b9a9950505050505050505050565b60006080820190506130146000830187612d5d565b81810360208301526130268186612b22565b9050818103604083015261303a8185612b22565b90506130496060830184612d5d565b95945050505050565b60006080820190506130676000830187612d5d565b81810360208301526130798186612b22565b90506130886040830185612d5d565b6130956060830184612d5d565b95945050505050565b60006080820190506130b36000830187612d5d565b6130c06020830186612d5d565b81810360408301526130d28185612b22565b905081810360608301526130e68184612b22565b905095945050505050565b600060a0820190506131066000830188612d5d565b6131136020830187612d5d565b81810360408301526131258186612b22565b905081810360608301526131398185612b22565b90506131486080830184612d5d565b9695505050505050565b60006060820190506131676000830186612d5d565b6131746020830185612d5d565b6131816040830184612d5d565b949350505050565b6000604051905081810181811067ffffffffffffffff821117156131b0576131af6133eb565b5b8060405250919050565b600067ffffffffffffffff8211156131d5576131d46133eb565b5b601f19601f8301169050602081019050919050565b6000819050602082019050919050565b6000819050602082019050919050565b600081519050919050565b600081519050919050565b600081519050919050565b6000602082019050919050565b6000602082019050919050565b600082825260208201905092915050565b600082825260208201905092915050565b600082825260208201905092915050565b600082825260208201905092915050565b600081905092915050565b600061329f826132a6565b9050919050565b600073ffffffffffffffffffffffffffffffffffffffff82169050919050565b6000819050919050565b82818337600083830152505050565b60005b838110156132fd5780820151818401526020810190506132e2565b8381111561330c576000848401525b50505050565b6000600282049050600182168061332a57607f821691505b6020821081141561333e5761333d6133bc565b5b50919050565b600061334f826132c6565b91507fffffffffffffffffffffffffffffffffffffffffffffffffffffffffffffffff8214156133825761338161338d565b5b600182019050919050565b7f4e487b7100000000000000000000000000000000000000000000000000000000600052601160045260246000fd5b7f4e487b7100000000000000000000000000000000000000000000000000000000600052602260045260246000fd5b7f4e487b7100000000000000000000000000000000000000000000000000000000600052604160045260246000fd5b6000601f19601f8301169050919050565b61343481613294565b811461343f57600080fd5b50565b61344b816132c6565b811461345657600080fd5b5056fea26469706673582212203a52721a4eb0570bb4943c884c52c8c633e90f9fd52b960d8b06cb7f57bdcdd064736f6c63430008000033",
  "immutableReferences": {},
  "source": "// SPDX-License-Identifier: MIT\r\npragma solidity ^0.8.0;\r\n\r\n// Import statements\r\nimport \"./roles/role.sol\";\r\nimport \"./roles/degree.sol\";\r\nimport \"./users/user.sol\";\r\nimport \"./products/product.sol\";\r\nimport \"./products/batch.sol\";\r\nimport \"./logs/activity.sol\";\r\nimport \"./region/region.sol\";\r\nimport \"./region/farmer.sol\";\r\nimport \"./region/inspector.sol\";\r\n// Contract declaration\r\n\r\ncontract RoleDegree is Role, Degree {\r\n    // Code for Role and Degree\r\n}\r\n\r\ncontract UserProductBatch is User, Product, Batch {\r\n    constructor(address _productContractAddress) Batch(_productContractAddress) {\r\n        // Additional initialization code if needed\r\n    }\r\n}\r\n\r\ncontract ActivityRegionFarmerInspector is ActivityLog, Region, Farmer, Inspector {\r\n    // Code for ActivityLog, Region, Farmer, and Inspector\r\n}\r\n\r\n// Main contract that combines the separated contracts\r\ncontract GrapefruitTraceability is RoleDegree, UserProductBatch, ActivityRegionFarmerInspector {\r\n    constructor(address _productContractAddress) UserProductBatch(_productContractAddress) {\r\n        // Additional initialization code if needed\r\n    }\r\n}",
  "sourcePath": "D:\\projects\\startup\\contracts\\application.sol",
  "compiler": {
    "name": "solc",
    "version": "0.8.0+commit.c7dfd78e.Emscripten.clang"
  },
  "schemaVersion": "3.4.16",
  "updatedAt": "2024-08-18T14:09:08.872Z",
  "networkType": "ethereum",
  "devdoc": {
    "kind": "dev",
    "methods": {},
    "version": 1
  },
  "userdoc": {
    "kind": "user",
    "methods": {},
    "version": 1
  }
}