{
  "contractName": "Inspector",
  "abi": [
    {
      "anonymous": false,
      "inputs": [
        {
          "indexed": false,
          "internalType": "uint256",
          "name": "id",
          "type": "uint256"
        },
        {
          "indexed": false,
          "internalType": "uint256",
          "name": "userId",
          "type": "uint256"
        },
        {
          "indexed": false,
          "internalType": "uint256",
          "name": "regionId",
          "type": "uint256"
        }
      ],
      "name": "InspectorAdded",
      "type": "event"
    },
    {
      "anonymous": false,
      "inputs": [
        {
          "indexed": false,
          "internalType": "uint256",
          "name": "id",
          "type": "uint256"
        },
        {
          "indexed": false,
          "internalType": "string",
          "name": "name",
          "type": "string"
        }
      ],
      "name": "RegionAdded",
      "type": "event"
    },
    {
      "anonymous": false,
      "inputs": [
        {
          "indexed": false,
          "internalType": "uint256",
          "name": "id",
          "type": "uint256"
        },
        {
          "indexed": false,
          "internalType": "string",
          "name": "name",
          "type": "string"
        },
        {
          "indexed": false,
          "internalType": "uint256",
          "name": "roleId",
          "type": "uint256"
        },
        {
          "indexed": false,
          "internalType": "uint256",
          "name": "regionId",
          "type": "uint256"
        }
      ],
      "name": "UserAdded",
      "type": "event"
    },
    {
      "inputs": [
        {
          "internalType": "string",
          "name": "_name",
          "type": "string"
        }
      ],
      "name": "addRegion",
      "outputs": [],
      "stateMutability": "nonpayable",
      "type": "function"
    },
    {
      "inputs": [
        {
          "internalType": "string",
          "name": "_name",
          "type": "string"
        },
        {
          "internalType": "string",
          "name": "_email",
          "type": "string"
        },
        {
          "internalType": "string",
          "name": "_userAddress",
          "type": "string"
        },
        {
          "internalType": "string",
          "name": "_dob",
          "type": "string"
        },
        {
          "internalType": "string",
          "name": "_gender",
          "type": "string"
        },
        {
          "internalType": "uint256",
          "name": "_roleId",
          "type": "uint256"
        },
        {
          "internalType": "uint256",
          "name": "_regionId",
          "type": "uint256"
        }
      ],
      "name": "addUser",
      "outputs": [],
      "stateMutability": "nonpayable",
      "type": "function"
    },
    {
      "inputs": [
        {
          "internalType": "address",
          "name": "_userAddress",
          "type": "address"
        }
      ],
      "name": "getUser",
      "outputs": [
        {
          "components": [
            {
              "internalType": "uint256",
              "name": "id",
              "type": "uint256"
            },
            {
              "internalType": "string",
              "name": "name",
              "type": "string"
            },
            {
              "internalType": "string",
              "name": "email",
              "type": "string"
            },
            {
              "internalType": "string",
              "name": "userAddress",
              "type": "string"
            },
            {
              "internalType": "string",
              "name": "dob",
              "type": "string"
            },
            {
              "internalType": "string",
              "name": "gender",
              "type": "string"
            },
            {
              "internalType": "uint256",
              "name": "roleId",
              "type": "uint256"
            },
            {
              "internalType": "uint256",
              "name": "regionId",
              "type": "uint256"
            },
            {
              "internalType": "uint256",
              "name": "createdAt",
              "type": "uint256"
            }
          ],
          "internalType": "struct User.UserStruct",
          "name": "",
          "type": "tuple"
        }
      ],
      "stateMutability": "view",
      "type": "function"
    },
    {
      "inputs": [
        {
          "internalType": "uint256",
          "name": "_regionId",
          "type": "uint256"
        }
      ],
      "name": "getUsersByRegion",
      "outputs": [
        {
          "components": [
            {
              "internalType": "uint256",
              "name": "id",
              "type": "uint256"
            },
            {
              "internalType": "string",
              "name": "name",
              "type": "string"
            },
            {
              "internalType": "string",
              "name": "email",
              "type": "string"
            },
            {
              "internalType": "string",
              "name": "userAddress",
              "type": "string"
            },
            {
              "internalType": "string",
              "name": "dob",
              "type": "string"
            },
            {
              "internalType": "string",
              "name": "gender",
              "type": "string"
            },
            {
              "internalType": "uint256",
              "name": "roleId",
              "type": "uint256"
            },
            {
              "internalType": "uint256",
              "name": "regionId",
              "type": "uint256"
            },
            {
              "internalType": "uint256",
              "name": "createdAt",
              "type": "uint256"
            }
          ],
          "internalType": "struct User.UserStruct[]",
          "name": "",
          "type": "tuple[]"
        }
      ],
      "stateMutability": "view",
      "type": "function"
    },
    {
      "inputs": [],
      "name": "inspectorCount",
      "outputs": [
        {
          "internalType": "uint256",
          "name": "",
          "type": "uint256"
        }
      ],
      "stateMutability": "view",
      "type": "function"
    },
    {
      "inputs": [
        {
          "internalType": "uint256",
          "name": "",
          "type": "uint256"
        }
      ],
      "name": "inspectors",
      "outputs": [
        {
          "internalType": "uint256",
          "name": "id",
          "type": "uint256"
        },
        {
          "internalType": "uint256",
          "name": "userId",
          "type": "uint256"
        },
        {
          "internalType": "uint256",
          "name": "regionId",
          "type": "uint256"
        }
      ],
      "stateMutability": "view",
      "type": "function"
    },
    {
      "inputs": [],
      "name": "regionCount",
      "outputs": [
        {
          "internalType": "uint256",
          "name": "",
          "type": "uint256"
        }
      ],
      "stateMutability": "view",
      "type": "function"
    },
    {
      "inputs": [
        {
          "internalType": "uint256",
          "name": "",
          "type": "uint256"
        }
      ],
      "name": "regions",
      "outputs": [
        {
          "internalType": "uint256",
          "name": "id",
          "type": "uint256"
        },
        {
          "internalType": "string",
          "name": "name",
          "type": "string"
        }
      ],
      "stateMutability": "view",
      "type": "function"
    },
    {
      "inputs": [],
      "name": "userCount",
      "outputs": [
        {
          "internalType": "uint256",
          "name": "",
          "type": "uint256"
        }
      ],
      "stateMutability": "view",
      "type": "function"
    },
    {
      "inputs": [
        {
          "internalType": "address",
          "name": "",
          "type": "address"
        }
      ],
      "name": "users",
      "outputs": [
        {
          "internalType": "uint256",
          "name": "id",
          "type": "uint256"
        },
        {
          "internalType": "string",
          "name": "name",
          "type": "string"
        },
        {
          "internalType": "string",
          "name": "email",
          "type": "string"
        },
        {
          "internalType": "string",
          "name": "userAddress",
          "type": "string"
        },
        {
          "internalType": "string",
          "name": "dob",
          "type": "string"
        },
        {
          "internalType": "string",
          "name": "gender",
          "type": "string"
        },
        {
          "internalType": "uint256",
          "name": "roleId",
          "type": "uint256"
        },
        {
          "internalType": "uint256",
          "name": "regionId",
          "type": "uint256"
        },
        {
          "internalType": "uint256",
          "name": "createdAt",
          "type": "uint256"
        }
      ],
      "stateMutability": "view",
      "type": "function"
    },
    {
      "inputs": [
        {
          "internalType": "uint256",
          "name": "_userId",
          "type": "uint256"
        },
        {
          "internalType": "uint256",
          "name": "_regionId",
          "type": "uint256"
        }
      ],
      "name": "addInspector",
      "outputs": [],
      "stateMutability": "nonpayable",
      "type": "function"
    }
  ],
  "bytecode": "0x608060405234801561001057600080fd5b50611d97806100206000396000f3fe608060405234801561001057600080fd5b50600436106100a95760003560e01c80636f77926b116100715780636f77926b1461017b578063a6304b92146101ab578063a837a713146101c9578063a87430ba146101e5578063b86958601461021d578063bfbda98c1461023b576100a9565b806307973ccf146100ae578063132abfb6146100cc578063364a7510146100fd5780633b13616b14610119578063421460621461014b575b600080fd5b6100b6610257565b6040516100c39190611957565b60405180910390f35b6100e660048036038101906100e191906115d3565b61025d565b6040516100f4929190611972565b60405180910390f35b610117600480360381019061011291906115fc565b610309565b005b610133600480360381019061012e91906115d3565b6103b5565b60405161014293929190611a9e565b60405180910390f35b610165600480360381019061016091906115d3565b6103df565b6040516101729190611913565b60405180910390f35b61019560048036038101906101909190611453565b610a2b565b6040516101a29190611935565b60405180910390f35b6101b3610d87565b6040516101c09190611957565b60405180910390f35b6101e360048036038101906101de91906114bd565b610d8d565b005b6101ff60048036038101906101fa9190611453565b610f2b565b604051610214999897969594939291906119a2565b60405180910390f35b610225611221565b6040516102329190611957565b60405180910390f35b6102556004803603810190610250919061147c565b611227565b005b60035481565b600060205280600052604060002060009150905080600001549080600101805461028690611c1a565b80601f01602080910402602001604051908101604052809291908181526020018280546102b290611c1a565b80156102ff5780601f106102d4576101008083540402835291602001916102ff565b820191906000526020600020905b8154815290600101906020018083116102e257829003601f168201915b5050505050905082565b6005600081548092919061031c90611c4c565b919050555060405180606001604052806005548152602001838152602001828152506004600060055481526020019081526020016000206000820151816000015560208201518160010155604082015181600201559050507f3cde63bc32fbc83b47631d41ca0e3ef5918c917f7d880efdbe08b61e1c8cf44360055483836040516103a993929190611a9e565b60405180910390a15050565b60046020528060005260406000206000915090508060000154908060010154908060020154905083565b606060008060035467ffffffffffffffff811115610426577f4e487b7100000000000000000000000000000000000000000000000000000000600052604160045260246000fd5b6040519080825280602002602001820160405280156104545781602001602082028036833780820191505090505b5090506000805b6003548110156105115785600260008584815181106104a3577f4e487b7100000000000000000000000000000000000000000000000000000000600052603260045260246000fd5b602002602001015173ffffffffffffffffffffffffffffffffffffffff1673ffffffffffffffffffffffffffffffffffffffff1681526020019081526020016000206007015414156104fe5783806104fa90611c4c565b9450505b808061050990611c4c565b91505061045b565b5060008367ffffffffffffffff811115610554577f4e487b7100000000000000000000000000000000000000000000000000000000600052604160045260246000fd5b60405190808252806020026020018201604052801561058d57816020015b61057a6112d2565b8152602001906001900390816105725790505b5090506000915060005b600354811015610a1e5786600260008684815181106105df577f4e487b7100000000000000000000000000000000000000000000000000000000600052603260045260246000fd5b602002602001015173ffffffffffffffffffffffffffffffffffffffff1673ffffffffffffffffffffffffffffffffffffffff168152602001908152602001600020600701541415610a0b5760026000858381518110610668577f4e487b7100000000000000000000000000000000000000000000000000000000600052603260045260246000fd5b602002602001015173ffffffffffffffffffffffffffffffffffffffff1673ffffffffffffffffffffffffffffffffffffffff16815260200190815260200160002060405180610120016040529081600082015481526020016001820180546106d090611c1a565b80601f01602080910402602001604051908101604052809291908181526020018280546106fc90611c1a565b80156107495780601f1061071e57610100808354040283529160200191610749565b820191906000526020600020905b81548152906001019060200180831161072c57829003601f168201915b5050505050815260200160028201805461076290611c1a565b80601f016020809104026020016040519081016040528092919081815260200182805461078e90611c1a565b80156107db5780601f106107b0576101008083540402835291602001916107db565b820191906000526020600020905b8154815290600101906020018083116107be57829003601f168201915b505050505081526020016003820180546107f490611c1a565b80601f016020809104026020016040519081016040528092919081815260200182805461082090611c1a565b801561086d5780601f106108425761010080835404028352916020019161086d565b820191906000526020600020905b81548152906001019060200180831161085057829003601f168201915b5050505050815260200160048201805461088690611c1a565b80601f01602080910402602001604051908101604052809291908181526020018280546108b290611c1a565b80156108ff5780601f106108d4576101008083540402835291602001916108ff565b820191906000526020600020905b8154815290600101906020018083116108e257829003601f168201915b5050505050815260200160058201805461091890611c1a565b80601f016020809104026020016040519081016040528092919081815260200182805461094490611c1a565b80156109915780601f1061096657610100808354040283529160200191610991565b820191906000526020600020905b81548152906001019060200180831161097457829003601f168201915b5050505050815260200160068201548152602001600782015481526020016008820154815250508284815181106109f1577f4e487b7100000000000000000000000000000000000000000000000000000000600052603260045260246000fd5b60200260200101819052508280610a0790611c4c565b9350505b8080610a1690611c4c565b915050610597565b5080945050505050919050565b610a336112d2565b600260008373ffffffffffffffffffffffffffffffffffffffff1673ffffffffffffffffffffffffffffffffffffffff1681526020019081526020016000206040518061012001604052908160008201548152602001600182018054610a9890611c1a565b80601f0160208091040260200160405190810160405280929190818152602001828054610ac490611c1a565b8015610b115780601f10610ae657610100808354040283529160200191610b11565b820191906000526020600020905b815481529060010190602001808311610af457829003601f168201915b50505050508152602001600282018054610b2a90611c1a565b80601f0160208091040260200160405190810160405280929190818152602001828054610b5690611c1a565b8015610ba35780601f10610b7857610100808354040283529160200191610ba3565b820191906000526020600020905b815481529060010190602001808311610b8657829003601f168201915b50505050508152602001600382018054610bbc90611c1a565b80601f0160208091040260200160405190810160405280929190818152602001828054610be890611c1a565b8015610c355780601f10610c0a57610100808354040283529160200191610c35565b820191906000526020600020905b815481529060010190602001808311610c1857829003601f168201915b50505050508152602001600482018054610c4e90611c1a565b80601f0160208091040260200160405190810160405280929190818152602001828054610c7a90611c1a565b8015610cc75780601f10610c9c57610100808354040283529160200191610cc7565b820191906000526020600020905b815481529060010190602001808311610caa57829003601f168201915b50505050508152602001600582018054610ce090611c1a565b80601f0160208091040260200160405190810160405280929190818152602001828054610d0c90611c1a565b8015610d595780601f10610d2e57610100808354040283529160200191610d59565b820191906000526020600020905b815481529060010190602001808311610d3c57829003601f168201915b5050505050815260200160068201548152602001600782015481526020016008820154815250509050919050565b60055481565b60036000815480929190610da090611c4c565b9190505550604051806101200160405280600354815260200188815260200187815260200186815260200185815260200184815260200183815260200182815260200142815250600260003373ffffffffffffffffffffffffffffffffffffffff1673ffffffffffffffffffffffffffffffffffffffff168152602001908152602001600020600082015181600001556020820151816001019080519060200190610e4c92919061131e565b506040820151816002019080519060200190610e6992919061131e565b506060820151816003019080519060200190610e8692919061131e565b506080820151816004019080519060200190610ea392919061131e565b5060a0820151816005019080519060200190610ec092919061131e565b5060c0820151816006015560e0820151816007015561010082015181600801559050507feabcb8900cdae60d1603d8999fadc9a0c2926e0483c42b49a361e5f14617dc21600354888484604051610f1a9493929190611a52565b60405180910390a150505050505050565b6002602052806000526040600020600091509050806000015490806001018054610f5490611c1a565b80601f0160208091040260200160405190810160405280929190818152602001828054610f8090611c1a565b8015610fcd5780601f10610fa257610100808354040283529160200191610fcd565b820191906000526020600020905b815481529060010190602001808311610fb057829003601f168201915b505050505090806002018054610fe290611c1a565b80601f016020809104026020016040519081016040528092919081815260200182805461100e90611c1a565b801561105b5780601f106110305761010080835404028352916020019161105b565b820191906000526020600020905b81548152906001019060200180831161103e57829003601f168201915b50505050509080600301805461107090611c1a565b80601f016020809104026020016040519081016040528092919081815260200182805461109c90611c1a565b80156110e95780601f106110be576101008083540402835291602001916110e9565b820191906000526020600020905b8154815290600101906020018083116110cc57829003601f168201915b5050505050908060040180546110fe90611c1a565b80601f016020809104026020016040519081016040528092919081815260200182805461112a90611c1a565b80156111775780601f1061114c57610100808354040283529160200191611177565b820191906000526020600020905b81548152906001019060200180831161115a57829003601f168201915b50505050509080600501805461118c90611c1a565b80601f01602080910402602001604051908101604052809291908181526020018280546111b890611c1a565b80156112055780601f106111da57610100808354040283529160200191611205565b820191906000526020600020905b8154815290600101906020018083116111e857829003601f168201915b5050505050908060060154908060070154908060080154905089565b60015481565b6001600081548092919061123a90611c4c565b91905055506040518060400160405280600154815260200182815250600080600154815260200190815260200160002060008201518160000155602082015181600101908051906020019061129092919061131e565b509050507f5ab5cc8942e6c98d124ada92b18633649af885d6b742c9c6f454f26a424d7616600154826040516112c7929190611972565b60405180910390a150565b6040518061012001604052806000815260200160608152602001606081526020016060815260200160608152602001606081526020016000815260200160008152602001600081525090565b82805461132a90611c1a565b90600052602060002090601f01602090048101928261134c5760008555611393565b82601f1061136557805160ff1916838001178555611393565b82800160010185558215611393579182015b82811115611392578251825591602001919060010190611377565b5b5090506113a091906113a4565b5090565b5b808211156113bd5760008160009055506001016113a5565b5090565b60006113d46113cf84611b06565b611ad5565b9050828152602081018484840111156113ec57600080fd5b6113f7848285611bd8565b509392505050565b60008135905061140e81611d33565b92915050565b600082601f83011261142557600080fd5b81356114358482602086016113c1565b91505092915050565b60008135905061144d81611d4a565b92915050565b60006020828403121561146557600080fd5b6000611473848285016113ff565b91505092915050565b60006020828403121561148e57600080fd5b600082013567ffffffffffffffff8111156114a857600080fd5b6114b484828501611414565b91505092915050565b600080600080600080600060e0888a0312156114d857600080fd5b600088013567ffffffffffffffff8111156114f257600080fd5b6114fe8a828b01611414565b975050602088013567ffffffffffffffff81111561151b57600080fd5b6115278a828b01611414565b965050604088013567ffffffffffffffff81111561154457600080fd5b6115508a828b01611414565b955050606088013567ffffffffffffffff81111561156d57600080fd5b6115798a828b01611414565b945050608088013567ffffffffffffffff81111561159657600080fd5b6115a28a828b01611414565b93505060a06115b38a828b0161143e565b92505060c06115c48a828b0161143e565b91505092959891949750929550565b6000602082840312156115e557600080fd5b60006115f38482850161143e565b91505092915050565b6000806040838503121561160f57600080fd5b600061161d8582860161143e565b925050602061162e8582860161143e565b9150509250929050565b60006116448383611733565b905092915050565b600061165782611b46565b6116618185611b69565b93508360208202850161167385611b36565b8060005b858110156116af57848403895281516116908582611638565b945061169b83611b5c565b925060208a01995050600181019050611677565b50829750879550505050505092915050565b60006116cc82611b51565b6116d68185611b7a565b93506116e6818560208601611be7565b6116ef81611d22565b840191505092915050565b600061170582611b51565b61170f8185611b8b565b935061171f818560208601611be7565b61172881611d22565b840191505092915050565b60006101208301600083015161174c60008601826118f5565b506020830151848203602086015261176482826116c1565b9150506040830151848203604086015261177e82826116c1565b9150506060830151848203606086015261179882826116c1565b915050608083015184820360808601526117b282826116c1565b91505060a083015184820360a08601526117cc82826116c1565b91505060c08301516117e160c08601826118f5565b5060e08301516117f460e08601826118f5565b506101008301516118096101008601826118f5565b508091505092915050565b60006101208301600083015161182d60008601826118f5565b506020830151848203602086015261184582826116c1565b9150506040830151848203604086015261185f82826116c1565b9150506060830151848203606086015261187982826116c1565b9150506080830151848203608086015261189382826116c1565b91505060a083015184820360a08601526118ad82826116c1565b91505060c08301516118c260c08601826118f5565b5060e08301516118d560e08601826118f5565b506101008301516118ea6101008601826118f5565b508091505092915050565b6118fe81611bce565b82525050565b61190d81611bce565b82525050565b6000602082019050818103600083015261192d818461164c565b905092915050565b6000602082019050818103600083015261194f8184611814565b905092915050565b600060208201905061196c6000830184611904565b92915050565b60006040820190506119876000830185611904565b818103602083015261199981846116fa565b90509392505050565b6000610120820190506119b8600083018c611904565b81810360208301526119ca818b6116fa565b905081810360408301526119de818a6116fa565b905081810360608301526119f281896116fa565b90508181036080830152611a0681886116fa565b905081810360a0830152611a1a81876116fa565b9050611a2960c0830186611904565b611a3660e0830185611904565b611a44610100830184611904565b9a9950505050505050505050565b6000608082019050611a676000830187611904565b8181036020830152611a7981866116fa565b9050611a886040830185611904565b611a956060830184611904565b95945050505050565b6000606082019050611ab36000830186611904565b611ac06020830185611904565b611acd6040830184611904565b949350505050565b6000604051905081810181811067ffffffffffffffff82111715611afc57611afb611cf3565b5b8060405250919050565b600067ffffffffffffffff821115611b2157611b20611cf3565b5b601f19601f8301169050602081019050919050565b6000819050602082019050919050565b600081519050919050565b600081519050919050565b6000602082019050919050565b600082825260208201905092915050565b600082825260208201905092915050565b600082825260208201905092915050565b6000611ba782611bae565b9050919050565b600073ffffffffffffffffffffffffffffffffffffffff82169050919050565b6000819050919050565b82818337600083830152505050565b60005b83811015611c05578082015181840152602081019050611bea565b83811115611c14576000848401525b50505050565b60006002820490506001821680611c3257607f821691505b60208210811415611c4657611c45611cc4565b5b50919050565b6000611c5782611bce565b91507fffffffffffffffffffffffffffffffffffffffffffffffffffffffffffffffff821415611c8a57611c89611c95565b5b600182019050919050565b7f4e487b7100000000000000000000000000000000000000000000000000000000600052601160045260246000fd5b7f4e487b7100000000000000000000000000000000000000000000000000000000600052602260045260246000fd5b7f4e487b7100000000000000000000000000000000000000000000000000000000600052604160045260246000fd5b6000601f19601f8301169050919050565b611d3c81611b9c565b8114611d4757600080fd5b50565b611d5381611bce565b8114611d5e57600080fd5b5056fea2646970667358221220ccfe366d3319bc099bc5590d06640ab8bed0d4482f95cfd0909150849665caff64736f6c63430008000033",
  "immutableReferences": {},
  "source": "// SPDX-License-Identifier: MIT\r\npragma solidity ^0.8.0;\r\n\r\nimport \"./region.sol\";\r\nimport \"../users/user.sol\";\r\n\r\ncontract Inspector is Region, User {\r\n    struct InspectorStruct {\r\n        uint256 id;\r\n        uint256 userId;\r\n        uint256 regionId;\r\n    }\r\n\r\n    mapping(uint256 => InspectorStruct) public inspectors;\r\n    uint256 public inspectorCount;\r\n\r\n    event InspectorAdded(uint256 id, uint256 userId, uint256 regionId);\r\n\r\n    function addInspector(uint256 _userId, uint256 _regionId) public {\r\n        inspectorCount++;\r\n        inspectors[inspectorCount] = InspectorStruct(inspectorCount, _userId, _regionId);\r\n        emit InspectorAdded(inspectorCount, _userId, _regionId);\r\n    }\r\n}",
  "sourcePath": "D:\\projects\\startup\\contracts\\region\\inspector.sol",
  "compiler": {
    "name": "solc",
    "version": "0.8.0+commit.c7dfd78e.Emscripten.clang"
  },
  "schemaVersion": "3.4.16",
  "updatedAt": "2024-08-18T14:09:04.796Z",
  "devdoc": {
    "kind": "dev",
    "methods": {},
    "version": 1
  },
  "userdoc": {
    "kind": "user",
    "methods": {},
    "version": 1
  }
}