{
  "contractName": "Inspector",
  "abi": [
    {
      "anonymous": false,
      "inputs": [
        {
          "indexed": false,
          "internalType": "uint256",
          "name": "id",
          "type": "uint256"
        },
        {
          "indexed": false,
          "internalType": "uint256",
          "name": "userId",
          "type": "uint256"
        },
        {
          "indexed": false,
          "internalType": "uint256",
          "name": "regionId",
          "type": "uint256"
        }
      ],
      "name": "InspectorAdded",
      "type": "event"
    },
    {
      "anonymous": false,
      "inputs": [
        {
          "indexed": false,
          "internalType": "uint256",
          "name": "id",
          "type": "uint256"
        },
        {
          "indexed": false,
          "internalType": "string",
          "name": "name",
          "type": "string"
        }
      ],
      "name": "RegionAdded",
      "type": "event"
    },
    {
      "anonymous": false,
      "inputs": [
        {
          "indexed": false,
          "internalType": "uint256",
          "name": "id",
          "type": "uint256"
        },
        {
          "indexed": false,
          "internalType": "string",
          "name": "name",
          "type": "string"
        },
        {
          "indexed": false,
          "internalType": "uint256",
          "name": "roleId",
          "type": "uint256"
        },
        {
          "indexed": false,
          "internalType": "uint256",
          "name": "regionId",
          "type": "uint256"
        }
      ],
      "name": "UserAdded",
      "type": "event"
    },
    {
      "inputs": [
        {
          "internalType": "string",
          "name": "_name",
          "type": "string"
        }
      ],
      "name": "addRegion",
      "outputs": [],
      "stateMutability": "nonpayable",
      "type": "function"
    },
    {
      "inputs": [
        {
          "internalType": "string",
          "name": "_name",
          "type": "string"
        },
        {
          "internalType": "string",
          "name": "_email",
          "type": "string"
        },
        {
          "internalType": "string",
          "name": "_userAddress",
          "type": "string"
        },
        {
          "internalType": "string",
          "name": "_dob",
          "type": "string"
        },
        {
          "internalType": "string",
          "name": "_gender",
          "type": "string"
        },
        {
          "internalType": "uint256",
          "name": "_roleId",
          "type": "uint256"
        },
        {
          "internalType": "uint256",
          "name": "_regionId",
          "type": "uint256"
        }
      ],
      "name": "addUser",
      "outputs": [],
      "stateMutability": "nonpayable",
      "type": "function"
    },
    {
      "inputs": [
        {
          "internalType": "address",
          "name": "_userAddress",
          "type": "address"
        }
      ],
      "name": "getUser",
      "outputs": [
        {
          "components": [
            {
              "internalType": "uint256",
              "name": "id",
              "type": "uint256"
            },
            {
              "internalType": "string",
              "name": "name",
              "type": "string"
            },
            {
              "internalType": "string",
              "name": "email",
              "type": "string"
            },
            {
              "internalType": "string",
              "name": "userAddress",
              "type": "string"
            },
            {
              "internalType": "string",
              "name": "dob",
              "type": "string"
            },
            {
              "internalType": "string",
              "name": "gender",
              "type": "string"
            },
            {
              "internalType": "uint256",
              "name": "roleId",
              "type": "uint256"
            },
            {
              "internalType": "uint256",
              "name": "regionId",
              "type": "uint256"
            },
            {
              "internalType": "uint256",
              "name": "createdAt",
              "type": "uint256"
            }
          ],
          "internalType": "struct User.UserStruct",
          "name": "",
          "type": "tuple"
        }
      ],
      "stateMutability": "view",
      "type": "function"
    },
    {
      "inputs": [
        {
          "internalType": "uint256",
          "name": "_regionId",
          "type": "uint256"
        }
      ],
      "name": "getUsersByRegion",
      "outputs": [
        {
          "components": [
            {
              "internalType": "uint256",
              "name": "id",
              "type": "uint256"
            },
            {
              "internalType": "string",
              "name": "name",
              "type": "string"
            },
            {
              "internalType": "string",
              "name": "email",
              "type": "string"
            },
            {
              "internalType": "string",
              "name": "userAddress",
              "type": "string"
            },
            {
              "internalType": "string",
              "name": "dob",
              "type": "string"
            },
            {
              "internalType": "string",
              "name": "gender",
              "type": "string"
            },
            {
              "internalType": "uint256",
              "name": "roleId",
              "type": "uint256"
            },
            {
              "internalType": "uint256",
              "name": "regionId",
              "type": "uint256"
            },
            {
              "internalType": "uint256",
              "name": "createdAt",
              "type": "uint256"
            }
          ],
          "internalType": "struct User.UserStruct[]",
          "name": "",
          "type": "tuple[]"
        }
      ],
      "stateMutability": "view",
      "type": "function"
    },
    {
      "inputs": [],
      "name": "inspectorCount",
      "outputs": [
        {
          "internalType": "uint256",
          "name": "",
          "type": "uint256"
        }
      ],
      "stateMutability": "view",
      "type": "function"
    },
    {
      "inputs": [
        {
          "internalType": "uint256",
          "name": "",
          "type": "uint256"
        }
      ],
      "name": "inspectors",
      "outputs": [
        {
          "internalType": "uint256",
          "name": "id",
          "type": "uint256"
        },
        {
          "internalType": "uint256",
          "name": "userId",
          "type": "uint256"
        },
        {
          "internalType": "uint256",
          "name": "regionId",
          "type": "uint256"
        }
      ],
      "stateMutability": "view",
      "type": "function"
    },
    {
      "inputs": [],
      "name": "regionCount",
      "outputs": [
        {
          "internalType": "uint256",
          "name": "",
          "type": "uint256"
        }
      ],
      "stateMutability": "view",
      "type": "function"
    },
    {
      "inputs": [
        {
          "internalType": "uint256",
          "name": "",
          "type": "uint256"
        }
      ],
      "name": "regions",
      "outputs": [
        {
          "internalType": "uint256",
          "name": "id",
          "type": "uint256"
        },
        {
          "internalType": "string",
          "name": "name",
          "type": "string"
        }
      ],
      "stateMutability": "view",
      "type": "function"
    },
    {
      "inputs": [
        {
          "internalType": "uint256",
          "name": "",
          "type": "uint256"
        }
      ],
      "name": "userAddresses",
      "outputs": [
        {
          "internalType": "address",
          "name": "",
          "type": "address"
        }
      ],
      "stateMutability": "view",
      "type": "function"
    },
    {
      "inputs": [],
      "name": "userCount",
      "outputs": [
        {
          "internalType": "uint256",
          "name": "",
          "type": "uint256"
        }
      ],
      "stateMutability": "view",
      "type": "function"
    },
    {
      "inputs": [
        {
          "internalType": "address",
          "name": "",
          "type": "address"
        }
      ],
      "name": "users",
      "outputs": [
        {
          "internalType": "uint256",
          "name": "id",
          "type": "uint256"
        },
        {
          "internalType": "string",
          "name": "name",
          "type": "string"
        },
        {
          "internalType": "string",
          "name": "email",
          "type": "string"
        },
        {
          "internalType": "string",
          "name": "userAddress",
          "type": "string"
        },
        {
          "internalType": "string",
          "name": "dob",
          "type": "string"
        },
        {
          "internalType": "string",
          "name": "gender",
          "type": "string"
        },
        {
          "internalType": "uint256",
          "name": "roleId",
          "type": "uint256"
        },
        {
          "internalType": "uint256",
          "name": "regionId",
          "type": "uint256"
        },
        {
          "internalType": "uint256",
          "name": "createdAt",
          "type": "uint256"
        }
      ],
      "stateMutability": "view",
      "type": "function"
    },
    {
      "inputs": [
        {
          "internalType": "uint256",
          "name": "_userId",
          "type": "uint256"
        },
        {
          "internalType": "uint256",
          "name": "_regionId",
          "type": "uint256"
        }
      ],
      "name": "addInspector",
      "outputs": [],
      "stateMutability": "nonpayable",
      "type": "function"
    }
  ],
  "bytecode": "0x608060405234801561001057600080fd5b50611e96806100206000396000f3fe608060405234801561001057600080fd5b50600436106100b45760003560e01c80636f77926b116100715780636f77926b146101b6578063a6304b92146101e6578063a837a71314610204578063a87430ba14610220578063b869586014610258578063bfbda98c14610276576100b4565b806307973ccf146100b9578063132abfb6146100d7578063364a7510146101085780633b13616b146101245780634214606214610156578063502c9bd514610186575b600080fd5b6100c1610292565b6040516100ce9190611a56565b60405180910390f35b6100f160048036038101906100ec91906116a8565b610298565b6040516100ff929190611a71565b60405180910390f35b610122600480360381019061011d91906116d1565b610344565b005b61013e600480360381019061013991906116a8565b6103f0565b60405161014d93929190611b9d565b60405180910390f35b610170600480360381019061016b91906116a8565b61041a565b60405161017d9190611a12565b60405180910390f35b6101a0600480360381019061019b91906116a8565b610a5e565b6040516101ad91906119f7565b60405180910390f35b6101d060048036038101906101cb9190611528565b610a9d565b6040516101dd9190611a34565b60405180910390f35b6101ee610df9565b6040516101fb9190611a56565b60405180910390f35b61021e60048036038101906102199190611592565b610dff565b005b61023a60048036038101906102359190611528565b611000565b60405161024f99989796959493929190611aa1565b60405180910390f35b6102606112f6565b60405161026d9190611a56565b60405180910390f35b610290600480360381019061028b9190611551565b6112fc565b005b60045481565b60006020528060005260406000206000915090508060000154908060010180546102c190611d19565b80601f01602080910402602001604051908101604052809291908181526020018280546102ed90611d19565b801561033a5780601f1061030f5761010080835404028352916020019161033a565b820191906000526020600020905b81548152906001019060200180831161031d57829003601f168201915b5050505050905082565b6006600081548092919061035790611d4b565b919050555060405180606001604052806006548152602001838152602001828152506005600060065481526020019081526020016000206000820151816000015560208201518160010155604082015181600201559050507f3cde63bc32fbc83b47631d41ca0e3ef5918c917f7d880efdbe08b61e1c8cf44360065483836040516103e493929190611b9d565b60405180910390a15050565b60056020528060005260406000206000915090508060000154908060010154908060020154905083565b60606000805b6003805490508110156104fd5783600260006003848154811061046c577f4e487b7100000000000000000000000000000000000000000000000000000000600052603260045260246000fd5b9060005260206000200160009054906101000a900473ffffffffffffffffffffffffffffffffffffffff1673ffffffffffffffffffffffffffffffffffffffff1673ffffffffffffffffffffffffffffffffffffffff1681526020019081526020016000206007015414156104ea5781806104e690611d4b565b9250505b80806104f590611d4b565b915050610420565b5060008167ffffffffffffffff811115610540577f4e487b7100000000000000000000000000000000000000000000000000000000600052604160045260246000fd5b60405190808252806020026020018201604052801561057957816020015b6105666113a7565b81526020019060019003908161055e5790505b5090506000805b600380549050811015610a52578560026000600384815481106105cc577f4e487b7100000000000000000000000000000000000000000000000000000000600052603260045260246000fd5b9060005260206000200160009054906101000a900473ffffffffffffffffffffffffffffffffffffffff1673ffffffffffffffffffffffffffffffffffffffff1673ffffffffffffffffffffffffffffffffffffffff168152602001908152602001600020600701541415610a3f576002600060038381548110610679577f4e487b7100000000000000000000000000000000000000000000000000000000600052603260045260246000fd5b9060005260206000200160009054906101000a900473ffffffffffffffffffffffffffffffffffffffff1673ffffffffffffffffffffffffffffffffffffffff1673ffffffffffffffffffffffffffffffffffffffff168152602001908152602001600020604051806101200160405290816000820154815260200160018201805461070490611d19565b80601f016020809104026020016040519081016040528092919081815260200182805461073090611d19565b801561077d5780601f106107525761010080835404028352916020019161077d565b820191906000526020600020905b81548152906001019060200180831161076057829003601f168201915b5050505050815260200160028201805461079690611d19565b80601f01602080910402602001604051908101604052809291908181526020018280546107c290611d19565b801561080f5780601f106107e45761010080835404028352916020019161080f565b820191906000526020600020905b8154815290600101906020018083116107f257829003601f168201915b5050505050815260200160038201805461082890611d19565b80601f016020809104026020016040519081016040528092919081815260200182805461085490611d19565b80156108a15780601f10610876576101008083540402835291602001916108a1565b820191906000526020600020905b81548152906001019060200180831161088457829003601f168201915b505050505081526020016004820180546108ba90611d19565b80601f01602080910402602001604051908101604052809291908181526020018280546108e690611d19565b80156109335780601f1061090857610100808354040283529160200191610933565b820191906000526020600020905b81548152906001019060200180831161091657829003601f168201915b5050505050815260200160058201805461094c90611d19565b80601f016020809104026020016040519081016040528092919081815260200182805461097890611d19565b80156109c55780601f1061099a576101008083540402835291602001916109c5565b820191906000526020600020905b8154815290600101906020018083116109a857829003601f168201915b505050505081526020016006820154815260200160078201548152602001600882015481525050838381518110610a25577f4e487b7100000000000000000000000000000000000000000000000000000000600052603260045260246000fd5b60200260200101819052508180610a3b90611d4b565b9250505b8080610a4a90611d4b565b915050610580565b50819350505050919050565b60038181548110610a6e57600080fd5b906000526020600020016000915054906101000a900473ffffffffffffffffffffffffffffffffffffffff1681565b610aa56113a7565b600260008373ffffffffffffffffffffffffffffffffffffffff1673ffffffffffffffffffffffffffffffffffffffff1681526020019081526020016000206040518061012001604052908160008201548152602001600182018054610b0a90611d19565b80601f0160208091040260200160405190810160405280929190818152602001828054610b3690611d19565b8015610b835780601f10610b5857610100808354040283529160200191610b83565b820191906000526020600020905b815481529060010190602001808311610b6657829003601f168201915b50505050508152602001600282018054610b9c90611d19565b80601f0160208091040260200160405190810160405280929190818152602001828054610bc890611d19565b8015610c155780601f10610bea57610100808354040283529160200191610c15565b820191906000526020600020905b815481529060010190602001808311610bf857829003601f168201915b50505050508152602001600382018054610c2e90611d19565b80601f0160208091040260200160405190810160405280929190818152602001828054610c5a90611d19565b8015610ca75780601f10610c7c57610100808354040283529160200191610ca7565b820191906000526020600020905b815481529060010190602001808311610c8a57829003601f168201915b50505050508152602001600482018054610cc090611d19565b80601f0160208091040260200160405190810160405280929190818152602001828054610cec90611d19565b8015610d395780601f10610d0e57610100808354040283529160200191610d39565b820191906000526020600020905b815481529060010190602001808311610d1c57829003601f168201915b50505050508152602001600582018054610d5290611d19565b80601f0160208091040260200160405190810160405280929190818152602001828054610d7e90611d19565b8015610dcb5780601f10610da057610100808354040283529160200191610dcb565b820191906000526020600020905b815481529060010190602001808311610dae57829003601f168201915b5050505050815260200160068201548152602001600782015481526020016008820154815250509050919050565b60065481565b60046000815480929190610e1290611d4b565b9190505550604051806101200160405280600454815260200188815260200187815260200186815260200185815260200184815260200183815260200182815260200142815250600260003373ffffffffffffffffffffffffffffffffffffffff1673ffffffffffffffffffffffffffffffffffffffff168152602001908152602001600020600082015181600001556020820151816001019080519060200190610ebe9291906113f3565b506040820151816002019080519060200190610edb9291906113f3565b506060820151816003019080519060200190610ef89291906113f3565b506080820151816004019080519060200190610f159291906113f3565b5060a0820151816005019080519060200190610f329291906113f3565b5060c0820151816006015560e0820151816007015561010082015181600801559050506003339080600181540180825580915050600190039060005260206000200160009091909190916101000a81548173ffffffffffffffffffffffffffffffffffffffff021916908373ffffffffffffffffffffffffffffffffffffffff1602179055507feabcb8900cdae60d1603d8999fadc9a0c2926e0483c42b49a361e5f14617dc21600454888484604051610fef9493929190611b51565b60405180910390a150505050505050565b600260205280600052604060002060009150905080600001549080600101805461102990611d19565b80601f016020809104026020016040519081016040528092919081815260200182805461105590611d19565b80156110a25780601f10611077576101008083540402835291602001916110a2565b820191906000526020600020905b81548152906001019060200180831161108557829003601f168201915b5050505050908060020180546110b790611d19565b80601f01602080910402602001604051908101604052809291908181526020018280546110e390611d19565b80156111305780601f1061110557610100808354040283529160200191611130565b820191906000526020600020905b81548152906001019060200180831161111357829003601f168201915b50505050509080600301805461114590611d19565b80601f016020809104026020016040519081016040528092919081815260200182805461117190611d19565b80156111be5780601f10611193576101008083540402835291602001916111be565b820191906000526020600020905b8154815290600101906020018083116111a157829003601f168201915b5050505050908060040180546111d390611d19565b80601f01602080910402602001604051908101604052809291908181526020018280546111ff90611d19565b801561124c5780601f106112215761010080835404028352916020019161124c565b820191906000526020600020905b81548152906001019060200180831161122f57829003601f168201915b50505050509080600501805461126190611d19565b80601f016020809104026020016040519081016040528092919081815260200182805461128d90611d19565b80156112da5780601f106112af576101008083540402835291602001916112da565b820191906000526020600020905b8154815290600101906020018083116112bd57829003601f168201915b5050505050908060060154908060070154908060080154905089565b60015481565b6001600081548092919061130f90611d4b565b9190505550604051806040016040528060015481526020018281525060008060015481526020019081526020016000206000820151816000015560208201518160010190805190602001906113659291906113f3565b509050507f5ab5cc8942e6c98d124ada92b18633649af885d6b742c9c6f454f26a424d76166001548260405161139c929190611a71565b60405180910390a150565b6040518061012001604052806000815260200160608152602001606081526020016060815260200160608152602001606081526020016000815260200160008152602001600081525090565b8280546113ff90611d19565b90600052602060002090601f0160209004810192826114215760008555611468565b82601f1061143a57805160ff1916838001178555611468565b82800160010185558215611468579182015b8281111561146757825182559160200191906001019061144c565b5b5090506114759190611479565b5090565b5b8082111561149257600081600090555060010161147a565b5090565b60006114a96114a484611c05565b611bd4565b9050828152602081018484840111156114c157600080fd5b6114cc848285611cd7565b509392505050565b6000813590506114e381611e32565b92915050565b600082601f8301126114fa57600080fd5b813561150a848260208601611496565b91505092915050565b60008135905061152281611e49565b92915050565b60006020828403121561153a57600080fd5b6000611548848285016114d4565b91505092915050565b60006020828403121561156357600080fd5b600082013567ffffffffffffffff81111561157d57600080fd5b611589848285016114e9565b91505092915050565b600080600080600080600060e0888a0312156115ad57600080fd5b600088013567ffffffffffffffff8111156115c757600080fd5b6115d38a828b016114e9565b975050602088013567ffffffffffffffff8111156115f057600080fd5b6115fc8a828b016114e9565b965050604088013567ffffffffffffffff81111561161957600080fd5b6116258a828b016114e9565b955050606088013567ffffffffffffffff81111561164257600080fd5b61164e8a828b016114e9565b945050608088013567ffffffffffffffff81111561166b57600080fd5b6116778a828b016114e9565b93505060a06116888a828b01611513565b92505060c06116998a828b01611513565b91505092959891949750929550565b6000602082840312156116ba57600080fd5b60006116c884828501611513565b91505092915050565b600080604083850312156116e457600080fd5b60006116f285828601611513565b925050602061170385828601611513565b9150509250929050565b60006117198383611817565b905092915050565b61172a81611c9b565b82525050565b600061173b82611c45565b6117458185611c68565b93508360208202850161175785611c35565b8060005b858110156117935784840389528151611774858261170d565b945061177f83611c5b565b925060208a0199505060018101905061175b565b50829750879550505050505092915050565b60006117b082611c50565b6117ba8185611c79565b93506117ca818560208601611ce6565b6117d381611e21565b840191505092915050565b60006117e982611c50565b6117f38185611c8a565b9350611803818560208601611ce6565b61180c81611e21565b840191505092915050565b60006101208301600083015161183060008601826119d9565b506020830151848203602086015261184882826117a5565b9150506040830151848203604086015261186282826117a5565b9150506060830151848203606086015261187c82826117a5565b9150506080830151848203608086015261189682826117a5565b91505060a083015184820360a08601526118b082826117a5565b91505060c08301516118c560c08601826119d9565b5060e08301516118d860e08601826119d9565b506101008301516118ed6101008601826119d9565b508091505092915050565b60006101208301600083015161191160008601826119d9565b506020830151848203602086015261192982826117a5565b9150506040830151848203604086015261194382826117a5565b9150506060830151848203606086015261195d82826117a5565b9150506080830151848203608086015261197782826117a5565b91505060a083015184820360a086015261199182826117a5565b91505060c08301516119a660c08601826119d9565b5060e08301516119b960e08601826119d9565b506101008301516119ce6101008601826119d9565b508091505092915050565b6119e281611ccd565b82525050565b6119f181611ccd565b82525050565b6000602082019050611a0c6000830184611721565b92915050565b60006020820190508181036000830152611a2c8184611730565b905092915050565b60006020820190508181036000830152611a4e81846118f8565b905092915050565b6000602082019050611a6b60008301846119e8565b92915050565b6000604082019050611a8660008301856119e8565b8181036020830152611a9881846117de565b90509392505050565b600061012082019050611ab7600083018c6119e8565b8181036020830152611ac9818b6117de565b90508181036040830152611add818a6117de565b90508181036060830152611af181896117de565b90508181036080830152611b0581886117de565b905081810360a0830152611b1981876117de565b9050611b2860c08301866119e8565b611b3560e08301856119e8565b611b436101008301846119e8565b9a9950505050505050505050565b6000608082019050611b6660008301876119e8565b8181036020830152611b7881866117de565b9050611b8760408301856119e8565b611b9460608301846119e8565b95945050505050565b6000606082019050611bb260008301866119e8565b611bbf60208301856119e8565b611bcc60408301846119e8565b949350505050565b6000604051905081810181811067ffffffffffffffff82111715611bfb57611bfa611df2565b5b8060405250919050565b600067ffffffffffffffff821115611c2057611c1f611df2565b5b601f19601f8301169050602081019050919050565b6000819050602082019050919050565b600081519050919050565b600081519050919050565b6000602082019050919050565b600082825260208201905092915050565b600082825260208201905092915050565b600082825260208201905092915050565b6000611ca682611cad565b9050919050565b600073ffffffffffffffffffffffffffffffffffffffff82169050919050565b6000819050919050565b82818337600083830152505050565b60005b83811015611d04578082015181840152602081019050611ce9565b83811115611d13576000848401525b50505050565b60006002820490506001821680611d3157607f821691505b60208210811415611d4557611d44611dc3565b5b50919050565b6000611d5682611ccd565b91507fffffffffffffffffffffffffffffffffffffffffffffffffffffffffffffffff821415611d8957611d88611d94565b5b600182019050919050565b7f4e487b7100000000000000000000000000000000000000000000000000000000600052601160045260246000fd5b7f4e487b7100000000000000000000000000000000000000000000000000000000600052602260045260246000fd5b7f4e487b7100000000000000000000000000000000000000000000000000000000600052604160045260246000fd5b6000601f19601f8301169050919050565b611e3b81611c9b565b8114611e4657600080fd5b50565b611e5281611ccd565b8114611e5d57600080fd5b5056fea264697066735822122041faab037217b73a814a93ed4956544239b434ff3b79fec38c0bc693b64cb14664736f6c63430008000033",
  "immutableReferences": {},
  "source": "// SPDX-License-Identifier: MIT\r\npragma solidity ^0.8.0;\r\n\r\nimport \"./region.sol\";\r\nimport \"../users/user.sol\";\r\n\r\ncontract Inspector is Region, User {\r\n    struct InspectorStruct {\r\n        uint256 id;\r\n        uint256 userId;\r\n        uint256 regionId;\r\n    }\r\n\r\n    mapping(uint256 => InspectorStruct) public inspectors;\r\n    uint256 public inspectorCount;\r\n\r\n    event InspectorAdded(uint256 id, uint256 userId, uint256 regionId);\r\n\r\n    function addInspector(uint256 _userId, uint256 _regionId) public {\r\n        inspectorCount++;\r\n        inspectors[inspectorCount] = InspectorStruct(inspectorCount, _userId, _regionId);\r\n        emit InspectorAdded(inspectorCount, _userId, _regionId);\r\n    }\r\n}",
  "sourcePath": "D:\\projects\\startup\\contracts\\region\\inspector.sol",
  "compiler": {
    "name": "solc",
    "version": "0.8.0+commit.c7dfd78e.Emscripten.clang"
  },
  "schemaVersion": "3.4.16",
  "updatedAt": "2024-08-19T13:20:24.466Z",
  "devdoc": {
    "kind": "dev",
    "methods": {},
    "version": 1
  },
  "userdoc": {
    "kind": "user",
    "methods": {},
    "version": 1
  }
}