{
  "contractName": "Product",
  "abi": [
    {
      "anonymous": false,
      "inputs": [
        {
          "indexed": false,
          "internalType": "uint256",
          "name": "id",
          "type": "uint256"
        },
        {
          "indexed": false,
          "internalType": "string",
          "name": "name",
          "type": "string"
        },
        {
          "indexed": false,
          "internalType": "string",
          "name": "description",
          "type": "string"
        }
      ],
      "name": "ProductAdded",
      "type": "event"
    },
    {
      "inputs": [
        {
          "internalType": "uint256",
          "name": "",
          "type": "uint256"
        },
        {
          "internalType": "uint256",
          "name": "",
          "type": "uint256"
        }
      ],
      "name": "productBatches",
      "outputs": [
        {
          "internalType": "string",
          "name": "",
          "type": "string"
        }
      ],
      "stateMutability": "view",
      "type": "function",
      "constant": true
    },
    {
      "inputs": [],
      "name": "productCount",
      "outputs": [
        {
          "internalType": "uint256",
          "name": "",
          "type": "uint256"
        }
      ],
      "stateMutability": "view",
      "type": "function",
      "constant": true
    },
    {
      "inputs": [
        {
          "internalType": "uint256",
          "name": "",
          "type": "uint256"
        }
      ],
      "name": "products",
      "outputs": [
        {
          "internalType": "uint256",
          "name": "id",
          "type": "uint256"
        },
        {
          "internalType": "string",
          "name": "name",
          "type": "string"
        },
        {
          "internalType": "string",
          "name": "description",
          "type": "string"
        },
        {
          "internalType": "uint256",
          "name": "createdAt",
          "type": "uint256"
        }
      ],
      "stateMutability": "view",
      "type": "function",
      "constant": true
    },
    {
      "inputs": [
        {
          "internalType": "string",
          "name": "_name",
          "type": "string"
        },
        {
          "internalType": "string",
          "name": "_description",
          "type": "string"
        }
      ],
      "name": "addProduct",
      "outputs": [],
      "stateMutability": "nonpayable",
      "type": "function"
    },
    {
      "inputs": [
        {
          "internalType": "uint256",
          "name": "_productId",
          "type": "uint256"
        },
        {
          "internalType": "string",
          "name": "_batchCode",
          "type": "string"
        }
      ],
      "name": "addBatchToProduct",
      "outputs": [],
      "stateMutability": "nonpayable",
      "type": "function"
    },
    {
      "inputs": [
        {
          "internalType": "uint256",
          "name": "_productId",
          "type": "uint256"
        }
      ],
      "name": "getBatchesByProduct",
      "outputs": [
        {
          "internalType": "string[]",
          "name": "",
          "type": "string[]"
        }
      ],
      "stateMutability": "view",
      "type": "function",
      "constant": true
    }
  ],
  "bytecode": "0x608060405234801561001057600080fd5b50610c2c806100206000396000f3fe608060405234801561001057600080fd5b50600436106100625760003560e01c80636ac52d8f146100675780637acc0b2014610097578063991a3c3a146100ca578063a8d2aa90146100e6578063ca2efb5514610116578063e0f6ef8714610132575b600080fd5b610081600480360381019061007c9190610776565b610150565b60405161008e91906108de565b60405180910390f35b6100b160048036038101906100ac91906106f9565b610209565b6040516100c19493929190610960565b60405180910390f35b6100e460048036038101906100df9190610722565b610349565b005b61010060048036038101906100fb91906106f9565b61039a565b60405161010d91906108bc565b60405180910390f35b610130600480360381019061012b919061068d565b610486565b005b61013a610567565b6040516101479190610900565b60405180910390f35b6001602052816000526040600020818154811061016c57600080fd5b9060005260206000200160009150915050805461018890610ac6565b80601f01602080910402602001604051908101604052809291908181526020018280546101b490610ac6565b80156102015780601f106101d657610100808354040283529160200191610201565b820191906000526020600020905b8154815290600101906020018083116101e457829003601f168201915b505050505081565b600060205280600052604060002060009150905080600001549080600101805461023290610ac6565b80601f016020809104026020016040519081016040528092919081815260200182805461025e90610ac6565b80156102ab5780601f10610280576101008083540402835291602001916102ab565b820191906000526020600020905b81548152906001019060200180831161028e57829003601f168201915b5050505050908060020180546102c090610ac6565b80601f01602080910402602001604051908101604052809291908181526020018280546102ec90610ac6565b80156103395780601f1061030e57610100808354040283529160200191610339565b820191906000526020600020905b81548152906001019060200180831161031c57829003601f168201915b5050505050908060030154905084565b600160008381526020019081526020016000208190806001815401808255809150506001900390600052602060002001600090919091909150908051906020019061039592919061056d565b505050565b606060016000838152602001908152602001600020805480602002602001604051908101604052809291908181526020016000905b8282101561047b5783829060005260206000200180546103ee90610ac6565b80601f016020809104026020016040519081016040528092919081815260200182805461041a90610ac6565b80156104675780601f1061043c57610100808354040283529160200191610467565b820191906000526020600020905b81548152906001019060200180831161044a57829003601f168201915b5050505050815260200190600101906103cf565b505050509050919050565b6002600081548092919061049990610af8565b9190505550604051806080016040528060025481526020018381526020018281526020014281525060008060025481526020019081526020016000206000820151816000015560208201518160010190805190602001906104fb92919061056d565b50604082015181600201908051906020019061051892919061056d565b50606082015181600301559050507fb0b1b5b61bc0dbb800dfdecd756ac304fe33d3a63c2ac5dc419452555c99a829600254838360405161055b9392919061091b565b60405180910390a15050565b60025481565b82805461057990610ac6565b90600052602060002090601f01602090048101928261059b57600085556105e2565b82601f106105b457805160ff19168380011785556105e2565b828001600101855582156105e2579182015b828111156105e15782518255916020019190600101906105c6565b5b5090506105ef91906105f3565b5090565b5b8082111561060c5760008160009055506001016105f4565b5090565b600061062361061e846109e4565b6109b3565b90508281526020810184848401111561063b57600080fd5b610646848285610a84565b509392505050565b600082601f83011261065f57600080fd5b813561066f848260208601610610565b91505092915050565b60008135905061068781610bdf565b92915050565b600080604083850312156106a057600080fd5b600083013567ffffffffffffffff8111156106ba57600080fd5b6106c68582860161064e565b925050602083013567ffffffffffffffff8111156106e357600080fd5b6106ef8582860161064e565b9150509250929050565b60006020828403121561070b57600080fd5b600061071984828501610678565b91505092915050565b6000806040838503121561073557600080fd5b600061074385828601610678565b925050602083013567ffffffffffffffff81111561076057600080fd5b61076c8582860161064e565b9150509250929050565b6000806040838503121561078957600080fd5b600061079785828601610678565b92505060206107a885828601610678565b9150509250929050565b60006107be838361083b565b905092915050565b60006107d182610a24565b6107db8185610a47565b9350836020820285016107ed85610a14565b8060005b85811015610829578484038952815161080a85826107b2565b945061081583610a3a565b925060208a019950506001810190506107f1565b50829750879550505050505092915050565b600061084682610a2f565b6108508185610a58565b9350610860818560208601610a93565b61086981610bce565b840191505092915050565b600061087f82610a2f565b6108898185610a69565b9350610899818560208601610a93565b6108a281610bce565b840191505092915050565b6108b681610a7a565b82525050565b600060208201905081810360008301526108d681846107c6565b905092915050565b600060208201905081810360008301526108f88184610874565b905092915050565b600060208201905061091560008301846108ad565b92915050565b600060608201905061093060008301866108ad565b81810360208301526109428185610874565b905081810360408301526109568184610874565b9050949350505050565b600060808201905061097560008301876108ad565b81810360208301526109878186610874565b9050818103604083015261099b8185610874565b90506109aa60608301846108ad565b95945050505050565b6000604051905081810181811067ffffffffffffffff821117156109da576109d9610b9f565b5b8060405250919050565b600067ffffffffffffffff8211156109ff576109fe610b9f565b5b601f19601f8301169050602081019050919050565b6000819050602082019050919050565b600081519050919050565b600081519050919050565b6000602082019050919050565b600082825260208201905092915050565b600082825260208201905092915050565b600082825260208201905092915050565b6000819050919050565b82818337600083830152505050565b60005b83811015610ab1578082015181840152602081019050610a96565b83811115610ac0576000848401525b50505050565b60006002820490506001821680610ade57607f821691505b60208210811415610af257610af1610b70565b5b50919050565b6000610b0382610a7a565b91507fffffffffffffffffffffffffffffffffffffffffffffffffffffffffffffffff821415610b3657610b35610b41565b5b600182019050919050565b7f4e487b7100000000000000000000000000000000000000000000000000000000600052601160045260246000fd5b7f4e487b7100000000000000000000000000000000000000000000000000000000600052602260045260246000fd5b7f4e487b7100000000000000000000000000000000000000000000000000000000600052604160045260246000fd5b6000601f19601f8301169050919050565b610be881610a7a565b8114610bf357600080fd5b5056fea2646970667358221220792465de737a6c3a24db2033d10fc3b180b933f5dbf7876e946f3379ef6bfe4064736f6c63430008000033",
  "immutableReferences": {},
  "source": "// SPDX-License-Identifier: MIT\r\npragma solidity ^0.8.0;\r\n\r\ncontract Product {\r\n    struct ProductStruct {\r\n        uint256 id;\r\n        string name;\r\n        string description;\r\n        uint256 createdAt;\r\n    }\r\n\r\n    mapping(uint256 => ProductStruct) public products;\r\n    mapping(uint256 => string[]) public productBatches; // Mapping t productId n danh sch m l hng\r\n\r\n    uint256 public productCount;\r\n\r\n    event ProductAdded(uint256 id, string name, string description);\r\n\r\n    function addProduct(string memory _name, string memory _description) public {\r\n        productCount++;\r\n        products[productCount] = ProductStruct({\r\n            id: productCount,\r\n            name: _name,\r\n            description: _description,\r\n            createdAt: block.timestamp\r\n        });\r\n\r\n        emit ProductAdded(productCount, _name, _description);\r\n    }\r\n\r\n    function addBatchToProduct(uint256 _productId, string memory _batchCode) public {\r\n        productBatches[_productId].push(_batchCode);\r\n    }\r\n\r\n    function getBatchesByProduct(uint256 _productId) public view returns (string[] memory) {\r\n        return productBatches[_productId];\r\n    }\r\n}",
  "sourcePath": "D:\\projects\\startup\\contracts\\products\\product.sol",
  "compiler": {
    "name": "solc",
    "version": "0.8.0+commit.c7dfd78e.Emscripten.clang"
  },
  "schemaVersion": "3.4.16",
  "updatedAt": "2024-08-18T14:09:08.857Z",
  "networkType": "ethereum",
  "devdoc": {
    "kind": "dev",
    "methods": {},
    "version": 1
  },
  "userdoc": {
    "kind": "user",
    "methods": {},
    "version": 1
  }
}