{
  "contractName": "Region",
  "abi": [
    {
      "anonymous": false,
      "inputs": [
        {
          "indexed": false,
          "internalType": "uint256",
          "name": "id",
          "type": "uint256"
        },
        {
          "indexed": false,
          "internalType": "string",
          "name": "name",
          "type": "string"
        }
      ],
      "name": "RegionAdded",
      "type": "event"
    },
    {
      "inputs": [],
      "name": "regionCount",
      "outputs": [
        {
          "internalType": "uint256",
          "name": "",
          "type": "uint256"
        }
      ],
      "stateMutability": "view",
      "type": "function"
    },
    {
      "inputs": [
        {
          "internalType": "uint256",
          "name": "",
          "type": "uint256"
        }
      ],
      "name": "regions",
      "outputs": [
        {
          "internalType": "uint256",
          "name": "id",
          "type": "uint256"
        },
        {
          "internalType": "string",
          "name": "name",
          "type": "string"
        }
      ],
      "stateMutability": "view",
      "type": "function"
    },
    {
      "inputs": [
        {
          "internalType": "string",
          "name": "_name",
          "type": "string"
        }
      ],
      "name": "addRegion",
      "outputs": [],
      "stateMutability": "nonpayable",
      "type": "function"
    }
  ],
  "bytecode": "0x608060405234801561001057600080fd5b5061065a806100206000396000f3fe608060405234801561001057600080fd5b50600436106100415760003560e01c8063132abfb614610046578063b869586014610077578063bfbda98c14610095575b600080fd5b610060600480360381019061005b919061036f565b6100b1565b60405161006e9291906103fb565b60405180910390f35b61007f61015d565b60405161008c91906103e0565b60405180910390f35b6100af60048036038101906100aa919061032e565b610163565b005b60006020528060005260406000206000915090508060000154908060010180546100da906104f4565b80601f0160208091040260200160405190810160405280929190818152602001828054610106906104f4565b80156101535780601f1061012857610100808354040283529160200191610153565b820191906000526020600020905b81548152906001019060200180831161013657829003601f168201915b5050505050905082565b60015481565b6001600081548092919061017690610526565b9190505550604051806040016040528060015481526020018281525060008060015481526020019081526020016000206000820151816000015560208201518160010190805190602001906101cc92919061020e565b509050507f5ab5cc8942e6c98d124ada92b18633649af885d6b742c9c6f454f26a424d7616600154826040516102039291906103fb565b60405180910390a150565b82805461021a906104f4565b90600052602060002090601f01602090048101928261023c5760008555610283565b82601f1061025557805160ff1916838001178555610283565b82800160010185558215610283579182015b82811115610282578251825591602001919060010190610267565b5b5090506102909190610294565b5090565b5b808211156102ad576000816000905550600101610295565b5090565b60006102c46102bf8461045c565b61042b565b9050828152602081018484840111156102dc57600080fd5b6102e78482856104b2565b509392505050565b600082601f83011261030057600080fd5b81356103108482602086016102b1565b91505092915050565b6000813590506103288161060d565b92915050565b60006020828403121561034057600080fd5b600082013567ffffffffffffffff81111561035a57600080fd5b610366848285016102ef565b91505092915050565b60006020828403121561038157600080fd5b600061038f84828501610319565b91505092915050565b60006103a38261048c565b6103ad8185610497565b93506103bd8185602086016104c1565b6103c6816105fc565b840191505092915050565b6103da816104a8565b82525050565b60006020820190506103f560008301846103d1565b92915050565b600060408201905061041060008301856103d1565b81810360208301526104228184610398565b90509392505050565b6000604051905081810181811067ffffffffffffffff82111715610452576104516105cd565b5b8060405250919050565b600067ffffffffffffffff821115610477576104766105cd565b5b601f19601f8301169050602081019050919050565b600081519050919050565b600082825260208201905092915050565b6000819050919050565b82818337600083830152505050565b60005b838110156104df5780820151818401526020810190506104c4565b838111156104ee576000848401525b50505050565b6000600282049050600182168061050c57607f821691505b602082108114156105205761051f61059e565b5b50919050565b6000610531826104a8565b91507fffffffffffffffffffffffffffffffffffffffffffffffffffffffffffffffff8214156105645761056361056f565b5b600182019050919050565b7f4e487b7100000000000000000000000000000000000000000000000000000000600052601160045260246000fd5b7f4e487b7100000000000000000000000000000000000000000000000000000000600052602260045260246000fd5b7f4e487b7100000000000000000000000000000000000000000000000000000000600052604160045260246000fd5b6000601f19601f8301169050919050565b610616816104a8565b811461062157600080fd5b5056fea264697066735822122001b787ba9401cea65e4636537c65da52675e45d93559343c3f114c8766fdc55264736f6c63430008000033",
  "immutableReferences": {},
  "source": "// SPDX-License-Identifier: MIT\r\npragma solidity ^0.8.0;\r\n\r\ncontract Region {\r\n    struct RegionStruct {\r\n        uint256 id;\r\n        string name;\r\n    }\r\n\r\n    mapping(uint256 => RegionStruct) public regions;\r\n    uint256 public regionCount;\r\n\r\n    event RegionAdded(uint256 id, string name);\r\n\r\n    function addRegion(string memory _name) public {\r\n        regionCount++;\r\n        regions[regionCount] = RegionStruct(regionCount, _name);\r\n        emit RegionAdded(regionCount, _name);\r\n    }\r\n}",
  "sourcePath": "D:\\projects\\startup\\contracts\\region\\region.sol",
  "compiler": {
    "name": "solc",
    "version": "0.8.0+commit.c7dfd78e.Emscripten.clang"
  },
  "schemaVersion": "3.4.16",
  "updatedAt": "2024-08-18T14:09:04.801Z",
  "devdoc": {
    "kind": "dev",
    "methods": {},
    "version": 1
  },
  "userdoc": {
    "kind": "user",
    "methods": {},
    "version": 1
  }
}