{
  "contractName": "Role",
  "abi": [
    {
      "anonymous": false,
      "inputs": [
        {
          "indexed": false,
          "internalType": "uint256",
          "name": "id",
          "type": "uint256"
        },
        {
          "indexed": false,
          "internalType": "string",
          "name": "name",
          "type": "string"
        }
      ],
      "name": "RoleAdded",
      "type": "event"
    },
    {
      "inputs": [],
      "name": "roleCount",
      "outputs": [
        {
          "internalType": "uint256",
          "name": "",
          "type": "uint256"
        }
      ],
      "stateMutability": "view",
      "type": "function"
    },
    {
      "inputs": [
        {
          "internalType": "uint256",
          "name": "",
          "type": "uint256"
        }
      ],
      "name": "roles",
      "outputs": [
        {
          "internalType": "uint256",
          "name": "id",
          "type": "uint256"
        },
        {
          "internalType": "string",
          "name": "name",
          "type": "string"
        }
      ],
      "stateMutability": "view",
      "type": "function"
    },
    {
      "inputs": [
        {
          "internalType": "string",
          "name": "_name",
          "type": "string"
        }
      ],
      "name": "addRole",
      "outputs": [],
      "stateMutability": "nonpayable",
      "type": "function"
    }
  ],
  "bytecode": "0x608060405234801561001057600080fd5b5061065a806100206000396000f3fe608060405234801561001057600080fd5b50600436106100415760003560e01c80633e96e86814610046578063bfda4a4914610062578063ddf9635814610093575b600080fd5b610060600480360381019061005b919061032e565b6100b1565b005b61007c6004803603810190610077919061036f565b61015c565b60405161008a9291906103fb565b60405180910390f35b61009b610208565b6040516100a891906103e0565b60405180910390f35b600160008154809291906100c490610526565b91905055506040518060400160405280600154815260200182815250600080600154815260200190815260200160002060008201518160000155602082015181600101908051906020019061011a92919061020e565b509050507f8a8c6e5d817d6b4b89ece61a1307d0361795dbbf0ef54c2693409c669bf500a9600154826040516101519291906103fb565b60405180910390a150565b6000602052806000526040600020600091509050806000015490806001018054610185906104f4565b80601f01602080910402602001604051908101604052809291908181526020018280546101b1906104f4565b80156101fe5780601f106101d3576101008083540402835291602001916101fe565b820191906000526020600020905b8154815290600101906020018083116101e157829003601f168201915b5050505050905082565b60015481565b82805461021a906104f4565b90600052602060002090601f01602090048101928261023c5760008555610283565b82601f1061025557805160ff1916838001178555610283565b82800160010185558215610283579182015b82811115610282578251825591602001919060010190610267565b5b5090506102909190610294565b5090565b5b808211156102ad576000816000905550600101610295565b5090565b60006102c46102bf8461045c565b61042b565b9050828152602081018484840111156102dc57600080fd5b6102e78482856104b2565b509392505050565b600082601f83011261030057600080fd5b81356103108482602086016102b1565b91505092915050565b6000813590506103288161060d565b92915050565b60006020828403121561034057600080fd5b600082013567ffffffffffffffff81111561035a57600080fd5b610366848285016102ef565b91505092915050565b60006020828403121561038157600080fd5b600061038f84828501610319565b91505092915050565b60006103a38261048c565b6103ad8185610497565b93506103bd8185602086016104c1565b6103c6816105fc565b840191505092915050565b6103da816104a8565b82525050565b60006020820190506103f560008301846103d1565b92915050565b600060408201905061041060008301856103d1565b81810360208301526104228184610398565b90509392505050565b6000604051905081810181811067ffffffffffffffff82111715610452576104516105cd565b5b8060405250919050565b600067ffffffffffffffff821115610477576104766105cd565b5b601f19601f8301169050602081019050919050565b600081519050919050565b600082825260208201905092915050565b6000819050919050565b82818337600083830152505050565b60005b838110156104df5780820151818401526020810190506104c4565b838111156104ee576000848401525b50505050565b6000600282049050600182168061050c57607f821691505b602082108114156105205761051f61059e565b5b50919050565b6000610531826104a8565b91507fffffffffffffffffffffffffffffffffffffffffffffffffffffffffffffffff8214156105645761056361056f565b5b600182019050919050565b7f4e487b7100000000000000000000000000000000000000000000000000000000600052601160045260246000fd5b7f4e487b7100000000000000000000000000000000000000000000000000000000600052602260045260246000fd5b7f4e487b7100000000000000000000000000000000000000000000000000000000600052604160045260246000fd5b6000601f19601f8301169050919050565b610616816104a8565b811461062157600080fd5b5056fea2646970667358221220e3e73f6c56053f37019c9b3f7bc2ecc1bce81343aea20d5b1128883f0e32888864736f6c63430008000033",
  "immutableReferences": {},
  "source": "// SPDX-License-Identifier: MIT\r\npragma solidity ^0.8.0;\r\n\r\ncontract Role {\r\n    struct RoleStruct {\r\n        uint256 id;\r\n        string name;\r\n    }\r\n\r\n    mapping(uint256 => RoleStruct) public roles;\r\n    uint256 public roleCount;\r\n\r\n    event RoleAdded(uint256 id, string name);\r\n\r\n    function addRole(string memory _name) public {\r\n        roleCount++;\r\n        roles[roleCount] = RoleStruct(roleCount, _name);\r\n        emit RoleAdded(roleCount, _name);\r\n    }\r\n}",
  "sourcePath": "D:\\projects\\startup\\contracts\\roles\\role.sol",
  "compiler": {
    "name": "solc",
    "version": "0.8.0+commit.c7dfd78e.Emscripten.clang"
  },
  "schemaVersion": "3.4.16",
  "updatedAt": "2024-08-18T14:09:04.809Z",
  "devdoc": {
    "kind": "dev",
    "methods": {},
    "version": 1
  },
  "userdoc": {
    "kind": "user",
    "methods": {},
    "version": 1
  }
}