{
  "contractName": "RoleDegree",
  "abi": [
    {
      "anonymous": false,
      "inputs": [
        {
          "indexed": false,
          "internalType": "uint256",
          "name": "id",
          "type": "uint256"
        },
        {
          "indexed": false,
          "internalType": "string",
          "name": "name",
          "type": "string"
        }
      ],
      "name": "DegreeAdded",
      "type": "event"
    },
    {
      "anonymous": false,
      "inputs": [
        {
          "indexed": false,
          "internalType": "uint256",
          "name": "id",
          "type": "uint256"
        },
        {
          "indexed": false,
          "internalType": "string",
          "name": "name",
          "type": "string"
        }
      ],
      "name": "RoleAdded",
      "type": "event"
    },
    {
      "inputs": [
        {
          "internalType": "string",
          "name": "_name",
          "type": "string"
        }
      ],
      "name": "addDegree",
      "outputs": [],
      "stateMutability": "nonpayable",
      "type": "function"
    },
    {
      "inputs": [
        {
          "internalType": "string",
          "name": "_name",
          "type": "string"
        }
      ],
      "name": "addRole",
      "outputs": [],
      "stateMutability": "nonpayable",
      "type": "function"
    },
    {
      "inputs": [],
      "name": "degreeCount",
      "outputs": [
        {
          "internalType": "uint256",
          "name": "",
          "type": "uint256"
        }
      ],
      "stateMutability": "view",
      "type": "function"
    },
    {
      "inputs": [
        {
          "internalType": "uint256",
          "name": "",
          "type": "uint256"
        }
      ],
      "name": "degrees",
      "outputs": [
        {
          "internalType": "uint256",
          "name": "id",
          "type": "uint256"
        },
        {
          "internalType": "string",
          "name": "name",
          "type": "string"
        }
      ],
      "stateMutability": "view",
      "type": "function"
    },
    {
      "inputs": [],
      "name": "roleCount",
      "outputs": [
        {
          "internalType": "uint256",
          "name": "",
          "type": "uint256"
        }
      ],
      "stateMutability": "view",
      "type": "function"
    },
    {
      "inputs": [
        {
          "internalType": "uint256",
          "name": "",
          "type": "uint256"
        }
      ],
      "name": "roles",
      "outputs": [
        {
          "internalType": "uint256",
          "name": "id",
          "type": "uint256"
        },
        {
          "internalType": "string",
          "name": "name",
          "type": "string"
        }
      ],
      "stateMutability": "view",
      "type": "function"
    }
  ],
  "bytecode": "0x608060405234801561001057600080fd5b50610844806100206000396000f3fe608060405234801561001057600080fd5b50600436106100625760003560e01c80633660096b146100675780633e96e8681461008557806381f1c3bc146100a1578063bfda4a49146100d2578063cbcf2b2d14610103578063ddf963581461011f575b600080fd5b61006f61013d565b60405161007c91906105ca565b60405180910390f35b61009f600480360381019061009a9190610518565b610143565b005b6100bb60048036038101906100b69190610559565b6101ee565b6040516100c99291906105e5565b60405180910390f35b6100ec60048036038101906100e79190610559565b61029a565b6040516100fa9291906105e5565b60405180910390f35b61011d60048036038101906101189190610518565b610346565b005b6101276103f2565b60405161013491906105ca565b60405180910390f35b60035481565b6001600081548092919061015690610710565b9190505550604051806040016040528060015481526020018281525060008060015481526020019081526020016000206000820151816000015560208201518160010190805190602001906101ac9291906103f8565b509050507f8a8c6e5d817d6b4b89ece61a1307d0361795dbbf0ef54c2693409c669bf500a9600154826040516101e39291906105e5565b60405180910390a150565b6002602052806000526040600020600091509050806000015490806001018054610217906106de565b80601f0160208091040260200160405190810160405280929190818152602001828054610243906106de565b80156102905780601f1061026557610100808354040283529160200191610290565b820191906000526020600020905b81548152906001019060200180831161027357829003601f168201915b5050505050905082565b60006020528060005260406000206000915090508060000154908060010180546102c3906106de565b80601f01602080910402602001604051908101604052809291908181526020018280546102ef906106de565b801561033c5780601f106103115761010080835404028352916020019161033c565b820191906000526020600020905b81548152906001019060200180831161031f57829003601f168201915b5050505050905082565b6003600081548092919061035990610710565b919050555060405180604001604052806003548152602001828152506002600060035481526020019081526020016000206000820151816000015560208201518160010190805190602001906103b09291906103f8565b509050507fb91ab895bbcbd9b2fb90d1d65f6602da5d7a5da3fe95af5c112742c386fc03ff600354826040516103e79291906105e5565b60405180910390a150565b60015481565b828054610404906106de565b90600052602060002090601f016020900481019282610426576000855561046d565b82601f1061043f57805160ff191683800117855561046d565b8280016001018555821561046d579182015b8281111561046c578251825591602001919060010190610451565b5b50905061047a919061047e565b5090565b5b8082111561049757600081600090555060010161047f565b5090565b60006104ae6104a984610646565b610615565b9050828152602081018484840111156104c657600080fd5b6104d184828561069c565b509392505050565b600082601f8301126104ea57600080fd5b81356104fa84826020860161049b565b91505092915050565b600081359050610512816107f7565b92915050565b60006020828403121561052a57600080fd5b600082013567ffffffffffffffff81111561054457600080fd5b610550848285016104d9565b91505092915050565b60006020828403121561056b57600080fd5b600061057984828501610503565b91505092915050565b600061058d82610676565b6105978185610681565b93506105a78185602086016106ab565b6105b0816107e6565b840191505092915050565b6105c481610692565b82525050565b60006020820190506105df60008301846105bb565b92915050565b60006040820190506105fa60008301856105bb565b818103602083015261060c8184610582565b90509392505050565b6000604051905081810181811067ffffffffffffffff8211171561063c5761063b6107b7565b5b8060405250919050565b600067ffffffffffffffff821115610661576106606107b7565b5b601f19601f8301169050602081019050919050565b600081519050919050565b600082825260208201905092915050565b6000819050919050565b82818337600083830152505050565b60005b838110156106c95780820151818401526020810190506106ae565b838111156106d8576000848401525b50505050565b600060028204905060018216806106f657607f821691505b6020821081141561070a57610709610788565b5b50919050565b600061071b82610692565b91507fffffffffffffffffffffffffffffffffffffffffffffffffffffffffffffffff82141561074e5761074d610759565b5b600182019050919050565b7f4e487b7100000000000000000000000000000000000000000000000000000000600052601160045260246000fd5b7f4e487b7100000000000000000000000000000000000000000000000000000000600052602260045260246000fd5b7f4e487b7100000000000000000000000000000000000000000000000000000000600052604160045260246000fd5b6000601f19601f8301169050919050565b61080081610692565b811461080b57600080fd5b5056fea26469706673582212208a2dfd20bfcac88d7dcbbad8b93e640b0a379bd15b01eda0253e77bc38d9f35064736f6c63430008000033",
  "immutableReferences": {},
  "source": "// SPDX-License-Identifier: MIT\r\npragma solidity ^0.8.0;\r\n\r\n// Import statements\r\nimport \"./roles/role.sol\";\r\nimport \"./roles/degree.sol\";\r\nimport \"./users/user.sol\";\r\nimport \"./products/product.sol\";\r\nimport \"./products/batch.sol\";\r\nimport \"./logs/activity.sol\";\r\nimport \"./region/region.sol\";\r\nimport \"./region/farmer.sol\";\r\nimport \"./region/inspector.sol\";\r\n// Contract declaration\r\n\r\ncontract RoleDegree is Role, Degree {\r\n    // Code for Role and Degree\r\n}\r\n\r\ncontract UserProductBatch is User, Product, Batch {\r\n    constructor(address _productContractAddress) Batch(_productContractAddress) {\r\n        // Additional initialization code if needed\r\n    }\r\n}\r\n\r\ncontract ActivityRegionFarmerInspector is ActivityLog, Region, Farmer, Inspector {\r\n    // Code for ActivityLog, Region, Farmer, and Inspector\r\n}\r\n\r\n// Main contract that combines the separated contracts\r\ncontract GrapefruitTraceability is RoleDegree, UserProductBatch, ActivityRegionFarmerInspector {\r\n    constructor(address _productContractAddress) UserProductBatch(_productContractAddress) {\r\n        // Additional initialization code if needed\r\n    }\r\n}",
  "sourcePath": "D:\\projects\\startup\\contracts\\application.sol",
  "compiler": {
    "name": "solc",
    "version": "0.8.0+commit.c7dfd78e.Emscripten.clang"
  },
  "schemaVersion": "3.4.16",
  "updatedAt": "2024-08-18T14:09:04.762Z",
  "devdoc": {
    "kind": "dev",
    "methods": {},
    "version": 1
  },
  "userdoc": {
    "kind": "user",
    "methods": {},
    "version": 1
  }
}