{
  "contractName": "UserProductBatch",
  "abi": [
    {
      "inputs": [
        {
          "internalType": "address",
          "name": "_productContractAddress",
          "type": "address"
        }
      ],
      "stateMutability": "nonpayable",
      "type": "constructor"
    },
    {
      "anonymous": false,
      "inputs": [
        {
          "indexed": false,
          "internalType": "string",
          "name": "code",
          "type": "string"
        },
        {
          "indexed": false,
          "internalType": "uint256",
          "name": "productId",
          "type": "uint256"
        },
        {
          "indexed": false,
          "internalType": "uint256",
          "name": "quantity",
          "type": "uint256"
        }
      ],
      "name": "BatchAdded",
      "type": "event"
    },
    {
      "anonymous": false,
      "inputs": [
        {
          "indexed": false,
          "internalType": "uint256",
          "name": "id",
          "type": "uint256"
        },
        {
          "indexed": false,
          "internalType": "string",
          "name": "name",
          "type": "string"
        },
        {
          "indexed": false,
          "internalType": "string",
          "name": "description",
          "type": "string"
        }
      ],
      "name": "ProductAdded",
      "type": "event"
    },
    {
      "anonymous": false,
      "inputs": [
        {
          "indexed": false,
          "internalType": "uint256",
          "name": "id",
          "type": "uint256"
        },
        {
          "indexed": false,
          "internalType": "string",
          "name": "name",
          "type": "string"
        },
        {
          "indexed": false,
          "internalType": "uint256",
          "name": "roleId",
          "type": "uint256"
        },
        {
          "indexed": false,
          "internalType": "uint256",
          "name": "regionId",
          "type": "uint256"
        }
      ],
      "name": "UserAdded",
      "type": "event"
    },
    {
      "inputs": [
        {
          "internalType": "string",
          "name": "_code",
          "type": "string"
        },
        {
          "internalType": "uint256",
          "name": "_productId",
          "type": "uint256"
        },
        {
          "internalType": "uint256",
          "name": "_quantity",
          "type": "uint256"
        },
        {
          "internalType": "string",
          "name": "_productionDate",
          "type": "string"
        },
        {
          "internalType": "string",
          "name": "_expireDate",
          "type": "string"
        }
      ],
      "name": "addBatch",
      "outputs": [],
      "stateMutability": "nonpayable",
      "type": "function"
    },
    {
      "inputs": [
        {
          "internalType": "uint256",
          "name": "_productId",
          "type": "uint256"
        },
        {
          "internalType": "string",
          "name": "_batchCode",
          "type": "string"
        }
      ],
      "name": "addBatchToProduct",
      "outputs": [],
      "stateMutability": "nonpayable",
      "type": "function"
    },
    {
      "inputs": [
        {
          "internalType": "string",
          "name": "_name",
          "type": "string"
        },
        {
          "internalType": "string",
          "name": "_description",
          "type": "string"
        }
      ],
      "name": "addProduct",
      "outputs": [],
      "stateMutability": "nonpayable",
      "type": "function"
    },
    {
      "inputs": [
        {
          "internalType": "string",
          "name": "_name",
          "type": "string"
        },
        {
          "internalType": "string",
          "name": "_email",
          "type": "string"
        },
        {
          "internalType": "string",
          "name": "_userAddress",
          "type": "string"
        },
        {
          "internalType": "string",
          "name": "_dob",
          "type": "string"
        },
        {
          "internalType": "string",
          "name": "_gender",
          "type": "string"
        },
        {
          "internalType": "uint256",
          "name": "_roleId",
          "type": "uint256"
        },
        {
          "internalType": "uint256",
          "name": "_regionId",
          "type": "uint256"
        }
      ],
      "name": "addUser",
      "outputs": [],
      "stateMutability": "nonpayable",
      "type": "function"
    },
    {
      "inputs": [
        {
          "internalType": "string",
          "name": "",
          "type": "string"
        }
      ],
      "name": "batches",
      "outputs": [
        {
          "internalType": "string",
          "name": "code",
          "type": "string"
        },
        {
          "internalType": "uint256",
          "name": "productId",
          "type": "uint256"
        },
        {
          "internalType": "uint256",
          "name": "quantity",
          "type": "uint256"
        },
        {
          "internalType": "string",
          "name": "productionDate",
          "type": "string"
        },
        {
          "internalType": "string",
          "name": "expireDate",
          "type": "string"
        },
        {
          "internalType": "uint256",
          "name": "createdAt",
          "type": "uint256"
        }
      ],
      "stateMutability": "view",
      "type": "function"
    },
    {
      "inputs": [
        {
          "internalType": "uint256",
          "name": "_productId",
          "type": "uint256"
        }
      ],
      "name": "getBatchesByProduct",
      "outputs": [
        {
          "internalType": "string[]",
          "name": "",
          "type": "string[]"
        }
      ],
      "stateMutability": "view",
      "type": "function"
    },
    {
      "inputs": [
        {
          "internalType": "address",
          "name": "_userAddress",
          "type": "address"
        }
      ],
      "name": "getUser",
      "outputs": [
        {
          "components": [
            {
              "internalType": "uint256",
              "name": "id",
              "type": "uint256"
            },
            {
              "internalType": "string",
              "name": "name",
              "type": "string"
            },
            {
              "internalType": "string",
              "name": "email",
              "type": "string"
            },
            {
              "internalType": "string",
              "name": "userAddress",
              "type": "string"
            },
            {
              "internalType": "string",
              "name": "dob",
              "type": "string"
            },
            {
              "internalType": "string",
              "name": "gender",
              "type": "string"
            },
            {
              "internalType": "uint256",
              "name": "roleId",
              "type": "uint256"
            },
            {
              "internalType": "uint256",
              "name": "regionId",
              "type": "uint256"
            },
            {
              "internalType": "uint256",
              "name": "createdAt",
              "type": "uint256"
            }
          ],
          "internalType": "struct User.UserStruct",
          "name": "",
          "type": "tuple"
        }
      ],
      "stateMutability": "view",
      "type": "function"
    },
    {
      "inputs": [
        {
          "internalType": "uint256",
          "name": "_regionId",
          "type": "uint256"
        }
      ],
      "name": "getUsersByRegion",
      "outputs": [
        {
          "components": [
            {
              "internalType": "uint256",
              "name": "id",
              "type": "uint256"
            },
            {
              "internalType": "string",
              "name": "name",
              "type": "string"
            },
            {
              "internalType": "string",
              "name": "email",
              "type": "string"
            },
            {
              "internalType": "string",
              "name": "userAddress",
              "type": "string"
            },
            {
              "internalType": "string",
              "name": "dob",
              "type": "string"
            },
            {
              "internalType": "string",
              "name": "gender",
              "type": "string"
            },
            {
              "internalType": "uint256",
              "name": "roleId",
              "type": "uint256"
            },
            {
              "internalType": "uint256",
              "name": "regionId",
              "type": "uint256"
            },
            {
              "internalType": "uint256",
              "name": "createdAt",
              "type": "uint256"
            }
          ],
          "internalType": "struct User.UserStruct[]",
          "name": "",
          "type": "tuple[]"
        }
      ],
      "stateMutability": "view",
      "type": "function"
    },
    {
      "inputs": [
        {
          "internalType": "uint256",
          "name": "",
          "type": "uint256"
        },
        {
          "internalType": "uint256",
          "name": "",
          "type": "uint256"
        }
      ],
      "name": "productBatches",
      "outputs": [
        {
          "internalType": "string",
          "name": "",
          "type": "string"
        }
      ],
      "stateMutability": "view",
      "type": "function"
    },
    {
      "inputs": [],
      "name": "productCount",
      "outputs": [
        {
          "internalType": "uint256",
          "name": "",
          "type": "uint256"
        }
      ],
      "stateMutability": "view",
      "type": "function"
    },
    {
      "inputs": [
        {
          "internalType": "uint256",
          "name": "",
          "type": "uint256"
        }
      ],
      "name": "products",
      "outputs": [
        {
          "internalType": "uint256",
          "name": "id",
          "type": "uint256"
        },
        {
          "internalType": "string",
          "name": "name",
          "type": "string"
        },
        {
          "internalType": "string",
          "name": "description",
          "type": "string"
        },
        {
          "internalType": "uint256",
          "name": "createdAt",
          "type": "uint256"
        }
      ],
      "stateMutability": "view",
      "type": "function"
    },
    {
      "inputs": [],
      "name": "userCount",
      "outputs": [
        {
          "internalType": "uint256",
          "name": "",
          "type": "uint256"
        }
      ],
      "stateMutability": "view",
      "type": "function"
    },
    {
      "inputs": [
        {
          "internalType": "address",
          "name": "",
          "type": "address"
        }
      ],
      "name": "users",
      "outputs": [
        {
          "internalType": "uint256",
          "name": "id",
          "type": "uint256"
        },
        {
          "internalType": "string",
          "name": "name",
          "type": "string"
        },
        {
          "internalType": "string",
          "name": "email",
          "type": "string"
        },
        {
          "internalType": "string",
          "name": "userAddress",
          "type": "string"
        },
        {
          "internalType": "string",
          "name": "dob",
          "type": "string"
        },
        {
          "internalType": "string",
          "name": "gender",
          "type": "string"
        },
        {
          "internalType": "uint256",
          "name": "roleId",
          "type": "uint256"
        },
        {
          "internalType": "uint256",
          "name": "regionId",
          "type": "uint256"
        },
        {
          "internalType": "uint256",
          "name": "createdAt",
          "type": "uint256"
        }
      ],
      "stateMutability": "view",
      "type": "function"
    }
  ],
  "bytecode": "0x60806040523480156200001157600080fd5b506040516200289338038062002893833981810160405281019062000037919062000098565b8080600660006101000a81548173ffffffffffffffffffffffffffffffffffffffff021916908373ffffffffffffffffffffffffffffffffffffffff160217905550505062000112565b6000815190506200009281620000f8565b92915050565b600060208284031215620000ab57600080fd5b6000620000bb8482850162000081565b91505092915050565b6000620000d182620000d8565b9050919050565b600073ffffffffffffffffffffffffffffffffffffffff82169050919050565b6200010381620000c4565b81146200010f57600080fd5b50565b61277180620001226000396000f3fe608060405234801561001057600080fd5b50600436106100cf5760003560e01c8063927968141161008c578063a87430ba11610066578063a87430ba1461023e578063a8d2aa9014610276578063ca2efb55146102a6578063e0f6ef87146102c2576100cf565b806392796814146101ea578063991a3c3a14610206578063a837a71314610222576100cf565b806307973ccf146100d457806342146062146100f25780636ac52d8f146101225780636f77926b146101525780637acc0b20146101825780637ef1446a146101b5575b600080fd5b6100dc6102e0565b6040516100e9919061228c565b60405180910390f35b61010c60048036038101906101079190611ceb565b6102e6565b6040516101199190612172565b60405180910390f35b61013c60048036038101906101379190611d68565b61092f565b6040516101499190612194565b60405180910390f35b61016c60048036038101906101679190611a40565b6109e8565b604051610179919061226a565b60405180910390f35b61019c60048036038101906101979190611ceb565b610d43565b6040516101ac94939291906123cc565b60405180910390f35b6101cf60048036038101906101ca9190611a69565b610e83565b6040516101e1969594939291906121f4565b60405180910390f35b61020460048036038101906101ff9190611c2c565b61106d565b005b610220600480360381019061021b9190611d14565b611207565b005b61023c60048036038101906102379190611b16565b611258565b005b61025860048036038101906102539190611a40565b6113f5565b60405161026d9998979695949392919061231c565b60405180910390f35b610290600480360381019061028b9190611ceb565b6116eb565b60405161029d9190612150565b60405180910390f35b6102c060048036038101906102bb9190611aaa565b6117d7565b005b6102ca6118b9565b6040516102d7919061228c565b60405180910390f35b60015481565b606060008060015467ffffffffffffffff81111561032d577f4e487b7100000000000000000000000000000000000000000000000000000000600052604160045260246000fd5b60405190808252806020026020018201604052801561035b5781602001602082028036833780820191505090505b5090506000805b60015481101561041757856000808584815181106103a9577f4e487b7100000000000000000000000000000000000000000000000000000000600052603260045260246000fd5b602002602001015173ffffffffffffffffffffffffffffffffffffffff1673ffffffffffffffffffffffffffffffffffffffff16815260200190815260200160002060070154141561040457838061040090612626565b9450505b808061040f90612626565b915050610362565b5060008367ffffffffffffffff81111561045a577f4e487b7100000000000000000000000000000000000000000000000000000000600052604160045260246000fd5b60405190808252806020026020018201604052801561049357816020015b6104806118bf565b8152602001906001900390816104785790505b5090506000915060005b60015481101561092257866000808684815181106104e4577f4e487b7100000000000000000000000000000000000000000000000000000000600052603260045260246000fd5b602002602001015173ffffffffffffffffffffffffffffffffffffffff1673ffffffffffffffffffffffffffffffffffffffff16815260200190815260200160002060070154141561090f5760008085838151811061056c577f4e487b7100000000000000000000000000000000000000000000000000000000600052603260045260246000fd5b602002602001015173ffffffffffffffffffffffffffffffffffffffff1673ffffffffffffffffffffffffffffffffffffffff16815260200190815260200160002060405180610120016040529081600082015481526020016001820180546105d4906125f4565b80601f0160208091040260200160405190810160405280929190818152602001828054610600906125f4565b801561064d5780601f106106225761010080835404028352916020019161064d565b820191906000526020600020905b81548152906001019060200180831161063057829003601f168201915b50505050508152602001600282018054610666906125f4565b80601f0160208091040260200160405190810160405280929190818152602001828054610692906125f4565b80156106df5780601f106106b4576101008083540402835291602001916106df565b820191906000526020600020905b8154815290600101906020018083116106c257829003601f168201915b505050505081526020016003820180546106f8906125f4565b80601f0160208091040260200160405190810160405280929190818152602001828054610724906125f4565b80156107715780601f1061074657610100808354040283529160200191610771565b820191906000526020600020905b81548152906001019060200180831161075457829003601f168201915b5050505050815260200160048201805461078a906125f4565b80601f01602080910402602001604051908101604052809291908181526020018280546107b6906125f4565b80156108035780601f106107d857610100808354040283529160200191610803565b820191906000526020600020905b8154815290600101906020018083116107e657829003601f168201915b5050505050815260200160058201805461081c906125f4565b80601f0160208091040260200160405190810160405280929190818152602001828054610848906125f4565b80156108955780601f1061086a57610100808354040283529160200191610895565b820191906000526020600020905b81548152906001019060200180831161087857829003601f168201915b5050505050815260200160068201548152602001600782015481526020016008820154815250508284815181106108f5577f4e487b7100000000000000000000000000000000000000000000000000000000600052603260045260246000fd5b6020026020010181905250828061090b90612626565b9350505b808061091a90612626565b91505061049d565b5080945050505050919050565b6003602052816000526040600020818154811061094b57600080fd5b90600052602060002001600091509150508054610967906125f4565b80601f0160208091040260200160405190810160405280929190818152602001828054610993906125f4565b80156109e05780601f106109b5576101008083540402835291602001916109e0565b820191906000526020600020905b8154815290600101906020018083116109c357829003601f168201915b505050505081565b6109f06118bf565b6000808373ffffffffffffffffffffffffffffffffffffffff1673ffffffffffffffffffffffffffffffffffffffff1681526020019081526020016000206040518061012001604052908160008201548152602001600182018054610a54906125f4565b80601f0160208091040260200160405190810160405280929190818152602001828054610a80906125f4565b8015610acd5780601f10610aa257610100808354040283529160200191610acd565b820191906000526020600020905b815481529060010190602001808311610ab057829003601f168201915b50505050508152602001600282018054610ae6906125f4565b80601f0160208091040260200160405190810160405280929190818152602001828054610b12906125f4565b8015610b5f5780601f10610b3457610100808354040283529160200191610b5f565b820191906000526020600020905b815481529060010190602001808311610b4257829003601f168201915b50505050508152602001600382018054610b78906125f4565b80601f0160208091040260200160405190810160405280929190818152602001828054610ba4906125f4565b8015610bf15780601f10610bc657610100808354040283529160200191610bf1565b820191906000526020600020905b815481529060010190602001808311610bd457829003601f168201915b50505050508152602001600482018054610c0a906125f4565b80601f0160208091040260200160405190810160405280929190818152602001828054610c36906125f4565b8015610c835780601f10610c5857610100808354040283529160200191610c83565b820191906000526020600020905b815481529060010190602001808311610c6657829003601f168201915b50505050508152602001600582018054610c9c906125f4565b80601f0160208091040260200160405190810160405280929190818152602001828054610cc8906125f4565b8015610d155780601f10610cea57610100808354040283529160200191610d15565b820191906000526020600020905b815481529060010190602001808311610cf857829003601f168201915b5050505050815260200160068201548152602001600782015481526020016008820154815250509050919050565b6002602052806000526040600020600091509050806000015490806001018054610d6c906125f4565b80601f0160208091040260200160405190810160405280929190818152602001828054610d98906125f4565b8015610de55780601f10610dba57610100808354040283529160200191610de5565b820191906000526020600020905b815481529060010190602001808311610dc857829003601f168201915b505050505090806002018054610dfa906125f4565b80601f0160208091040260200160405190810160405280929190818152602001828054610e26906125f4565b8015610e735780601f10610e4857610100808354040283529160200191610e73565b820191906000526020600020905b815481529060010190602001808311610e5657829003601f168201915b5050505050908060030154905084565b600581805160208101820180518482526020830160208501208183528095505050505050600091509050806000018054610ebc906125f4565b80601f0160208091040260200160405190810160405280929190818152602001828054610ee8906125f4565b8015610f355780601f10610f0a57610100808354040283529160200191610f35565b820191906000526020600020905b815481529060010190602001808311610f1857829003601f168201915b505050505090806001015490806002015490806003018054610f56906125f4565b80601f0160208091040260200160405190810160405280929190818152602001828054610f82906125f4565b8015610fcf5780601f10610fa457610100808354040283529160200191610fcf565b820191906000526020600020905b815481529060010190602001808311610fb257829003601f168201915b505050505090806004018054610fe4906125f4565b80601f0160208091040260200160405190810160405280929190818152602001828054611010906125f4565b801561105d5780601f106110325761010080835404028352916020019161105d565b820191906000526020600020905b81548152906001019060200180831161104057829003601f168201915b5050505050908060050154905086565b60006040518060c00160405280878152602001868152602001858152602001848152602001838152602001428152509050806005876040516110af9190612139565b908152602001604051809103902060008201518160000190805190602001906110d992919061190b565b506020820151816001015560408201518160020155606082015181600301908051906020019061110a92919061190b565b50608082015181600401908051906020019061112792919061190b565b5060a08201518160050155905050600660009054906101000a900473ffffffffffffffffffffffffffffffffffffffff1673ffffffffffffffffffffffffffffffffffffffff1663991a3c3a86886040518363ffffffff1660e01b81526004016111929291906122a7565b600060405180830381600087803b1580156111ac57600080fd5b505af11580156111c0573d6000803e3d6000fd5b505050507f4d0cb973f6b46b3e44d83c8b26707101f256c9ff9d01430a6fdcf0427ffb57d08686866040516111f7939291906121b6565b60405180910390a1505050505050565b600360008381526020019081526020016000208190806001815401808255809150506001900390600052602060002001600090919091909150908051906020019061125392919061190b565b505050565b6001600081548092919061126b90612626565b91905055506040518061012001604052806001548152602001888152602001878152602001868152602001858152602001848152602001838152602001828152602001428152506000803373ffffffffffffffffffffffffffffffffffffffff1673ffffffffffffffffffffffffffffffffffffffff16815260200190815260200160002060008201518160000155602082015181600101908051906020019061131692919061190b565b50604082015181600201908051906020019061133392919061190b565b50606082015181600301908051906020019061135092919061190b565b50608082015181600401908051906020019061136d92919061190b565b5060a082015181600501908051906020019061138a92919061190b565b5060c0820151816006015560e0820151816007015561010082015181600801559050507feabcb8900cdae60d1603d8999fadc9a0c2926e0483c42b49a361e5f14617dc216001548884846040516113e4949392919061241f565b60405180910390a150505050505050565b600060205280600052604060002060009150905080600001549080600101805461141e906125f4565b80601f016020809104026020016040519081016040528092919081815260200182805461144a906125f4565b80156114975780601f1061146c57610100808354040283529160200191611497565b820191906000526020600020905b81548152906001019060200180831161147a57829003601f168201915b5050505050908060020180546114ac906125f4565b80601f01602080910402602001604051908101604052809291908181526020018280546114d8906125f4565b80156115255780601f106114fa57610100808354040283529160200191611525565b820191906000526020600020905b81548152906001019060200180831161150857829003601f168201915b50505050509080600301805461153a906125f4565b80601f0160208091040260200160405190810160405280929190818152602001828054611566906125f4565b80156115b35780601f10611588576101008083540402835291602001916115b3565b820191906000526020600020905b81548152906001019060200180831161159657829003601f168201915b5050505050908060040180546115c8906125f4565b80601f01602080910402602001604051908101604052809291908181526020018280546115f4906125f4565b80156116415780601f1061161657610100808354040283529160200191611641565b820191906000526020600020905b81548152906001019060200180831161162457829003601f168201915b505050505090806005018054611656906125f4565b80601f0160208091040260200160405190810160405280929190818152602001828054611682906125f4565b80156116cf5780601f106116a4576101008083540402835291602001916116cf565b820191906000526020600020905b8154815290600101906020018083116116b257829003601f168201915b5050505050908060060154908060070154908060080154905089565b606060036000838152602001908152602001600020805480602002602001604051908101604052809291908181526020016000905b828210156117cc57838290600052602060002001805461173f906125f4565b80601f016020809104026020016040519081016040528092919081815260200182805461176b906125f4565b80156117b85780601f1061178d576101008083540402835291602001916117b8565b820191906000526020600020905b81548152906001019060200180831161179b57829003601f168201915b505050505081526020019060010190611720565b505050509050919050565b600460008154809291906117ea90612626565b9190505550604051806080016040528060045481526020018381526020018281526020014281525060026000600454815260200190815260200160002060008201518160000155602082015181600101908051906020019061184d92919061190b565b50604082015181600201908051906020019061186a92919061190b565b50606082015181600301559050507fb0b1b5b61bc0dbb800dfdecd756ac304fe33d3a63c2ac5dc419452555c99a82960045483836040516118ad939291906122d7565b60405180910390a15050565b60045481565b6040518061012001604052806000815260200160608152602001606081526020016060815260200160608152602001606081526020016000815260200160008152602001600081525090565b828054611917906125f4565b90600052602060002090601f0160209004810192826119395760008555611980565b82601f1061195257805160ff1916838001178555611980565b82800160010185558215611980579182015b8281111561197f578251825591602001919060010190611964565b5b50905061198d9190611991565b5090565b5b808211156119aa576000816000905550600101611992565b5090565b60006119c16119bc8461249c565b61246b565b9050828152602081018484840111156119d957600080fd5b6119e48482856125b2565b509392505050565b6000813590506119fb8161270d565b92915050565b600082601f830112611a1257600080fd5b8135611a228482602086016119ae565b91505092915050565b600081359050611a3a81612724565b92915050565b600060208284031215611a5257600080fd5b6000611a60848285016119ec565b91505092915050565b600060208284031215611a7b57600080fd5b600082013567ffffffffffffffff811115611a9557600080fd5b611aa184828501611a01565b91505092915050565b60008060408385031215611abd57600080fd5b600083013567ffffffffffffffff811115611ad757600080fd5b611ae385828601611a01565b925050602083013567ffffffffffffffff811115611b0057600080fd5b611b0c85828601611a01565b9150509250929050565b600080600080600080600060e0888a031215611b3157600080fd5b600088013567ffffffffffffffff811115611b4b57600080fd5b611b578a828b01611a01565b975050602088013567ffffffffffffffff811115611b7457600080fd5b611b808a828b01611a01565b965050604088013567ffffffffffffffff811115611b9d57600080fd5b611ba98a828b01611a01565b955050606088013567ffffffffffffffff811115611bc657600080fd5b611bd28a828b01611a01565b945050608088013567ffffffffffffffff811115611bef57600080fd5b611bfb8a828b01611a01565b93505060a0611c0c8a828b01611a2b565b92505060c0611c1d8a828b01611a2b565b91505092959891949750929550565b600080600080600060a08688031215611c4457600080fd5b600086013567ffffffffffffffff811115611c5e57600080fd5b611c6a88828901611a01565b9550506020611c7b88828901611a2b565b9450506040611c8c88828901611a2b565b935050606086013567ffffffffffffffff811115611ca957600080fd5b611cb588828901611a01565b925050608086013567ffffffffffffffff811115611cd257600080fd5b611cde88828901611a01565b9150509295509295909350565b600060208284031215611cfd57600080fd5b6000611d0b84828501611a2b565b91505092915050565b60008060408385031215611d2757600080fd5b6000611d3585828601611a2b565b925050602083013567ffffffffffffffff811115611d5257600080fd5b611d5e85828601611a01565b9150509250929050565b60008060408385031215611d7b57600080fd5b6000611d8985828601611a2b565b9250506020611d9a85828601611a2b565b9150509250929050565b6000611db08383611eb6565b905092915050565b6000611dc48383611f59565b905092915050565b6000611dd7826124ec565b611de18185612527565b935083602082028501611df3856124cc565b8060005b85811015611e2f5784840389528151611e108582611da4565b9450611e1b8361250d565b925060208a01995050600181019050611df7565b50829750879550505050505092915050565b6000611e4c826124f7565b611e568185612538565b935083602082028501611e68856124dc565b8060005b85811015611ea45784840389528151611e858582611db8565b9450611e908361251a565b925060208a01995050600181019050611e6c565b50829750879550505050505092915050565b6000611ec182612502565b611ecb8185612549565b9350611edb8185602086016125c1565b611ee4816126fc565b840191505092915050565b6000611efa82612502565b611f04818561255a565b9350611f148185602086016125c1565b611f1d816126fc565b840191505092915050565b6000611f3382612502565b611f3d818561256b565b9350611f4d8185602086016125c1565b80840191505092915050565b600061012083016000830151611f72600086018261211b565b5060208301518482036020860152611f8a8282611eb6565b91505060408301518482036040860152611fa48282611eb6565b91505060608301518482036060860152611fbe8282611eb6565b91505060808301518482036080860152611fd88282611eb6565b91505060a083015184820360a0860152611ff28282611eb6565b91505060c083015161200760c086018261211b565b5060e083015161201a60e086018261211b565b5061010083015161202f61010086018261211b565b508091505092915050565b600061012083016000830151612053600086018261211b565b506020830151848203602086015261206b8282611eb6565b915050604083015184820360408601526120858282611eb6565b9150506060830151848203606086015261209f8282611eb6565b915050608083015184820360808601526120b98282611eb6565b91505060a083015184820360a08601526120d38282611eb6565b91505060c08301516120e860c086018261211b565b5060e08301516120fb60e086018261211b565b5061010083015161211061010086018261211b565b508091505092915050565b612124816125a8565b82525050565b612133816125a8565b82525050565b60006121458284611f28565b915081905092915050565b6000602082019050818103600083015261216a8184611dcc565b905092915050565b6000602082019050818103600083015261218c8184611e41565b905092915050565b600060208201905081810360008301526121ae8184611eef565b905092915050565b600060608201905081810360008301526121d08186611eef565b90506121df602083018561212a565b6121ec604083018461212a565b949350505050565b600060c082019050818103600083015261220e8189611eef565b905061221d602083018861212a565b61222a604083018761212a565b818103606083015261223c8186611eef565b905081810360808301526122508185611eef565b905061225f60a083018461212a565b979650505050505050565b60006020820190508181036000830152612284818461203a565b905092915050565b60006020820190506122a1600083018461212a565b92915050565b60006040820190506122bc600083018561212a565b81810360208301526122ce8184611eef565b90509392505050565b60006060820190506122ec600083018661212a565b81810360208301526122fe8185611eef565b905081810360408301526123128184611eef565b9050949350505050565b600061012082019050612332600083018c61212a565b8181036020830152612344818b611eef565b90508181036040830152612358818a611eef565b9050818103606083015261236c8189611eef565b905081810360808301526123808188611eef565b905081810360a08301526123948187611eef565b90506123a360c083018661212a565b6123b060e083018561212a565b6123be61010083018461212a565b9a9950505050505050505050565b60006080820190506123e1600083018761212a565b81810360208301526123f38186611eef565b905081810360408301526124078185611eef565b9050612416606083018461212a565b95945050505050565b6000608082019050612434600083018761212a565b81810360208301526124468186611eef565b9050612455604083018561212a565b612462606083018461212a565b95945050505050565b6000604051905081810181811067ffffffffffffffff82111715612492576124916126cd565b5b8060405250919050565b600067ffffffffffffffff8211156124b7576124b66126cd565b5b601f19601f8301169050602081019050919050565b6000819050602082019050919050565b6000819050602082019050919050565b600081519050919050565b600081519050919050565b600081519050919050565b6000602082019050919050565b6000602082019050919050565b600082825260208201905092915050565b600082825260208201905092915050565b600082825260208201905092915050565b600082825260208201905092915050565b600081905092915050565b600061258182612588565b9050919050565b600073ffffffffffffffffffffffffffffffffffffffff82169050919050565b6000819050919050565b82818337600083830152505050565b60005b838110156125df5780820151818401526020810190506125c4565b838111156125ee576000848401525b50505050565b6000600282049050600182168061260c57607f821691505b602082108114156126205761261f61269e565b5b50919050565b6000612631826125a8565b91507fffffffffffffffffffffffffffffffffffffffffffffffffffffffffffffffff8214156126645761266361266f565b5b600182019050919050565b7f4e487b7100000000000000000000000000000000000000000000000000000000600052601160045260246000fd5b7f4e487b7100000000000000000000000000000000000000000000000000000000600052602260045260246000fd5b7f4e487b7100000000000000000000000000000000000000000000000000000000600052604160045260246000fd5b6000601f19601f8301169050919050565b61271681612576565b811461272157600080fd5b50565b61272d816125a8565b811461273857600080fd5b5056fea2646970667358221220b1a8cf95018846c7e80f68da2eadf8523e012465d35a84f66df3965842f366c364736f6c63430008000033",
  "immutableReferences": {},
  "source": "// SPDX-License-Identifier: MIT\r\npragma solidity ^0.8.0;\r\n\r\n// Import statements\r\nimport \"./roles/role.sol\";\r\nimport \"./roles/degree.sol\";\r\nimport \"./users/user.sol\";\r\nimport \"./products/product.sol\";\r\nimport \"./products/batch.sol\";\r\nimport \"./logs/activity.sol\";\r\nimport \"./region/region.sol\";\r\nimport \"./region/farmer.sol\";\r\nimport \"./region/inspector.sol\";\r\n// Contract declaration\r\n\r\ncontract RoleDegree is Role, Degree {\r\n    // Code for Role and Degree\r\n}\r\n\r\ncontract UserProductBatch is User, Product, Batch {\r\n    constructor(address _productContractAddress) Batch(_productContractAddress) {\r\n        // Additional initialization code if needed\r\n    }\r\n}\r\n\r\ncontract ActivityRegionFarmerInspector is ActivityLog, Region, Farmer, Inspector {\r\n    // Code for ActivityLog, Region, Farmer, and Inspector\r\n}\r\n\r\n// Main contract that combines the separated contracts\r\ncontract GrapefruitTraceability is RoleDegree, UserProductBatch, ActivityRegionFarmerInspector {\r\n    constructor(address _productContractAddress) UserProductBatch(_productContractAddress) {\r\n        // Additional initialization code if needed\r\n    }\r\n}",
  "sourcePath": "D:\\projects\\startup\\contracts\\application.sol",
  "compiler": {
    "name": "solc",
    "version": "0.8.0+commit.c7dfd78e.Emscripten.clang"
  },
  "schemaVersion": "3.4.16",
  "updatedAt": "2024-08-18T14:09:04.768Z",
  "devdoc": {
    "kind": "dev",
    "methods": {},
    "version": 1
  },
  "userdoc": {
    "kind": "user",
    "methods": {},
    "version": 1
  }
}