{
  "contractName": "User",
  "abi": [
    {
      "anonymous": false,
      "inputs": [
        {
          "indexed": false,
          "internalType": "uint256",
          "name": "id",
          "type": "uint256"
        },
        {
          "indexed": false,
          "internalType": "string",
          "name": "name",
          "type": "string"
        },
        {
          "indexed": false,
          "internalType": "uint256",
          "name": "roleId",
          "type": "uint256"
        },
        {
          "indexed": false,
          "internalType": "uint256",
          "name": "regionId",
          "type": "uint256"
        }
      ],
      "name": "UserAdded",
      "type": "event"
    },
    {
      "inputs": [],
      "name": "userCount",
      "outputs": [
        {
          "internalType": "uint256",
          "name": "",
          "type": "uint256"
        }
      ],
      "stateMutability": "view",
      "type": "function"
    },
    {
      "inputs": [
        {
          "internalType": "address",
          "name": "",
          "type": "address"
        }
      ],
      "name": "users",
      "outputs": [
        {
          "internalType": "uint256",
          "name": "id",
          "type": "uint256"
        },
        {
          "internalType": "string",
          "name": "name",
          "type": "string"
        },
        {
          "internalType": "string",
          "name": "email",
          "type": "string"
        },
        {
          "internalType": "string",
          "name": "userAddress",
          "type": "string"
        },
        {
          "internalType": "string",
          "name": "dob",
          "type": "string"
        },
        {
          "internalType": "string",
          "name": "gender",
          "type": "string"
        },
        {
          "internalType": "uint256",
          "name": "roleId",
          "type": "uint256"
        },
        {
          "internalType": "uint256",
          "name": "regionId",
          "type": "uint256"
        },
        {
          "internalType": "uint256",
          "name": "createdAt",
          "type": "uint256"
        }
      ],
      "stateMutability": "view",
      "type": "function"
    },
    {
      "inputs": [
        {
          "internalType": "string",
          "name": "_name",
          "type": "string"
        },
        {
          "internalType": "string",
          "name": "_email",
          "type": "string"
        },
        {
          "internalType": "string",
          "name": "_userAddress",
          "type": "string"
        },
        {
          "internalType": "string",
          "name": "_dob",
          "type": "string"
        },
        {
          "internalType": "string",
          "name": "_gender",
          "type": "string"
        },
        {
          "internalType": "uint256",
          "name": "_roleId",
          "type": "uint256"
        },
        {
          "internalType": "uint256",
          "name": "_regionId",
          "type": "uint256"
        }
      ],
      "name": "addUser",
      "outputs": [],
      "stateMutability": "nonpayable",
      "type": "function"
    },
    {
      "inputs": [
        {
          "internalType": "address",
          "name": "_userAddress",
          "type": "address"
        }
      ],
      "name": "getUser",
      "outputs": [
        {
          "components": [
            {
              "internalType": "uint256",
              "name": "id",
              "type": "uint256"
            },
            {
              "internalType": "string",
              "name": "name",
              "type": "string"
            },
            {
              "internalType": "string",
              "name": "email",
              "type": "string"
            },
            {
              "internalType": "string",
              "name": "userAddress",
              "type": "string"
            },
            {
              "internalType": "string",
              "name": "dob",
              "type": "string"
            },
            {
              "internalType": "string",
              "name": "gender",
              "type": "string"
            },
            {
              "internalType": "uint256",
              "name": "roleId",
              "type": "uint256"
            },
            {
              "internalType": "uint256",
              "name": "regionId",
              "type": "uint256"
            },
            {
              "internalType": "uint256",
              "name": "createdAt",
              "type": "uint256"
            }
          ],
          "internalType": "struct User.UserStruct",
          "name": "",
          "type": "tuple"
        }
      ],
      "stateMutability": "view",
      "type": "function"
    },
    {
      "inputs": [
        {
          "internalType": "uint256",
          "name": "_regionId",
          "type": "uint256"
        }
      ],
      "name": "getUsersByRegion",
      "outputs": [
        {
          "components": [
            {
              "internalType": "uint256",
              "name": "id",
              "type": "uint256"
            },
            {
              "internalType": "string",
              "name": "name",
              "type": "string"
            },
            {
              "internalType": "string",
              "name": "email",
              "type": "string"
            },
            {
              "internalType": "string",
              "name": "userAddress",
              "type": "string"
            },
            {
              "internalType": "string",
              "name": "dob",
              "type": "string"
            },
            {
              "internalType": "string",
              "name": "gender",
              "type": "string"
            },
            {
              "internalType": "uint256",
              "name": "roleId",
              "type": "uint256"
            },
            {
              "internalType": "uint256",
              "name": "regionId",
              "type": "uint256"
            },
            {
              "internalType": "uint256",
              "name": "createdAt",
              "type": "uint256"
            }
          ],
          "internalType": "struct User.UserStruct[]",
          "name": "",
          "type": "tuple[]"
        }
      ],
      "stateMutability": "view",
      "type": "function"
    }
  ],
  "bytecode": "0x608060405234801561001057600080fd5b5061194c806100206000396000f3fe608060405234801561001057600080fd5b50600436106100575760003560e01c806307973ccf1461005c578063421460621461007a5780636f77926b146100aa578063a837a713146100da578063a87430ba146100f6575b600080fd5b61006461012e565b6040516100719190611573565b60405180910390f35b610094600480360381019061008f919061122b565b610134565b6040516100a1919061152f565b60405180910390f35b6100c460048036038101906100bf91906110ec565b61077d565b6040516100d19190611551565b60405180910390f35b6100f460048036038101906100ef9190611115565b610ad8565b005b610110600480360381019061010b91906110ec565b610c75565b6040516101259998979695949392919061158e565b60405180910390f35b60015481565b606060008060015467ffffffffffffffff81111561017b577f4e487b7100000000000000000000000000000000000000000000000000000000600052604160045260246000fd5b6040519080825280602002602001820160405280156101a95781602001602082028036833780820191505090505b5090506000805b60015481101561026557856000808584815181106101f7577f4e487b7100000000000000000000000000000000000000000000000000000000600052603260045260246000fd5b602002602001015173ffffffffffffffffffffffffffffffffffffffff1673ffffffffffffffffffffffffffffffffffffffff16815260200190815260200160002060070154141561025257838061024e90611801565b9450505b808061025d90611801565b9150506101b0565b5060008367ffffffffffffffff8111156102a8577f4e487b7100000000000000000000000000000000000000000000000000000000600052604160045260246000fd5b6040519080825280602002602001820160405280156102e157816020015b6102ce610f6b565b8152602001906001900390816102c65790505b5090506000915060005b6001548110156107705786600080868481518110610332577f4e487b7100000000000000000000000000000000000000000000000000000000600052603260045260246000fd5b602002602001015173ffffffffffffffffffffffffffffffffffffffff1673ffffffffffffffffffffffffffffffffffffffff16815260200190815260200160002060070154141561075d576000808583815181106103ba577f4e487b7100000000000000000000000000000000000000000000000000000000600052603260045260246000fd5b602002602001015173ffffffffffffffffffffffffffffffffffffffff1673ffffffffffffffffffffffffffffffffffffffff1681526020019081526020016000206040518061012001604052908160008201548152602001600182018054610422906117cf565b80601f016020809104026020016040519081016040528092919081815260200182805461044e906117cf565b801561049b5780601f106104705761010080835404028352916020019161049b565b820191906000526020600020905b81548152906001019060200180831161047e57829003601f168201915b505050505081526020016002820180546104b4906117cf565b80601f01602080910402602001604051908101604052809291908181526020018280546104e0906117cf565b801561052d5780601f106105025761010080835404028352916020019161052d565b820191906000526020600020905b81548152906001019060200180831161051057829003601f168201915b50505050508152602001600382018054610546906117cf565b80601f0160208091040260200160405190810160405280929190818152602001828054610572906117cf565b80156105bf5780601f10610594576101008083540402835291602001916105bf565b820191906000526020600020905b8154815290600101906020018083116105a257829003601f168201915b505050505081526020016004820180546105d8906117cf565b80601f0160208091040260200160405190810160405280929190818152602001828054610604906117cf565b80156106515780601f1061062657610100808354040283529160200191610651565b820191906000526020600020905b81548152906001019060200180831161063457829003601f168201915b5050505050815260200160058201805461066a906117cf565b80601f0160208091040260200160405190810160405280929190818152602001828054610696906117cf565b80156106e35780601f106106b8576101008083540402835291602001916106e3565b820191906000526020600020905b8154815290600101906020018083116106c657829003601f168201915b505050505081526020016006820154815260200160078201548152602001600882015481525050828481518110610743577f4e487b7100000000000000000000000000000000000000000000000000000000600052603260045260246000fd5b6020026020010181905250828061075990611801565b9350505b808061076890611801565b9150506102eb565b5080945050505050919050565b610785610f6b565b6000808373ffffffffffffffffffffffffffffffffffffffff1673ffffffffffffffffffffffffffffffffffffffff16815260200190815260200160002060405180610120016040529081600082015481526020016001820180546107e9906117cf565b80601f0160208091040260200160405190810160405280929190818152602001828054610815906117cf565b80156108625780601f1061083757610100808354040283529160200191610862565b820191906000526020600020905b81548152906001019060200180831161084557829003601f168201915b5050505050815260200160028201805461087b906117cf565b80601f01602080910402602001604051908101604052809291908181526020018280546108a7906117cf565b80156108f45780601f106108c9576101008083540402835291602001916108f4565b820191906000526020600020905b8154815290600101906020018083116108d757829003601f168201915b5050505050815260200160038201805461090d906117cf565b80601f0160208091040260200160405190810160405280929190818152602001828054610939906117cf565b80156109865780601f1061095b57610100808354040283529160200191610986565b820191906000526020600020905b81548152906001019060200180831161096957829003601f168201915b5050505050815260200160048201805461099f906117cf565b80601f01602080910402602001604051908101604052809291908181526020018280546109cb906117cf565b8015610a185780601f106109ed57610100808354040283529160200191610a18565b820191906000526020600020905b8154815290600101906020018083116109fb57829003601f168201915b50505050508152602001600582018054610a31906117cf565b80601f0160208091040260200160405190810160405280929190818152602001828054610a5d906117cf565b8015610aaa5780601f10610a7f57610100808354040283529160200191610aaa565b820191906000526020600020905b815481529060010190602001808311610a8d57829003601f168201915b5050505050815260200160068201548152602001600782015481526020016008820154815250509050919050565b60016000815480929190610aeb90611801565b91905055506040518061012001604052806001548152602001888152602001878152602001868152602001858152602001848152602001838152602001828152602001428152506000803373ffffffffffffffffffffffffffffffffffffffff1673ffffffffffffffffffffffffffffffffffffffff168152602001908152602001600020600082015181600001556020820151816001019080519060200190610b96929190610fb7565b506040820151816002019080519060200190610bb3929190610fb7565b506060820151816003019080519060200190610bd0929190610fb7565b506080820151816004019080519060200190610bed929190610fb7565b5060a0820151816005019080519060200190610c0a929190610fb7565b5060c0820151816006015560e0820151816007015561010082015181600801559050507feabcb8900cdae60d1603d8999fadc9a0c2926e0483c42b49a361e5f14617dc21600154888484604051610c64949392919061163e565b60405180910390a150505050505050565b6000602052806000526040600020600091509050806000015490806001018054610c9e906117cf565b80601f0160208091040260200160405190810160405280929190818152602001828054610cca906117cf565b8015610d175780601f10610cec57610100808354040283529160200191610d17565b820191906000526020600020905b815481529060010190602001808311610cfa57829003601f168201915b505050505090806002018054610d2c906117cf565b80601f0160208091040260200160405190810160405280929190818152602001828054610d58906117cf565b8015610da55780601f10610d7a57610100808354040283529160200191610da5565b820191906000526020600020905b815481529060010190602001808311610d8857829003601f168201915b505050505090806003018054610dba906117cf565b80601f0160208091040260200160405190810160405280929190818152602001828054610de6906117cf565b8015610e335780601f10610e0857610100808354040283529160200191610e33565b820191906000526020600020905b815481529060010190602001808311610e1657829003601f168201915b505050505090806004018054610e48906117cf565b80601f0160208091040260200160405190810160405280929190818152602001828054610e74906117cf565b8015610ec15780601f10610e9657610100808354040283529160200191610ec1565b820191906000526020600020905b815481529060010190602001808311610ea457829003601f168201915b505050505090806005018054610ed6906117cf565b80601f0160208091040260200160405190810160405280929190818152602001828054610f02906117cf565b8015610f4f5780601f10610f2457610100808354040283529160200191610f4f565b820191906000526020600020905b815481529060010190602001808311610f3257829003601f168201915b5050505050908060060154908060070154908060080154905089565b6040518061012001604052806000815260200160608152602001606081526020016060815260200160608152602001606081526020016000815260200160008152602001600081525090565b828054610fc3906117cf565b90600052602060002090601f016020900481019282610fe5576000855561102c565b82601f10610ffe57805160ff191683800117855561102c565b8280016001018555821561102c579182015b8281111561102b578251825591602001919060010190611010565b5b509050611039919061103d565b5090565b5b8082111561105657600081600090555060010161103e565b5090565b600061106d611068846116bb565b61168a565b90508281526020810184848401111561108557600080fd5b61109084828561178d565b509392505050565b6000813590506110a7816118e8565b92915050565b600082601f8301126110be57600080fd5b81356110ce84826020860161105a565b91505092915050565b6000813590506110e6816118ff565b92915050565b6000602082840312156110fe57600080fd5b600061110c84828501611098565b91505092915050565b600080600080600080600060e0888a03121561113057600080fd5b600088013567ffffffffffffffff81111561114a57600080fd5b6111568a828b016110ad565b975050602088013567ffffffffffffffff81111561117357600080fd5b61117f8a828b016110ad565b965050604088013567ffffffffffffffff81111561119c57600080fd5b6111a88a828b016110ad565b955050606088013567ffffffffffffffff8111156111c557600080fd5b6111d18a828b016110ad565b945050608088013567ffffffffffffffff8111156111ee57600080fd5b6111fa8a828b016110ad565b93505060a061120b8a828b016110d7565b92505060c061121c8a828b016110d7565b91505092959891949750929550565b60006020828403121561123d57600080fd5b600061124b848285016110d7565b91505092915050565b6000611260838361134f565b905092915050565b6000611273826116fb565b61127d818561171e565b93508360208202850161128f856116eb565b8060005b858110156112cb57848403895281516112ac8582611254565b94506112b783611711565b925060208a01995050600181019050611293565b50829750879550505050505092915050565b60006112e882611706565b6112f2818561172f565b935061130281856020860161179c565b61130b816118d7565b840191505092915050565b600061132182611706565b61132b8185611740565b935061133b81856020860161179c565b611344816118d7565b840191505092915050565b6000610120830160008301516113686000860182611511565b506020830151848203602086015261138082826112dd565b9150506040830151848203604086015261139a82826112dd565b915050606083015184820360608601526113b482826112dd565b915050608083015184820360808601526113ce82826112dd565b91505060a083015184820360a08601526113e882826112dd565b91505060c08301516113fd60c0860182611511565b5060e083015161141060e0860182611511565b50610100830151611425610100860182611511565b508091505092915050565b6000610120830160008301516114496000860182611511565b506020830151848203602086015261146182826112dd565b9150506040830151848203604086015261147b82826112dd565b9150506060830151848203606086015261149582826112dd565b915050608083015184820360808601526114af82826112dd565b91505060a083015184820360a08601526114c982826112dd565b91505060c08301516114de60c0860182611511565b5060e08301516114f160e0860182611511565b50610100830151611506610100860182611511565b508091505092915050565b61151a81611783565b82525050565b61152981611783565b82525050565b600060208201905081810360008301526115498184611268565b905092915050565b6000602082019050818103600083015261156b8184611430565b905092915050565b60006020820190506115886000830184611520565b92915050565b6000610120820190506115a4600083018c611520565b81810360208301526115b6818b611316565b905081810360408301526115ca818a611316565b905081810360608301526115de8189611316565b905081810360808301526115f28188611316565b905081810360a08301526116068187611316565b905061161560c0830186611520565b61162260e0830185611520565b611630610100830184611520565b9a9950505050505050505050565b60006080820190506116536000830187611520565b81810360208301526116658186611316565b90506116746040830185611520565b6116816060830184611520565b95945050505050565b6000604051905081810181811067ffffffffffffffff821117156116b1576116b06118a8565b5b8060405250919050565b600067ffffffffffffffff8211156116d6576116d56118a8565b5b601f19601f8301169050602081019050919050565b6000819050602082019050919050565b600081519050919050565b600081519050919050565b6000602082019050919050565b600082825260208201905092915050565b600082825260208201905092915050565b600082825260208201905092915050565b600061175c82611763565b9050919050565b600073ffffffffffffffffffffffffffffffffffffffff82169050919050565b6000819050919050565b82818337600083830152505050565b60005b838110156117ba57808201518184015260208101905061179f565b838111156117c9576000848401525b50505050565b600060028204905060018216806117e757607f821691505b602082108114156117fb576117fa611879565b5b50919050565b600061180c82611783565b91507fffffffffffffffffffffffffffffffffffffffffffffffffffffffffffffffff82141561183f5761183e61184a565b5b600182019050919050565b7f4e487b7100000000000000000000000000000000000000000000000000000000600052601160045260246000fd5b7f4e487b7100000000000000000000000000000000000000000000000000000000600052602260045260246000fd5b7f4e487b7100000000000000000000000000000000000000000000000000000000600052604160045260246000fd5b6000601f19601f8301169050919050565b6118f181611751565b81146118fc57600080fd5b50565b61190881611783565b811461191357600080fd5b5056fea2646970667358221220aa5916a02798c52e6c36377bf579cbe33e08a0247805fcf273510c318cdd504564736f6c63430008000033",
  "immutableReferences": {},
  "source": "// SPDX-License-Identifier: MIT\r\npragma solidity ^0.8.0;\r\n\r\ncontract User {\r\n    struct UserStruct {\r\n        uint256 id;\r\n        string name;\r\n        string email;\r\n        string userAddress;\r\n        string dob;\r\n        string gender;\r\n        uint256 roleId; // 1: Farmer, 2: Inspector\r\n        uint256 regionId;\r\n        uint256 createdAt;\r\n    }\r\n\r\n    mapping(address => UserStruct) public users;\r\n    uint256 public userCount;\r\n\r\n    event UserAdded(uint256 id, string name, uint256 roleId, uint256 regionId);\r\n\r\n    function addUser(\r\n        string memory _name,\r\n        string memory _email,\r\n        string memory _userAddress,\r\n        string memory _dob,\r\n        string memory _gender,\r\n        uint256 _roleId,\r\n        uint256 _regionId\r\n    ) public {\r\n        userCount++;\r\n        users[msg.sender] = UserStruct({\r\n            id: userCount,\r\n            name: _name,\r\n            email: _email,\r\n            userAddress: _userAddress,\r\n            dob: _dob,\r\n            gender: _gender,\r\n            roleId: _roleId,\r\n            regionId: _regionId,\r\n            createdAt: block.timestamp\r\n        });\r\n\r\n        emit UserAdded(userCount, _name, _roleId, _regionId);\r\n    }\r\n\r\n    function getUser(address _userAddress) public view returns (UserStruct memory) {\r\n        return users[_userAddress];\r\n    }\r\n\r\n    function getUsersByRegion(uint256 _regionId) public view returns (UserStruct[] memory) {\r\n        uint256 count = 0;\r\n        address[] memory userAddresses = new address[](userCount);\r\n        uint256 index = 0;\r\n\r\n        for (uint256 i = 0; i < userCount; i++) {\r\n            if (users[userAddresses[i]].regionId == _regionId) {\r\n                count++;\r\n            }\r\n        }\r\n\r\n        UserStruct[] memory regionUsers = new UserStruct[](count);\r\n        index = 0;\r\n        for (uint256 i = 0; i < userCount; i++) {\r\n            if (users[userAddresses[i]].regionId == _regionId) {\r\n                regionUsers[index] = users[userAddresses[i]];\r\n                index++;\r\n            }\r\n        }\r\n\r\n        return regionUsers;\r\n    }\r\n}",
  "sourcePath": "D:\\projects\\startup\\contracts\\users\\user.sol",
  "compiler": {
    "name": "solc",
    "version": "0.8.0+commit.c7dfd78e.Emscripten.clang"
  },
  "schemaVersion": "3.4.16",
  "updatedAt": "2024-08-18T14:09:04.814Z",
  "devdoc": {
    "kind": "dev",
    "methods": {},
    "version": 1
  },
  "userdoc": {
    "kind": "user",
    "methods": {},
    "version": 1
  }
}