{
  "contractName": "User",
  "abi": [
    {
      "anonymous": false,
      "inputs": [
        {
          "indexed": false,
          "internalType": "uint256",
          "name": "id",
          "type": "uint256"
        },
        {
          "indexed": false,
          "internalType": "string",
          "name": "name",
          "type": "string"
        },
        {
          "indexed": false,
          "internalType": "uint256",
          "name": "roleId",
          "type": "uint256"
        },
        {
          "indexed": false,
          "internalType": "uint256",
          "name": "regionId",
          "type": "uint256"
        }
      ],
      "name": "UserAdded",
      "type": "event"
    },
    {
      "inputs": [
        {
          "internalType": "uint256",
          "name": "",
          "type": "uint256"
        }
      ],
      "name": "userAddresses",
      "outputs": [
        {
          "internalType": "address",
          "name": "",
          "type": "address"
        }
      ],
      "stateMutability": "view",
      "type": "function",
      "constant": true
    },
    {
      "inputs": [],
      "name": "userCount",
      "outputs": [
        {
          "internalType": "uint256",
          "name": "",
          "type": "uint256"
        }
      ],
      "stateMutability": "view",
      "type": "function",
      "constant": true
    },
    {
      "inputs": [
        {
          "internalType": "address",
          "name": "",
          "type": "address"
        }
      ],
      "name": "users",
      "outputs": [
        {
          "internalType": "uint256",
          "name": "id",
          "type": "uint256"
        },
        {
          "internalType": "string",
          "name": "name",
          "type": "string"
        },
        {
          "internalType": "string",
          "name": "email",
          "type": "string"
        },
        {
          "internalType": "string",
          "name": "userAddress",
          "type": "string"
        },
        {
          "internalType": "string",
          "name": "dob",
          "type": "string"
        },
        {
          "internalType": "string",
          "name": "gender",
          "type": "string"
        },
        {
          "internalType": "uint256",
          "name": "roleId",
          "type": "uint256"
        },
        {
          "internalType": "uint256",
          "name": "regionId",
          "type": "uint256"
        },
        {
          "internalType": "uint256",
          "name": "createdAt",
          "type": "uint256"
        }
      ],
      "stateMutability": "view",
      "type": "function",
      "constant": true
    },
    {
      "inputs": [
        {
          "internalType": "string",
          "name": "_name",
          "type": "string"
        },
        {
          "internalType": "string",
          "name": "_email",
          "type": "string"
        },
        {
          "internalType": "string",
          "name": "_userAddress",
          "type": "string"
        },
        {
          "internalType": "string",
          "name": "_dob",
          "type": "string"
        },
        {
          "internalType": "string",
          "name": "_gender",
          "type": "string"
        },
        {
          "internalType": "uint256",
          "name": "_roleId",
          "type": "uint256"
        },
        {
          "internalType": "uint256",
          "name": "_regionId",
          "type": "uint256"
        }
      ],
      "name": "addUser",
      "outputs": [],
      "stateMutability": "nonpayable",
      "type": "function"
    },
    {
      "inputs": [
        {
          "internalType": "address",
          "name": "_userAddress",
          "type": "address"
        }
      ],
      "name": "getUser",
      "outputs": [
        {
          "components": [
            {
              "internalType": "uint256",
              "name": "id",
              "type": "uint256"
            },
            {
              "internalType": "string",
              "name": "name",
              "type": "string"
            },
            {
              "internalType": "string",
              "name": "email",
              "type": "string"
            },
            {
              "internalType": "string",
              "name": "userAddress",
              "type": "string"
            },
            {
              "internalType": "string",
              "name": "dob",
              "type": "string"
            },
            {
              "internalType": "string",
              "name": "gender",
              "type": "string"
            },
            {
              "internalType": "uint256",
              "name": "roleId",
              "type": "uint256"
            },
            {
              "internalType": "uint256",
              "name": "regionId",
              "type": "uint256"
            },
            {
              "internalType": "uint256",
              "name": "createdAt",
              "type": "uint256"
            }
          ],
          "internalType": "struct User.UserStruct",
          "name": "",
          "type": "tuple"
        }
      ],
      "stateMutability": "view",
      "type": "function",
      "constant": true
    },
    {
      "inputs": [
        {
          "internalType": "uint256",
          "name": "_regionId",
          "type": "uint256"
        }
      ],
      "name": "getUsersByRegion",
      "outputs": [
        {
          "components": [
            {
              "internalType": "uint256",
              "name": "id",
              "type": "uint256"
            },
            {
              "internalType": "string",
              "name": "name",
              "type": "string"
            },
            {
              "internalType": "string",
              "name": "email",
              "type": "string"
            },
            {
              "internalType": "string",
              "name": "userAddress",
              "type": "string"
            },
            {
              "internalType": "string",
              "name": "dob",
              "type": "string"
            },
            {
              "internalType": "string",
              "name": "gender",
              "type": "string"
            },
            {
              "internalType": "uint256",
              "name": "roleId",
              "type": "uint256"
            },
            {
              "internalType": "uint256",
              "name": "regionId",
              "type": "uint256"
            },
            {
              "internalType": "uint256",
              "name": "createdAt",
              "type": "uint256"
            }
          ],
          "internalType": "struct User.UserStruct[]",
          "name": "",
          "type": "tuple[]"
        }
      ],
      "stateMutability": "view",
      "type": "function",
      "constant": true
    }
  ],
  "bytecode": "0x608060405234801561001057600080fd5b50611a4b806100206000396000f3fe608060405234801561001057600080fd5b50600436106100625760003560e01c806307973ccf146100675780634214606214610085578063502c9bd5146100b55780636f77926b146100e5578063a837a71314610115578063a87430ba14610131575b600080fd5b61006f610169565b60405161007c9190611672565b60405180910390f35b61009f600480360381019061009a9190611300565b61016f565b6040516100ac919061162e565b60405180910390f35b6100cf60048036038101906100ca9190611300565b6107b0565b6040516100dc9190611613565b60405180910390f35b6100ff60048036038101906100fa91906111c1565b6107ef565b60405161010c9190611650565b60405180910390f35b61012f600480360381019061012a91906111ea565b610b4a565b005b61014b600480360381019061014691906111c1565b610d4a565b6040516101609998979695949392919061168d565b60405180910390f35b60025481565b60606000805b6001805490508110156102515783600080600184815481106101c0577f4e487b7100000000000000000000000000000000000000000000000000000000600052603260045260246000fd5b9060005260206000200160009054906101000a900473ffffffffffffffffffffffffffffffffffffffff1673ffffffffffffffffffffffffffffffffffffffff1673ffffffffffffffffffffffffffffffffffffffff16815260200190815260200160002060070154141561023e57818061023a90611900565b9250505b808061024990611900565b915050610175565b5060008167ffffffffffffffff811115610294577f4e487b7100000000000000000000000000000000000000000000000000000000600052604160045260246000fd5b6040519080825280602002602001820160405280156102cd57816020015b6102ba611040565b8152602001906001900390816102b25790505b5090506000805b6001805490508110156107a457856000806001848154811061031f577f4e487b7100000000000000000000000000000000000000000000000000000000600052603260045260246000fd5b9060005260206000200160009054906101000a900473ffffffffffffffffffffffffffffffffffffffff1673ffffffffffffffffffffffffffffffffffffffff1673ffffffffffffffffffffffffffffffffffffffff16815260200190815260200160002060070154141561079157600080600183815481106103cb577f4e487b7100000000000000000000000000000000000000000000000000000000600052603260045260246000fd5b9060005260206000200160009054906101000a900473ffffffffffffffffffffffffffffffffffffffff1673ffffffffffffffffffffffffffffffffffffffff1673ffffffffffffffffffffffffffffffffffffffff1681526020019081526020016000206040518061012001604052908160008201548152602001600182018054610456906118ce565b80601f0160208091040260200160405190810160405280929190818152602001828054610482906118ce565b80156104cf5780601f106104a4576101008083540402835291602001916104cf565b820191906000526020600020905b8154815290600101906020018083116104b257829003601f168201915b505050505081526020016002820180546104e8906118ce565b80601f0160208091040260200160405190810160405280929190818152602001828054610514906118ce565b80156105615780601f1061053657610100808354040283529160200191610561565b820191906000526020600020905b81548152906001019060200180831161054457829003601f168201915b5050505050815260200160038201805461057a906118ce565b80601f01602080910402602001604051908101604052809291908181526020018280546105a6906118ce565b80156105f35780601f106105c8576101008083540402835291602001916105f3565b820191906000526020600020905b8154815290600101906020018083116105d657829003601f168201915b5050505050815260200160048201805461060c906118ce565b80601f0160208091040260200160405190810160405280929190818152602001828054610638906118ce565b80156106855780601f1061065a57610100808354040283529160200191610685565b820191906000526020600020905b81548152906001019060200180831161066857829003601f168201915b5050505050815260200160058201805461069e906118ce565b80601f01602080910402602001604051908101604052809291908181526020018280546106ca906118ce565b80156107175780601f106106ec57610100808354040283529160200191610717565b820191906000526020600020905b8154815290600101906020018083116106fa57829003601f168201915b505050505081526020016006820154815260200160078201548152602001600882015481525050838381518110610777577f4e487b7100000000000000000000000000000000000000000000000000000000600052603260045260246000fd5b6020026020010181905250818061078d90611900565b9250505b808061079c90611900565b9150506102d4565b50819350505050919050565b600181815481106107c057600080fd5b906000526020600020016000915054906101000a900473ffffffffffffffffffffffffffffffffffffffff1681565b6107f7611040565b6000808373ffffffffffffffffffffffffffffffffffffffff1673ffffffffffffffffffffffffffffffffffffffff168152602001908152602001600020604051806101200160405290816000820154815260200160018201805461085b906118ce565b80601f0160208091040260200160405190810160405280929190818152602001828054610887906118ce565b80156108d45780601f106108a9576101008083540402835291602001916108d4565b820191906000526020600020905b8154815290600101906020018083116108b757829003601f168201915b505050505081526020016002820180546108ed906118ce565b80601f0160208091040260200160405190810160405280929190818152602001828054610919906118ce565b80156109665780601f1061093b57610100808354040283529160200191610966565b820191906000526020600020905b81548152906001019060200180831161094957829003601f168201915b5050505050815260200160038201805461097f906118ce565b80601f01602080910402602001604051908101604052809291908181526020018280546109ab906118ce565b80156109f85780601f106109cd576101008083540402835291602001916109f8565b820191906000526020600020905b8154815290600101906020018083116109db57829003601f168201915b50505050508152602001600482018054610a11906118ce565b80601f0160208091040260200160405190810160405280929190818152602001828054610a3d906118ce565b8015610a8a5780601f10610a5f57610100808354040283529160200191610a8a565b820191906000526020600020905b815481529060010190602001808311610a6d57829003601f168201915b50505050508152602001600582018054610aa3906118ce565b80601f0160208091040260200160405190810160405280929190818152602001828054610acf906118ce565b8015610b1c5780601f10610af157610100808354040283529160200191610b1c565b820191906000526020600020905b815481529060010190602001808311610aff57829003601f168201915b5050505050815260200160068201548152602001600782015481526020016008820154815250509050919050565b60026000815480929190610b5d90611900565b91905055506040518061012001604052806002548152602001888152602001878152602001868152602001858152602001848152602001838152602001828152602001428152506000803373ffffffffffffffffffffffffffffffffffffffff1673ffffffffffffffffffffffffffffffffffffffff168152602001908152602001600020600082015181600001556020820151816001019080519060200190610c0892919061108c565b506040820151816002019080519060200190610c2592919061108c565b506060820151816003019080519060200190610c4292919061108c565b506080820151816004019080519060200190610c5f92919061108c565b5060a0820151816005019080519060200190610c7c92919061108c565b5060c0820151816006015560e0820151816007015561010082015181600801559050506001339080600181540180825580915050600190039060005260206000200160009091909190916101000a81548173ffffffffffffffffffffffffffffffffffffffff021916908373ffffffffffffffffffffffffffffffffffffffff1602179055507feabcb8900cdae60d1603d8999fadc9a0c2926e0483c42b49a361e5f14617dc21600254888484604051610d39949392919061173d565b60405180910390a150505050505050565b6000602052806000526040600020600091509050806000015490806001018054610d73906118ce565b80601f0160208091040260200160405190810160405280929190818152602001828054610d9f906118ce565b8015610dec5780601f10610dc157610100808354040283529160200191610dec565b820191906000526020600020905b815481529060010190602001808311610dcf57829003601f168201915b505050505090806002018054610e01906118ce565b80601f0160208091040260200160405190810160405280929190818152602001828054610e2d906118ce565b8015610e7a5780601f10610e4f57610100808354040283529160200191610e7a565b820191906000526020600020905b815481529060010190602001808311610e5d57829003601f168201915b505050505090806003018054610e8f906118ce565b80601f0160208091040260200160405190810160405280929190818152602001828054610ebb906118ce565b8015610f085780601f10610edd57610100808354040283529160200191610f08565b820191906000526020600020905b815481529060010190602001808311610eeb57829003601f168201915b505050505090806004018054610f1d906118ce565b80601f0160208091040260200160405190810160405280929190818152602001828054610f49906118ce565b8015610f965780601f10610f6b57610100808354040283529160200191610f96565b820191906000526020600020905b815481529060010190602001808311610f7957829003601f168201915b505050505090806005018054610fab906118ce565b80601f0160208091040260200160405190810160405280929190818152602001828054610fd7906118ce565b80156110245780601f10610ff957610100808354040283529160200191611024565b820191906000526020600020905b81548152906001019060200180831161100757829003601f168201915b5050505050908060060154908060070154908060080154905089565b6040518061012001604052806000815260200160608152602001606081526020016060815260200160608152602001606081526020016000815260200160008152602001600081525090565b828054611098906118ce565b90600052602060002090601f0160209004810192826110ba5760008555611101565b82601f106110d357805160ff1916838001178555611101565b82800160010185558215611101579182015b828111156111005782518255916020019190600101906110e5565b5b50905061110e9190611112565b5090565b5b8082111561112b576000816000905550600101611113565b5090565b600061114261113d846117ba565b611789565b90508281526020810184848401111561115a57600080fd5b61116584828561188c565b509392505050565b60008135905061117c816119e7565b92915050565b600082601f83011261119357600080fd5b81356111a384826020860161112f565b91505092915050565b6000813590506111bb816119fe565b92915050565b6000602082840312156111d357600080fd5b60006111e18482850161116d565b91505092915050565b600080600080600080600060e0888a03121561120557600080fd5b600088013567ffffffffffffffff81111561121f57600080fd5b61122b8a828b01611182565b975050602088013567ffffffffffffffff81111561124857600080fd5b6112548a828b01611182565b965050604088013567ffffffffffffffff81111561127157600080fd5b61127d8a828b01611182565b955050606088013567ffffffffffffffff81111561129a57600080fd5b6112a68a828b01611182565b945050608088013567ffffffffffffffff8111156112c357600080fd5b6112cf8a828b01611182565b93505060a06112e08a828b016111ac565b92505060c06112f18a828b016111ac565b91505092959891949750929550565b60006020828403121561131257600080fd5b6000611320848285016111ac565b91505092915050565b60006113358383611433565b905092915050565b61134681611850565b82525050565b6000611357826117fa565b611361818561181d565b935083602082028501611373856117ea565b8060005b858110156113af57848403895281516113908582611329565b945061139b83611810565b925060208a01995050600181019050611377565b50829750879550505050505092915050565b60006113cc82611805565b6113d6818561182e565b93506113e681856020860161189b565b6113ef816119d6565b840191505092915050565b600061140582611805565b61140f818561183f565b935061141f81856020860161189b565b611428816119d6565b840191505092915050565b60006101208301600083015161144c60008601826115f5565b506020830151848203602086015261146482826113c1565b9150506040830151848203604086015261147e82826113c1565b9150506060830151848203606086015261149882826113c1565b915050608083015184820360808601526114b282826113c1565b91505060a083015184820360a08601526114cc82826113c1565b91505060c08301516114e160c08601826115f5565b5060e08301516114f460e08601826115f5565b506101008301516115096101008601826115f5565b508091505092915050565b60006101208301600083015161152d60008601826115f5565b506020830151848203602086015261154582826113c1565b9150506040830151848203604086015261155f82826113c1565b9150506060830151848203606086015261157982826113c1565b9150506080830151848203608086015261159382826113c1565b91505060a083015184820360a08601526115ad82826113c1565b91505060c08301516115c260c08601826115f5565b5060e08301516115d560e08601826115f5565b506101008301516115ea6101008601826115f5565b508091505092915050565b6115fe81611882565b82525050565b61160d81611882565b82525050565b6000602082019050611628600083018461133d565b92915050565b60006020820190508181036000830152611648818461134c565b905092915050565b6000602082019050818103600083015261166a8184611514565b905092915050565b60006020820190506116876000830184611604565b92915050565b6000610120820190506116a3600083018c611604565b81810360208301526116b5818b6113fa565b905081810360408301526116c9818a6113fa565b905081810360608301526116dd81896113fa565b905081810360808301526116f181886113fa565b905081810360a083015261170581876113fa565b905061171460c0830186611604565b61172160e0830185611604565b61172f610100830184611604565b9a9950505050505050505050565b60006080820190506117526000830187611604565b818103602083015261176481866113fa565b90506117736040830185611604565b6117806060830184611604565b95945050505050565b6000604051905081810181811067ffffffffffffffff821117156117b0576117af6119a7565b5b8060405250919050565b600067ffffffffffffffff8211156117d5576117d46119a7565b5b601f19601f8301169050602081019050919050565b6000819050602082019050919050565b600081519050919050565b600081519050919050565b6000602082019050919050565b600082825260208201905092915050565b600082825260208201905092915050565b600082825260208201905092915050565b600061185b82611862565b9050919050565b600073ffffffffffffffffffffffffffffffffffffffff82169050919050565b6000819050919050565b82818337600083830152505050565b60005b838110156118b957808201518184015260208101905061189e565b838111156118c8576000848401525b50505050565b600060028204905060018216806118e657607f821691505b602082108114156118fa576118f9611978565b5b50919050565b600061190b82611882565b91507fffffffffffffffffffffffffffffffffffffffffffffffffffffffffffffffff82141561193e5761193d611949565b5b600182019050919050565b7f4e487b7100000000000000000000000000000000000000000000000000000000600052601160045260246000fd5b7f4e487b7100000000000000000000000000000000000000000000000000000000600052602260045260246000fd5b7f4e487b7100000000000000000000000000000000000000000000000000000000600052604160045260246000fd5b6000601f19601f8301169050919050565b6119f081611850565b81146119fb57600080fd5b50565b611a0781611882565b8114611a1257600080fd5b5056fea264697066735822122069511f5f4cde7f617338f7e574754986b109e8e90aa19cb8bea064b2f12df1a564736f6c63430008000033",
  "immutableReferences": {},
  "source": "// SPDX-License-Identifier: MIT\r\npragma solidity ^0.8.0;\r\n\r\ncontract User {\r\n    struct UserStruct {\r\n        uint256 id;\r\n        string name;\r\n        string email;\r\n        string userAddress;\r\n        string dob;\r\n        string gender;\r\n        uint256 roleId; // 1: Farmer, 2: Inspector\r\n        uint256 regionId;\r\n        uint256 createdAt;\r\n    }\r\n\r\n    mapping(address => UserStruct) public users;\r\n    address[] public userAddresses;\r\n    uint256 public userCount;\r\n\r\n    event UserAdded(uint256 id, string name, uint256 roleId, uint256 regionId);\r\n\r\n    function addUser(\r\n        string memory _name,\r\n        string memory _email,\r\n        string memory _userAddress,\r\n        string memory _dob,\r\n        string memory _gender,\r\n        uint256 _roleId,\r\n        uint256 _regionId\r\n    ) public {\r\n        userCount++;\r\n        users[msg.sender] = UserStruct({\r\n            id: userCount,\r\n            name: _name,\r\n            email: _email,\r\n            userAddress: _userAddress,\r\n            dob: _dob,\r\n            gender: _gender,\r\n            roleId: _roleId,\r\n            regionId: _regionId,\r\n            createdAt: block.timestamp\r\n        });\r\n\r\n        userAddresses.push(msg.sender);\r\n\r\n        emit UserAdded(userCount, _name, _roleId, _regionId);\r\n    }\r\n\r\n    function getUser(address _userAddress) public view returns (UserStruct memory) {\r\n        return users[_userAddress];\r\n    }\r\n\r\n    function getUsersByRegion(uint256 _regionId) public view returns (UserStruct[] memory) {\r\n        uint256 count = 0;\r\n        for (uint256 i = 0; i < userAddresses.length; i++) {\r\n            if (users[userAddresses[i]].regionId == _regionId) {\r\n                count++;\r\n            }\r\n        }\r\n\r\n        UserStruct[] memory regionUsers = new UserStruct[](count);\r\n        uint256 index = 0;\r\n        for (uint256 i = 0; i < userAddresses.length; i++) {\r\n            if (users[userAddresses[i]].regionId == _regionId) {\r\n                regionUsers[index] = users[userAddresses[i]];\r\n                index++;\r\n            }\r\n        }\r\n\r\n        return regionUsers;\r\n    }\r\n}\r\n",
  "sourcePath": "D:\\projects\\startup\\contracts\\users\\user.sol",
  "compiler": {
    "name": "solc",
    "version": "0.8.0+commit.c7dfd78e.Emscripten.clang"
  },
  "schemaVersion": "3.4.16",
  "updatedAt": "2024-08-19T13:20:28.705Z",
  "networkType": "ethereum",
  "devdoc": {
    "kind": "dev",
    "methods": {},
    "version": 1
  },
  "userdoc": {
    "kind": "user",
    "methods": {},
    "version": 1
  }
}