{
  "contractName": "UserProductBatch",
  "abi": [
    {
      "inputs": [
        {
          "internalType": "address",
          "name": "_productContractAddress",
          "type": "address"
        }
      ],
      "stateMutability": "nonpayable",
      "type": "constructor"
    },
    {
      "anonymous": false,
      "inputs": [
        {
          "indexed": false,
          "internalType": "string",
          "name": "code",
          "type": "string"
        },
        {
          "indexed": false,
          "internalType": "uint256",
          "name": "productId",
          "type": "uint256"
        },
        {
          "indexed": false,
          "internalType": "uint256",
          "name": "quantity",
          "type": "uint256"
        }
      ],
      "name": "BatchAdded",
      "type": "event"
    },
    {
      "anonymous": false,
      "inputs": [
        {
          "indexed": false,
          "internalType": "uint256",
          "name": "id",
          "type": "uint256"
        },
        {
          "indexed": false,
          "internalType": "string",
          "name": "name",
          "type": "string"
        },
        {
          "indexed": false,
          "internalType": "string",
          "name": "description",
          "type": "string"
        }
      ],
      "name": "ProductAdded",
      "type": "event"
    },
    {
      "anonymous": false,
      "inputs": [
        {
          "indexed": false,
          "internalType": "uint256",
          "name": "id",
          "type": "uint256"
        },
        {
          "indexed": false,
          "internalType": "string",
          "name": "name",
          "type": "string"
        },
        {
          "indexed": false,
          "internalType": "uint256",
          "name": "roleId",
          "type": "uint256"
        },
        {
          "indexed": false,
          "internalType": "uint256",
          "name": "regionId",
          "type": "uint256"
        }
      ],
      "name": "UserAdded",
      "type": "event"
    },
    {
      "inputs": [
        {
          "internalType": "string",
          "name": "_code",
          "type": "string"
        },
        {
          "internalType": "uint256",
          "name": "_productId",
          "type": "uint256"
        },
        {
          "internalType": "uint256",
          "name": "_quantity",
          "type": "uint256"
        },
        {
          "internalType": "string",
          "name": "_productionDate",
          "type": "string"
        },
        {
          "internalType": "string",
          "name": "_expireDate",
          "type": "string"
        }
      ],
      "name": "addBatch",
      "outputs": [],
      "stateMutability": "nonpayable",
      "type": "function"
    },
    {
      "inputs": [
        {
          "internalType": "uint256",
          "name": "_productId",
          "type": "uint256"
        },
        {
          "internalType": "string",
          "name": "_batchCode",
          "type": "string"
        }
      ],
      "name": "addBatchToProduct",
      "outputs": [],
      "stateMutability": "nonpayable",
      "type": "function"
    },
    {
      "inputs": [
        {
          "internalType": "string",
          "name": "_name",
          "type": "string"
        },
        {
          "internalType": "string",
          "name": "_description",
          "type": "string"
        }
      ],
      "name": "addProduct",
      "outputs": [],
      "stateMutability": "nonpayable",
      "type": "function"
    },
    {
      "inputs": [
        {
          "internalType": "string",
          "name": "_name",
          "type": "string"
        },
        {
          "internalType": "string",
          "name": "_email",
          "type": "string"
        },
        {
          "internalType": "string",
          "name": "_userAddress",
          "type": "string"
        },
        {
          "internalType": "string",
          "name": "_dob",
          "type": "string"
        },
        {
          "internalType": "string",
          "name": "_gender",
          "type": "string"
        },
        {
          "internalType": "uint256",
          "name": "_roleId",
          "type": "uint256"
        },
        {
          "internalType": "uint256",
          "name": "_regionId",
          "type": "uint256"
        }
      ],
      "name": "addUser",
      "outputs": [],
      "stateMutability": "nonpayable",
      "type": "function"
    },
    {
      "inputs": [
        {
          "internalType": "string",
          "name": "",
          "type": "string"
        }
      ],
      "name": "batches",
      "outputs": [
        {
          "internalType": "string",
          "name": "code",
          "type": "string"
        },
        {
          "internalType": "uint256",
          "name": "productId",
          "type": "uint256"
        },
        {
          "internalType": "uint256",
          "name": "quantity",
          "type": "uint256"
        },
        {
          "internalType": "string",
          "name": "productionDate",
          "type": "string"
        },
        {
          "internalType": "string",
          "name": "expireDate",
          "type": "string"
        },
        {
          "internalType": "uint256",
          "name": "createdAt",
          "type": "uint256"
        }
      ],
      "stateMutability": "view",
      "type": "function"
    },
    {
      "inputs": [
        {
          "internalType": "uint256",
          "name": "_productId",
          "type": "uint256"
        }
      ],
      "name": "getBatchesByProduct",
      "outputs": [
        {
          "internalType": "string[]",
          "name": "",
          "type": "string[]"
        }
      ],
      "stateMutability": "view",
      "type": "function"
    },
    {
      "inputs": [
        {
          "internalType": "address",
          "name": "_userAddress",
          "type": "address"
        }
      ],
      "name": "getUser",
      "outputs": [
        {
          "components": [
            {
              "internalType": "uint256",
              "name": "id",
              "type": "uint256"
            },
            {
              "internalType": "string",
              "name": "name",
              "type": "string"
            },
            {
              "internalType": "string",
              "name": "email",
              "type": "string"
            },
            {
              "internalType": "string",
              "name": "userAddress",
              "type": "string"
            },
            {
              "internalType": "string",
              "name": "dob",
              "type": "string"
            },
            {
              "internalType": "string",
              "name": "gender",
              "type": "string"
            },
            {
              "internalType": "uint256",
              "name": "roleId",
              "type": "uint256"
            },
            {
              "internalType": "uint256",
              "name": "regionId",
              "type": "uint256"
            },
            {
              "internalType": "uint256",
              "name": "createdAt",
              "type": "uint256"
            }
          ],
          "internalType": "struct User.UserStruct",
          "name": "",
          "type": "tuple"
        }
      ],
      "stateMutability": "view",
      "type": "function"
    },
    {
      "inputs": [
        {
          "internalType": "uint256",
          "name": "_regionId",
          "type": "uint256"
        }
      ],
      "name": "getUsersByRegion",
      "outputs": [
        {
          "components": [
            {
              "internalType": "uint256",
              "name": "id",
              "type": "uint256"
            },
            {
              "internalType": "string",
              "name": "name",
              "type": "string"
            },
            {
              "internalType": "string",
              "name": "email",
              "type": "string"
            },
            {
              "internalType": "string",
              "name": "userAddress",
              "type": "string"
            },
            {
              "internalType": "string",
              "name": "dob",
              "type": "string"
            },
            {
              "internalType": "string",
              "name": "gender",
              "type": "string"
            },
            {
              "internalType": "uint256",
              "name": "roleId",
              "type": "uint256"
            },
            {
              "internalType": "uint256",
              "name": "regionId",
              "type": "uint256"
            },
            {
              "internalType": "uint256",
              "name": "createdAt",
              "type": "uint256"
            }
          ],
          "internalType": "struct User.UserStruct[]",
          "name": "",
          "type": "tuple[]"
        }
      ],
      "stateMutability": "view",
      "type": "function"
    },
    {
      "inputs": [
        {
          "internalType": "uint256",
          "name": "",
          "type": "uint256"
        },
        {
          "internalType": "uint256",
          "name": "",
          "type": "uint256"
        }
      ],
      "name": "productBatches",
      "outputs": [
        {
          "internalType": "string",
          "name": "",
          "type": "string"
        }
      ],
      "stateMutability": "view",
      "type": "function"
    },
    {
      "inputs": [],
      "name": "productCount",
      "outputs": [
        {
          "internalType": "uint256",
          "name": "",
          "type": "uint256"
        }
      ],
      "stateMutability": "view",
      "type": "function"
    },
    {
      "inputs": [
        {
          "internalType": "uint256",
          "name": "",
          "type": "uint256"
        }
      ],
      "name": "products",
      "outputs": [
        {
          "internalType": "uint256",
          "name": "id",
          "type": "uint256"
        },
        {
          "internalType": "string",
          "name": "name",
          "type": "string"
        },
        {
          "internalType": "string",
          "name": "description",
          "type": "string"
        },
        {
          "internalType": "uint256",
          "name": "createdAt",
          "type": "uint256"
        }
      ],
      "stateMutability": "view",
      "type": "function"
    },
    {
      "inputs": [
        {
          "internalType": "uint256",
          "name": "",
          "type": "uint256"
        }
      ],
      "name": "userAddresses",
      "outputs": [
        {
          "internalType": "address",
          "name": "",
          "type": "address"
        }
      ],
      "stateMutability": "view",
      "type": "function"
    },
    {
      "inputs": [],
      "name": "userCount",
      "outputs": [
        {
          "internalType": "uint256",
          "name": "",
          "type": "uint256"
        }
      ],
      "stateMutability": "view",
      "type": "function"
    },
    {
      "inputs": [
        {
          "internalType": "address",
          "name": "",
          "type": "address"
        }
      ],
      "name": "users",
      "outputs": [
        {
          "internalType": "uint256",
          "name": "id",
          "type": "uint256"
        },
        {
          "internalType": "string",
          "name": "name",
          "type": "string"
        },
        {
          "internalType": "string",
          "name": "email",
          "type": "string"
        },
        {
          "internalType": "string",
          "name": "userAddress",
          "type": "string"
        },
        {
          "internalType": "string",
          "name": "dob",
          "type": "string"
        },
        {
          "internalType": "string",
          "name": "gender",
          "type": "string"
        },
        {
          "internalType": "uint256",
          "name": "roleId",
          "type": "uint256"
        },
        {
          "internalType": "uint256",
          "name": "regionId",
          "type": "uint256"
        },
        {
          "internalType": "uint256",
          "name": "createdAt",
          "type": "uint256"
        }
      ],
      "stateMutability": "view",
      "type": "function"
    }
  ],
  "bytecode": "0x60806040523480156200001157600080fd5b50604051620029a2380380620029a2833981810160405281019062000037919062000098565b8080600760006101000a81548173ffffffffffffffffffffffffffffffffffffffff021916908373ffffffffffffffffffffffffffffffffffffffff160217905550505062000112565b6000815190506200009281620000f8565b92915050565b600060208284031215620000ab57600080fd5b6000620000bb8482850162000081565b91505092915050565b6000620000d182620000d8565b9050919050565b600073ffffffffffffffffffffffffffffffffffffffff82169050919050565b6200010381620000c4565b81146200010f57600080fd5b50565b61288080620001226000396000f3fe608060405234801561001057600080fd5b50600436106100ea5760003560e01c8063927968141161008c578063a87430ba11610066578063a87430ba14610289578063a8d2aa90146102c1578063ca2efb55146102f1578063e0f6ef871461030d576100ea565b80639279681414610235578063991a3c3a14610251578063a837a7131461026d576100ea565b80636ac52d8f116100c85780636ac52d8f1461016d5780636f77926b1461019d5780637acc0b20146101cd5780637ef1446a14610200576100ea565b806307973ccf146100ef578063421460621461010d578063502c9bd51461013d575b600080fd5b6100f761032b565b604051610104919061239b565b60405180910390f35b61012760048036038101906101229190611dd0565b610331565b6040516101349190612281565b60405180910390f35b61015760048036038101906101529190611dd0565b610972565b6040516101649190612244565b60405180910390f35b61018760048036038101906101829190611e4d565b6109b1565b60405161019491906122a3565b60405180910390f35b6101b760048036038101906101b29190611b25565b610a6a565b6040516101c49190612379565b60405180910390f35b6101e760048036038101906101e29190611dd0565b610dc5565b6040516101f794939291906124db565b60405180910390f35b61021a60048036038101906102159190611b4e565b610f05565b60405161022c96959493929190612303565b60405180910390f35b61024f600480360381019061024a9190611d11565b6110ef565b005b61026b60048036038101906102669190611df9565b611289565b005b61028760048036038101906102829190611bfb565b6112da565b005b6102a3600480360381019061029e9190611b25565b6114da565b6040516102b89998979695949392919061242b565b60405180910390f35b6102db60048036038101906102d69190611dd0565b6117d0565b6040516102e8919061225f565b60405180910390f35b61030b60048036038101906103069190611b8f565b6118bc565b005b61031561199e565b604051610322919061239b565b60405180910390f35b60025481565b60606000805b600180549050811015610413578360008060018481548110610382577f4e487b7100000000000000000000000000000000000000000000000000000000600052603260045260246000fd5b9060005260206000200160009054906101000a900473ffffffffffffffffffffffffffffffffffffffff1673ffffffffffffffffffffffffffffffffffffffff1673ffffffffffffffffffffffffffffffffffffffff1681526020019081526020016000206007015414156104005781806103fc90612735565b9250505b808061040b90612735565b915050610337565b5060008167ffffffffffffffff811115610456577f4e487b7100000000000000000000000000000000000000000000000000000000600052604160045260246000fd5b60405190808252806020026020018201604052801561048f57816020015b61047c6119a4565b8152602001906001900390816104745790505b5090506000805b6001805490508110156109665785600080600184815481106104e1577f4e487b7100000000000000000000000000000000000000000000000000000000600052603260045260246000fd5b9060005260206000200160009054906101000a900473ffffffffffffffffffffffffffffffffffffffff1673ffffffffffffffffffffffffffffffffffffffff1673ffffffffffffffffffffffffffffffffffffffff168152602001908152602001600020600701541415610953576000806001838154811061058d577f4e487b7100000000000000000000000000000000000000000000000000000000600052603260045260246000fd5b9060005260206000200160009054906101000a900473ffffffffffffffffffffffffffffffffffffffff1673ffffffffffffffffffffffffffffffffffffffff1673ffffffffffffffffffffffffffffffffffffffff168152602001908152602001600020604051806101200160405290816000820154815260200160018201805461061890612703565b80601f016020809104026020016040519081016040528092919081815260200182805461064490612703565b80156106915780601f1061066657610100808354040283529160200191610691565b820191906000526020600020905b81548152906001019060200180831161067457829003601f168201915b505050505081526020016002820180546106aa90612703565b80601f01602080910402602001604051908101604052809291908181526020018280546106d690612703565b80156107235780601f106106f857610100808354040283529160200191610723565b820191906000526020600020905b81548152906001019060200180831161070657829003601f168201915b5050505050815260200160038201805461073c90612703565b80601f016020809104026020016040519081016040528092919081815260200182805461076890612703565b80156107b55780601f1061078a576101008083540402835291602001916107b5565b820191906000526020600020905b81548152906001019060200180831161079857829003601f168201915b505050505081526020016004820180546107ce90612703565b80601f01602080910402602001604051908101604052809291908181526020018280546107fa90612703565b80156108475780601f1061081c57610100808354040283529160200191610847565b820191906000526020600020905b81548152906001019060200180831161082a57829003601f168201915b5050505050815260200160058201805461086090612703565b80601f016020809104026020016040519081016040528092919081815260200182805461088c90612703565b80156108d95780601f106108ae576101008083540402835291602001916108d9565b820191906000526020600020905b8154815290600101906020018083116108bc57829003601f168201915b505050505081526020016006820154815260200160078201548152602001600882015481525050838381518110610939577f4e487b7100000000000000000000000000000000000000000000000000000000600052603260045260246000fd5b6020026020010181905250818061094f90612735565b9250505b808061095e90612735565b915050610496565b50819350505050919050565b6001818154811061098257600080fd5b906000526020600020016000915054906101000a900473ffffffffffffffffffffffffffffffffffffffff1681565b600460205281600052604060002081815481106109cd57600080fd5b906000526020600020016000915091505080546109e990612703565b80601f0160208091040260200160405190810160405280929190818152602001828054610a1590612703565b8015610a625780601f10610a3757610100808354040283529160200191610a62565b820191906000526020600020905b815481529060010190602001808311610a4557829003601f168201915b505050505081565b610a726119a4565b6000808373ffffffffffffffffffffffffffffffffffffffff1673ffffffffffffffffffffffffffffffffffffffff1681526020019081526020016000206040518061012001604052908160008201548152602001600182018054610ad690612703565b80601f0160208091040260200160405190810160405280929190818152602001828054610b0290612703565b8015610b4f5780601f10610b2457610100808354040283529160200191610b4f565b820191906000526020600020905b815481529060010190602001808311610b3257829003601f168201915b50505050508152602001600282018054610b6890612703565b80601f0160208091040260200160405190810160405280929190818152602001828054610b9490612703565b8015610be15780601f10610bb657610100808354040283529160200191610be1565b820191906000526020600020905b815481529060010190602001808311610bc457829003601f168201915b50505050508152602001600382018054610bfa90612703565b80601f0160208091040260200160405190810160405280929190818152602001828054610c2690612703565b8015610c735780601f10610c4857610100808354040283529160200191610c73565b820191906000526020600020905b815481529060010190602001808311610c5657829003601f168201915b50505050508152602001600482018054610c8c90612703565b80601f0160208091040260200160405190810160405280929190818152602001828054610cb890612703565b8015610d055780601f10610cda57610100808354040283529160200191610d05565b820191906000526020600020905b815481529060010190602001808311610ce857829003601f168201915b50505050508152602001600582018054610d1e90612703565b80601f0160208091040260200160405190810160405280929190818152602001828054610d4a90612703565b8015610d975780601f10610d6c57610100808354040283529160200191610d97565b820191906000526020600020905b815481529060010190602001808311610d7a57829003601f168201915b5050505050815260200160068201548152602001600782015481526020016008820154815250509050919050565b6003602052806000526040600020600091509050806000015490806001018054610dee90612703565b80601f0160208091040260200160405190810160405280929190818152602001828054610e1a90612703565b8015610e675780601f10610e3c57610100808354040283529160200191610e67565b820191906000526020600020905b815481529060010190602001808311610e4a57829003601f168201915b505050505090806002018054610e7c90612703565b80601f0160208091040260200160405190810160405280929190818152602001828054610ea890612703565b8015610ef55780601f10610eca57610100808354040283529160200191610ef5565b820191906000526020600020905b815481529060010190602001808311610ed857829003601f168201915b5050505050908060030154905084565b600681805160208101820180518482526020830160208501208183528095505050505050600091509050806000018054610f3e90612703565b80601f0160208091040260200160405190810160405280929190818152602001828054610f6a90612703565b8015610fb75780601f10610f8c57610100808354040283529160200191610fb7565b820191906000526020600020905b815481529060010190602001808311610f9a57829003601f168201915b505050505090806001015490806002015490806003018054610fd890612703565b80601f016020809104026020016040519081016040528092919081815260200182805461100490612703565b80156110515780601f1061102657610100808354040283529160200191611051565b820191906000526020600020905b81548152906001019060200180831161103457829003601f168201915b50505050509080600401805461106690612703565b80601f016020809104026020016040519081016040528092919081815260200182805461109290612703565b80156110df5780601f106110b4576101008083540402835291602001916110df565b820191906000526020600020905b8154815290600101906020018083116110c257829003601f168201915b5050505050908060050154905086565b60006040518060c0016040528087815260200186815260200185815260200184815260200183815260200142815250905080600687604051611131919061222d565b9081526020016040518091039020600082015181600001908051906020019061115b9291906119f0565b506020820151816001015560408201518160020155606082015181600301908051906020019061118c9291906119f0565b5060808201518160040190805190602001906111a99291906119f0565b5060a08201518160050155905050600760009054906101000a900473ffffffffffffffffffffffffffffffffffffffff1673ffffffffffffffffffffffffffffffffffffffff1663991a3c3a86886040518363ffffffff1660e01b81526004016112149291906123b6565b600060405180830381600087803b15801561122e57600080fd5b505af1158015611242573d6000803e3d6000fd5b505050507f4d0cb973f6b46b3e44d83c8b26707101f256c9ff9d01430a6fdcf0427ffb57d0868686604051611279939291906122c5565b60405180910390a1505050505050565b60046000838152602001908152602001600020819080600181540180825580915050600190039060005260206000200160009091909190915090805190602001906112d59291906119f0565b505050565b600260008154809291906112ed90612735565b91905055506040518061012001604052806002548152602001888152602001878152602001868152602001858152602001848152602001838152602001828152602001428152506000803373ffffffffffffffffffffffffffffffffffffffff1673ffffffffffffffffffffffffffffffffffffffff1681526020019081526020016000206000820151816000015560208201518160010190805190602001906113989291906119f0565b5060408201518160020190805190602001906113b59291906119f0565b5060608201518160030190805190602001906113d29291906119f0565b5060808201518160040190805190602001906113ef9291906119f0565b5060a082015181600501908051906020019061140c9291906119f0565b5060c0820151816006015560e0820151816007015561010082015181600801559050506001339080600181540180825580915050600190039060005260206000200160009091909190916101000a81548173ffffffffffffffffffffffffffffffffffffffff021916908373ffffffffffffffffffffffffffffffffffffffff1602179055507feabcb8900cdae60d1603d8999fadc9a0c2926e0483c42b49a361e5f14617dc216002548884846040516114c9949392919061252e565b60405180910390a150505050505050565b600060205280600052604060002060009150905080600001549080600101805461150390612703565b80601f016020809104026020016040519081016040528092919081815260200182805461152f90612703565b801561157c5780601f106115515761010080835404028352916020019161157c565b820191906000526020600020905b81548152906001019060200180831161155f57829003601f168201915b50505050509080600201805461159190612703565b80601f01602080910402602001604051908101604052809291908181526020018280546115bd90612703565b801561160a5780601f106115df5761010080835404028352916020019161160a565b820191906000526020600020905b8154815290600101906020018083116115ed57829003601f168201915b50505050509080600301805461161f90612703565b80601f016020809104026020016040519081016040528092919081815260200182805461164b90612703565b80156116985780601f1061166d57610100808354040283529160200191611698565b820191906000526020600020905b81548152906001019060200180831161167b57829003601f168201915b5050505050908060040180546116ad90612703565b80601f01602080910402602001604051908101604052809291908181526020018280546116d990612703565b80156117265780601f106116fb57610100808354040283529160200191611726565b820191906000526020600020905b81548152906001019060200180831161170957829003601f168201915b50505050509080600501805461173b90612703565b80601f016020809104026020016040519081016040528092919081815260200182805461176790612703565b80156117b45780601f10611789576101008083540402835291602001916117b4565b820191906000526020600020905b81548152906001019060200180831161179757829003601f168201915b5050505050908060060154908060070154908060080154905089565b606060046000838152602001908152602001600020805480602002602001604051908101604052809291908181526020016000905b828210156118b157838290600052602060002001805461182490612703565b80601f016020809104026020016040519081016040528092919081815260200182805461185090612703565b801561189d5780601f106118725761010080835404028352916020019161189d565b820191906000526020600020905b81548152906001019060200180831161188057829003601f168201915b505050505081526020019060010190611805565b505050509050919050565b600560008154809291906118cf90612735565b919050555060405180608001604052806005548152602001838152602001828152602001428152506003600060055481526020019081526020016000206000820151816000015560208201518160010190805190602001906119329291906119f0565b50604082015181600201908051906020019061194f9291906119f0565b50606082015181600301559050507fb0b1b5b61bc0dbb800dfdecd756ac304fe33d3a63c2ac5dc419452555c99a8296005548383604051611992939291906123e6565b60405180910390a15050565b60055481565b6040518061012001604052806000815260200160608152602001606081526020016060815260200160608152602001606081526020016000815260200160008152602001600081525090565b8280546119fc90612703565b90600052602060002090601f016020900481019282611a1e5760008555611a65565b82601f10611a3757805160ff1916838001178555611a65565b82800160010185558215611a65579182015b82811115611a64578251825591602001919060010190611a49565b5b509050611a729190611a76565b5090565b5b80821115611a8f576000816000905550600101611a77565b5090565b6000611aa6611aa1846125ab565b61257a565b905082815260208101848484011115611abe57600080fd5b611ac98482856126c1565b509392505050565b600081359050611ae08161281c565b92915050565b600082601f830112611af757600080fd5b8135611b07848260208601611a93565b91505092915050565b600081359050611b1f81612833565b92915050565b600060208284031215611b3757600080fd5b6000611b4584828501611ad1565b91505092915050565b600060208284031215611b6057600080fd5b600082013567ffffffffffffffff811115611b7a57600080fd5b611b8684828501611ae6565b91505092915050565b60008060408385031215611ba257600080fd5b600083013567ffffffffffffffff811115611bbc57600080fd5b611bc885828601611ae6565b925050602083013567ffffffffffffffff811115611be557600080fd5b611bf185828601611ae6565b9150509250929050565b600080600080600080600060e0888a031215611c1657600080fd5b600088013567ffffffffffffffff811115611c3057600080fd5b611c3c8a828b01611ae6565b975050602088013567ffffffffffffffff811115611c5957600080fd5b611c658a828b01611ae6565b965050604088013567ffffffffffffffff811115611c8257600080fd5b611c8e8a828b01611ae6565b955050606088013567ffffffffffffffff811115611cab57600080fd5b611cb78a828b01611ae6565b945050608088013567ffffffffffffffff811115611cd457600080fd5b611ce08a828b01611ae6565b93505060a0611cf18a828b01611b10565b92505060c0611d028a828b01611b10565b91505092959891949750929550565b600080600080600060a08688031215611d2957600080fd5b600086013567ffffffffffffffff811115611d4357600080fd5b611d4f88828901611ae6565b9550506020611d6088828901611b10565b9450506040611d7188828901611b10565b935050606086013567ffffffffffffffff811115611d8e57600080fd5b611d9a88828901611ae6565b925050608086013567ffffffffffffffff811115611db757600080fd5b611dc388828901611ae6565b9150509295509295909350565b600060208284031215611de257600080fd5b6000611df084828501611b10565b91505092915050565b60008060408385031215611e0c57600080fd5b6000611e1a85828601611b10565b925050602083013567ffffffffffffffff811115611e3757600080fd5b611e4385828601611ae6565b9150509250929050565b60008060408385031215611e6057600080fd5b6000611e6e85828601611b10565b9250506020611e7f85828601611b10565b9150509250929050565b6000611e958383611faa565b905092915050565b6000611ea9838361204d565b905092915050565b611eba81612685565b82525050565b6000611ecb826125fb565b611ed58185612636565b935083602082028501611ee7856125db565b8060005b85811015611f235784840389528151611f048582611e89565b9450611f0f8361261c565b925060208a01995050600181019050611eeb565b50829750879550505050505092915050565b6000611f4082612606565b611f4a8185612647565b935083602082028501611f5c856125eb565b8060005b85811015611f985784840389528151611f798582611e9d565b9450611f8483612629565b925060208a01995050600181019050611f60565b50829750879550505050505092915050565b6000611fb582612611565b611fbf8185612658565b9350611fcf8185602086016126d0565b611fd88161280b565b840191505092915050565b6000611fee82612611565b611ff88185612669565b93506120088185602086016126d0565b6120118161280b565b840191505092915050565b600061202782612611565b612031818561267a565b93506120418185602086016126d0565b80840191505092915050565b600061012083016000830151612066600086018261220f565b506020830151848203602086015261207e8282611faa565b915050604083015184820360408601526120988282611faa565b915050606083015184820360608601526120b28282611faa565b915050608083015184820360808601526120cc8282611faa565b91505060a083015184820360a08601526120e68282611faa565b91505060c08301516120fb60c086018261220f565b5060e083015161210e60e086018261220f565b5061010083015161212361010086018261220f565b508091505092915050565b600061012083016000830151612147600086018261220f565b506020830151848203602086015261215f8282611faa565b915050604083015184820360408601526121798282611faa565b915050606083015184820360608601526121938282611faa565b915050608083015184820360808601526121ad8282611faa565b91505060a083015184820360a08601526121c78282611faa565b91505060c08301516121dc60c086018261220f565b5060e08301516121ef60e086018261220f565b5061010083015161220461010086018261220f565b508091505092915050565b612218816126b7565b82525050565b612227816126b7565b82525050565b6000612239828461201c565b915081905092915050565b60006020820190506122596000830184611eb1565b92915050565b600060208201905081810360008301526122798184611ec0565b905092915050565b6000602082019050818103600083015261229b8184611f35565b905092915050565b600060208201905081810360008301526122bd8184611fe3565b905092915050565b600060608201905081810360008301526122df8186611fe3565b90506122ee602083018561221e565b6122fb604083018461221e565b949350505050565b600060c082019050818103600083015261231d8189611fe3565b905061232c602083018861221e565b612339604083018761221e565b818103606083015261234b8186611fe3565b9050818103608083015261235f8185611fe3565b905061236e60a083018461221e565b979650505050505050565b60006020820190508181036000830152612393818461212e565b905092915050565b60006020820190506123b0600083018461221e565b92915050565b60006040820190506123cb600083018561221e565b81810360208301526123dd8184611fe3565b90509392505050565b60006060820190506123fb600083018661221e565b818103602083015261240d8185611fe3565b905081810360408301526124218184611fe3565b9050949350505050565b600061012082019050612441600083018c61221e565b8181036020830152612453818b611fe3565b90508181036040830152612467818a611fe3565b9050818103606083015261247b8189611fe3565b9050818103608083015261248f8188611fe3565b905081810360a08301526124a38187611fe3565b90506124b260c083018661221e565b6124bf60e083018561221e565b6124cd61010083018461221e565b9a9950505050505050505050565b60006080820190506124f0600083018761221e565b81810360208301526125028186611fe3565b905081810360408301526125168185611fe3565b9050612525606083018461221e565b95945050505050565b6000608082019050612543600083018761221e565b81810360208301526125558186611fe3565b9050612564604083018561221e565b612571606083018461221e565b95945050505050565b6000604051905081810181811067ffffffffffffffff821117156125a1576125a06127dc565b5b8060405250919050565b600067ffffffffffffffff8211156125c6576125c56127dc565b5b601f19601f8301169050602081019050919050565b6000819050602082019050919050565b6000819050602082019050919050565b600081519050919050565b600081519050919050565b600081519050919050565b6000602082019050919050565b6000602082019050919050565b600082825260208201905092915050565b600082825260208201905092915050565b600082825260208201905092915050565b600082825260208201905092915050565b600081905092915050565b600061269082612697565b9050919050565b600073ffffffffffffffffffffffffffffffffffffffff82169050919050565b6000819050919050565b82818337600083830152505050565b60005b838110156126ee5780820151818401526020810190506126d3565b838111156126fd576000848401525b50505050565b6000600282049050600182168061271b57607f821691505b6020821081141561272f5761272e6127ad565b5b50919050565b6000612740826126b7565b91507fffffffffffffffffffffffffffffffffffffffffffffffffffffffffffffffff8214156127735761277261277e565b5b600182019050919050565b7f4e487b7100000000000000000000000000000000000000000000000000000000600052601160045260246000fd5b7f4e487b7100000000000000000000000000000000000000000000000000000000600052602260045260246000fd5b7f4e487b7100000000000000000000000000000000000000000000000000000000600052604160045260246000fd5b6000601f19601f8301169050919050565b61282581612685565b811461283057600080fd5b50565b61283c816126b7565b811461284757600080fd5b5056fea2646970667358221220e727dc16f75b58c4e89d76cd45915719d86550e7230067565d6d061ee910feba64736f6c63430008000033",
  "immutableReferences": {},
  "source": "// SPDX-License-Identifier: MIT\r\npragma solidity ^0.8.0;\r\n\r\n// Import statements\r\nimport \"./roles/role.sol\";\r\nimport \"./roles/degree.sol\";\r\nimport \"./users/user.sol\";\r\nimport \"./products/product.sol\";\r\nimport \"./products/batch.sol\";\r\nimport \"./logs/activity.sol\";\r\nimport \"./region/region.sol\";\r\nimport \"./region/farmer.sol\";\r\nimport \"./region/inspector.sol\";\r\n// Contract declaration\r\n\r\ncontract RoleDegree is Role, Degree {\r\n    // Code for Role and Degree\r\n}\r\n\r\ncontract UserProductBatch is User, Product, Batch {\r\n    constructor(address _productContractAddress) Batch(_productContractAddress) {\r\n        // Additional initialization code if needed\r\n    }\r\n}\r\n\r\ncontract ActivityRegionFarmerInspector is ActivityLog, Region, Farmer, Inspector {\r\n    // Code for ActivityLog, Region, Farmer, and Inspector\r\n}\r\n\r\n// Main contract that combines the separated contracts\r\ncontract GrapefruitTraceability is RoleDegree, UserProductBatch, ActivityRegionFarmerInspector {\r\n    constructor(address _productContractAddress) UserProductBatch(_productContractAddress) {\r\n        // Additional initialization code if needed\r\n    }\r\n}",
  "sourcePath": "D:\\projects\\startup\\contracts\\application.sol",
  "compiler": {
    "name": "solc",
    "version": "0.8.0+commit.c7dfd78e.Emscripten.clang"
  },
  "schemaVersion": "3.4.16",
  "updatedAt": "2024-08-19T13:20:24.415Z",
  "devdoc": {
    "kind": "dev",
    "methods": {},
    "version": 1
  },
  "userdoc": {
    "kind": "user",
    "methods": {},
    "version": 1
  }
}